:100000000C94E3010C9400020C9400020C94000286
:100010000C9400020C9400020C9400020C94000258
:100020000C9400020C9400020C94CD100C940F1050
:100030000C94BF1B0C9400020C9400020C94000260
:100040000C9400020C9400020C9400020C94000228
:100050000C9400020C947E1B0C9400020C94000281
:100060000C9400020C9400020C9400020C94000208
:100070000C9400020C9400020C9400020C940002F8
:100080000C9400020C9400020C9400020C940002E8
:100090000C9400020C9400020C9400020C940002D8
:1000A0000C9400020C9400020C9400029F0A9F0A18
:1000B000CE0ACE0A380B530C530C530C540BC80BFE
:1000C000D90BD90B270E4E0EF70F4E0EF70F9A0EC7
:1000D000BD0EF70FB20FC20F42144714511445144E
:1000E0004A144F144D147B157E1581158415871500
:1000F0008A158D1529002B004C41E10035000000C8
:100100001E00140004001D0034004E001F001A00E1
:1001100016621B00E1042A00200008000761005756
:1001200050002C0021001500096401574F004B00BE
:10013000220017000A000500000033022E00D85CE0
:1001400000002F68000038005600D95C00003068BD
:100150000000230223001C000B00110000003502E8
:10016000240018000D6410005200E20125000C006C
:100170000E61360051002800260012000F62370081
:100180002F002B00270013003300380030002D0211
:10019000290031003441E10035000000A800490089
:1001A00001000100010000003A001E0220022202AC
:1001B000010001003B001F0221022302AA002A00C5
:1001C0003C002F0226022F00A9002C003D00300227
:1001D00027023000460001003E00310235003502A2
:1001E000000035022E00340200003400000035000B
:1001F0005600340200003400000035003F00520079
:1002000051002402000035024000240021001E009D
:10021000370001004100250022001F0027002800B0
:1002200042002600230020002E002B004300250260
:100230002E02310001002D024400450001000100A2
:100240000100000005010980A101850319012AB7F9
:1002500000150126B700950175108100C0050C0935
:1002600001A101850419012AA002150126A0029509
:100270000175108100C005010906A1018506050769
:1002800019E029E715002501950875018102050788
:10029000190029EF1500250195F075018102050867
:1002A00019012905950575019102950175039101C3
:1002B000C00660FF0961A1010962150026FF0095D3
:1002C00020750881020963150026FF009520750836
:1002D0009102C005010906A101050719E029E715EA
:1002E00000250195087501810295017508810105B8
:1002F00007190029FF150026FF00950675088100E3
:1003000005081901290595057501910295017503E7
:100310009101C009025B00030100A0FA090400007A
:10032000010301010009211101000122400007051C
:1003300081030800010904010002030000000921F3
:100340001101000122220007058203200001070598
:100350000303200001090402000103000000092139
:1003600011010001226D0007058403200001120124
:1003700000020000000897327449010001020001E8
:1003800016034500720067006F0044006F0078009C
:10039000200045005A00000028035A005300410085
:1003A000200054006500630068006E006F006C0060
:1003B0006F006700790020004C006100620073004C
:1003C00000000403090411241FBECFEFDAE0DEBFF2
:1003D000CDBF11E0A0E0B1E0E8E5F1E402C0059096
:1003E0000D92A238B107D9F722E0A2E8B1E001C02E
:1003F0001D92AF3BB207E1F70E94E4150C94AA20CE
:100400000C94000080E008959091B60292FF0DC018
:10041000282F2871283019F4877F846006C0282F80
:100420002471243011F48B7F886093FF0DC0282F36
:100430002871283119F4877E846106C0282F247121
:10044000243111F48B7E88612091B70220FF0DC00A
:10045000382F3871383019F4877F816006C0382F03
:100460003171313011F48E7F886021FF0DC0282F4B
:100470002871283119F4877E816106C0282F2171E7
:10048000213111F48E7E886194FD877E08957E303F
:10049000A0F4663090F494E5899FF001112486E081
:1004A000789FE00DF11D1124E60FF11DEE0FFF1FE7
:1004B000EC50FF4F85919491089580E090E008956D
:1004C000CF93DF938238910569F1B0F481339105C0
:1004D00009F477C048F48932910509F469C08A3279
:1004E000910509F473C092C08533910509F45BC08E
:1004F00089339105B9F08AC0833E910591F138F4B2
:10050000803E9105D1F0823E910531F17FC0863E5B
:100510009105D9F1873E9105E9F1843E910509F0F5
:1005200075C028C02091B60220FD5BC021FD59C0D6
:100530002091B70223FD61C069C08091B60280FDA1
:100540004AC08091B70280FF4CC08091B60284FD02
:1005500039C183EE90E038C18091B60282FF3EC07F
:10056000F4CF8091B60282FD39C08091B70280FD40
:1005700038C0EBCF8091B70281FF39C08091B602BD
:1005800084FD20C187EE90E01FC18091B60283FFF9
:100590002BC0F4CF8091B60283FD26C08091B702B4
:1005A00081FD25C0EBCF8091B60285FD26C022C01B
:1005B0008091B60285FD1EC08091B70283FF1DC0E9
:1005C0000AC08091B60286FD1BC01DC08091B60294
:1005D00086FD19C015C089E390E0F6C082EE90E078
:1005E000F3C080EE90E0F0C086EE90E0EDC084EEC7
:1005F00090E0EAC085E390E0E7C089E290E0E4C0E3
:100600008AE290E0E1C081E390E0DEC0811532E54E
:10061000930708F05FC0811541E5940728F0982FF3
:100620008827816F906AD0C0883E910568F5803E2A
:10063000910508F0C9C0883A9105B8F4853A91054A
:1006400048F0855AE82FF0E0EB5CFE4F808190E0A7
:100650009064BAC08130910509F4B1C008F4B2C009
:100660008430910508F4AEC0AFC08F3B910508F00F
:10067000A9C0885AE82FF0E0EE0FFF1FE85CFE4F9C
:10068000808191819464A0C0811520E59207A0F03B
:10069000AC014370552721E030E002C0220F331F28
:1006A0004A95E2F78695869540E2849FC001112421
:1006B000822B932B9D6888C0811530E4930718F036
:1006C0009F70906A81C09C013A9521153F4108F4C2
:1006D0007BC078C0EC01C11586E5D807E8F5C115E7
:1006E00025E5D20748F08C2F0E9404028F7190E01C
:1006F000982F8827906268C0C11534E5D30728F089
:100700009C2F8827846F906A5FC0AE014370552785
:100710002C2F26952695C115D34578F481E090E0DD
:1007200002C0880F991F4A95E2F740E2249F90018A
:100730001124822B932B9C6847C081E090E002C07B
:10074000880F991F4A95E2F740E2249F90011124F7
:10075000822B932B9A6838C0C1152AE5D207F8F48A
:10076000C11539E5D30790F08C2F8F700E940402D9
:1007700094E0D695C7959A95E1F7CF70D0E0DC2F3D
:10078000CC27D0699E01282BC9011EC0C11548E5A0
:10079000D407C0F09C2F8827806F906A15C0CE01C7
:1007A00090568115904270F48D2F8F710E94040233
:1007B000282F2F71CE0199279062922B05C081E0DE
:1007C00090E002C080E090E0DF91CF91089568EE64
:1007D0007EEF80E090E00E94F91E60E082E090E011
:1007E0000E94DB1E60E083E090E00E94DB1E10921E
:1007F000FE0160E084E090E00E94DB1E64E082E2A3
:1008000090E00E94DB1E60E085E090E00E94DB1E2D
:1008100060E086E090E00E94DB1E6FEF87E090E0F2
:100820000E94DB1E40E050E0BA0188E090E00E94A8
:10083000ED1E60E08DE090E00E94DB1E40E050E0A5
:10084000BA0188E190E00E94ED1E60E087E190E04F
:100850000E94DB1E40E050E0BA018CE190E00E9473
:10086000ED1E60E070E080E290E00E94F91E40E042
:1008700050E0BA0188E190E00E94ED1E1092430220
:1008800010924402109245021092460284E0809336
:10089000430240914302509144026091450270919D
:1008A00046028FE090E00E94ED1E40E050E0BA0169
:1008B00083E190E00E94ED1E08958091FD01811179
:1008C0001092FD01089580959091A802892380934C
:1008D000A8020895809590910A02892380930A02C4
:1008E000089590910A028091A802982B9093840118
:1008F0008091FD018823D9F0892B80938401809118
:100900000A01882331F08091B60287FF02C08EE190
:1009100001C086E0E6E8F1E090E0815028F0219106
:100920002223D9F39F5FF9CF91110E945D0440E229
:1009300050E06DED71E084E891E00E949D20892BEC
:1009400021F180E2E4E8F1E0ADEDB1E001900D923B
:100950008A95E1F7E091AD02F091AE023097A9F0EF
:1009600080910A01882359F08091B60287FF07C061
:10097000809184018093850186E0809384010280C8
:10098000F381E02D84E891E0099508952091DC0140
:10099000809582238093DC01982F977099F430E042
:1009A000482F082E000C550B2417350759F090914D
:1009B000B70292FF07C08595859585950E94B81965
:1009C0001092DC010895CF93C091B702C2FB992722
:1009D00090F9981791F080FBC2F9C093B70260912B
:1009E000B60284E090E00E94DB1E6C2F82E290E071
:1009F0000E94DB1E82E00E94C604CF910895809180
:100A0000DB019091AA01891719F08F5F8770FBCFE6
:100A100008950F931F93CF93DF938091A90182953F
:100A20008F7009F05AC08091A601882309F455C03F
:100A30008091DB011091AA016091A4017091A50140
:100A4000C091A701D091A80191E06F3F09F090E01B
:100A5000292F06E0811709F440C0209721F07F3F3D
:100A600021F030E003C031E001C0322F90E030FDD2
:100A700031C0089FF001099FF00D1124DF01A55539
:100A8000BE4F11963C911197371324C03C913613F9
:100A900021C012963C91129731111CC013964D91B2
:100AA0005C9114974C1B5D0B4639510598F480916D
:100AB000A9018F7080618093A901E055FE4F80816C
:100AC0008F708061808384EA91E00E941D080E94FB
:100AD000FF0403C001968770BDCFDF91CF911F91B6
:100AE0000F910895A1E1B0E0E8E7F5E00C941B1E3A
:100AF0008C0185E0F801DE011D9601900D928A952A
:100B0000E1F7F801E2809091A4016091A501409184
:100B1000A7015091A8014115510531F06F3F31F403
:100B200081E09F3F19F403C081E001C080E0F82F0D
:100B3000F1709F2E80FD1BC1F80130812181C3809F
:100B4000D48084EAA82E81E0B82EF090A601F601A8
:100B5000E41BF50BFF2009F4C7C08091A901E63919
:100B6000F10508F092C0482F407F09F051C0621390
:100B700011C093130FC0FE2CE1100CC08F70806168
:100B80008093A901C5010E941D088091A901F80167
:100B900085832AC1C114D10431F02F3F31F481E0A3
:100BA0003F3F19F403C081E001C080E080FD03C035
:100BB00081E08E2502C080E090E0F82FF170FF2EDA
:100BC00080FF1CC08091DB014091AA0156E0841790
:100BD00009F4E8C090E0589FF001599FF00D1124EE
:100BE000E555FE4F6181261306C06081631303C083
:100BF0006281E61203C001968770E9CFFE2CEE20D9
:100C000009F4F2C08091A90181608093A90149C0D3
:100C1000621306C0931304C0E11002C0F80186C03D
:100C2000C8010E94D619882351F1EE2041F120918C
:100C3000A901822F82958F7090E0029774F08091C5
:100C4000A4019091A50198878F831986DB86CA86B7
:100C50002C87CE0107960E941D0886E0F801A4EAC1
:100C6000B1E001900D928A95E1F70E9409050AC052
:100C70006217C9F0C8010E94D61981111EC0C801AF
:100C80000E941D08FF24F394AFC0482F407F81F7D6
:100C900084EA91E00E941D0886E0F50111928A9590
:100CA000E9F7F12CA1C09313E5CFE110E3CFF801F0
:100CB0008583C8010E941D0854C0EE2001F32091D5
:100CC000A901822F82958F7090E0029734F2809173
:100CD000A4019091A5019A8389831B82DD82CC8235
:100CE0002E83CE010196B7CFE639F105D0F5FE2C63
:100CF000EE2029F2621327C0931325C02091A90189
:100D000020FD18C0822F82958F70482F50E041152A
:100D1000510581F0F80125834F30510541F08F5F77
:100D2000982F9295907F822F8F70892B8583C80191
:100D30000E941D0886E0F801A4EAB1E001900D923E
:100D40008A95E1F751C0C8010E94D619811185CF5B
:100D50008091A90181608093A901C8010E941D08AA
:100D600043C086E0F50111928A95E9F73DC0EE2077
:100D700009F485CFC8010E94D619F82E882309F4FA
:100D80007ECF86E0F801A4EAB1E001900D928A9549
:100D9000E1F78091A4019091A5010E9418190E9489
:100DA000090522C03D872E878D859E850E941819D2
:100DB000292F22952F70223028F49F7039F081114D
:100DC00005C00BC0243028F49F7049F4805E883041
:100DD00020F0C8010E941D089F2CF92C05C0F801C5
:100DE0009581907F99F7F9CF8F2D6196EBE00C9468
:100DF000371EA0E0B0E0EFEFF6E00C941E1E8091ED
:100E0000170190911801892B91F08091FF018F5F5C
:100E10008093FF0181110BC00E94561490E09093C3
:100E2000180180931701892B11F40E94CD1407E457
:100E300012E07801D0E0C0E087E0C82ECC0E8C2F05
:100E40000E943D158C2D0E943D158C2F0E94A015EF
:100E50008F73F7019081891721F08083DD24D3946B
:100E600001C0D12C8C2D0E94A0158F73F7019781A2
:100E7000891719F0878381E001C080E0D82ADD2935
:100E80000E949115CF5FFFEFEF1AFF0AC730A1F65E
:100E900010920402C0910302CC2309F4C4C00E9442
:100EA000B31B2091010230910202AC01421B530B93
:100EB0009A0190930202809301024F3F510509F07D
:100EC00018F4452B19F102C02FEF30E01092030205
:100ED00010920002E0914102F0914202AF01425FA4
:100EE0005F4F90E030E08081882341F0281718F0B0
:100EF00010829C2F03C0821B80833C2F3196E41705
:100F0000F50789F73093030290930002DD2309F47B
:100F10007BC0E0914102F0914202809104029091E5
:100F20000302A8E5B2E0AF01425F5F4F68E2E8016B
:100F300028813C91321779F0308131110CC06083E7
:100F40002C9398819227282F30E0292B81E0232BA6
:100F500009F480E091E0319611960F5F1F4FE4177E
:100F6000F50729F78093040290930302C0910402CD
:100F70002091380280910602909107022223C9F144
:100F8000892B31F425982D9826982E9827982F98FC
:100F900080910602909107029170892B79F48091DB
:100FA0000502882319F026982E9802C0269A2E9AB8
:100FB0009091050281E089278093050280910602C5
:100FC000909107028130984750F01092380280913A
:100FD00055020E942C141092070210920602809172
:100FE00006029091070201969093070280930602F1
:100FF0001EC0892BE1F01092070210920602809128
:1010000055020E942C1413C081E090910002992394
:1010100009F4ACCF81117DCF0E94B31B90930202E3
:101020008093010276CFD111F7CF80E0EECF8C2FE5
:10103000CDB7DEB7E8E00C943A1EA5E2B0E0E3E2FB
:10104000F8E00C941B1EFC01808191812381348186
:10105000232B31F09F3F31F491E08F3F19F403C00F
:1010600091E001C090E090FD4CC47F0185E0DE017D
:10107000919601900D928A95E1F7D70112962C91E5
:1010800089A19AA1222349F00E94E918182F682FFC
:1010900089A19AA10E94591903C00E942519182FED
:1010A00069A17AA1812F0E9447028C01F7018281F8
:1010B0008823E1F08091A9029091AA020097B1F0F3
:1010C0008017910799F0FEE08F9FC0011124FC0169
:1010D000E25EFE4F208124602083875E9E4FDC010C
:1010E0000D931C930E94631C1092A80280913802F9
:1010F000882309F44FC0F70182818111BFC1E091BB
:101100000802E330A0F481E08E0F80930802F0E043
:10111000EE0FFF1FE858FD4FD7018D919C919183F1
:10112000808382E08983CE0101960E940112BFEF85
:10113000E3EDF0E3B150E040F040E1F700C0000023
:1011400080910802833009F099C110920802EEE7FD
:10115000F2E0A8E7B2E084E892E0318111962C91A8
:101160001197321330C030812C9132132CC032963B
:1011700012968E179F0789F784E0898381E0809318
:1011800039028EEF8A8310923802CE0101960E94B6
:10119000011274C1809139028823D1F0D7011296CF
:1011A0008C91882311F086E001C087E08983F701E4
:1011B00080818A8381818B838EEF8C83CE0101961F
:1011C0000E94011205C083E0898310923902D9CFB1
:1011D000033BBDE51B07E9F5D70112968C918823E7
:1011E00009F4D6C09091430281E0890F8770987FFF
:1011F000853020F4892B8093430202C090934302F0
:10120000809143028770BFEF8B9FC0011124959599
:101210008795959587959927909389008093880065
:1012200090938B0080938A0090938D0080938C0024
:1012300040914302509144026091450270914602F0
:101240008FE090E00E94ED1E809155020E942C14C8
:101250009FC0C80197558F3F910511F008F051C00C
:101260005801BB242EE0029FF0011124CF01875EBC
:101270009E4F6C01D70112969C911297E25EFE4F31
:10128000808190FB80F9808312969C919923A1F133
:101290000E94B31B9093760280937502F6018281BF
:1012A0008F5F82839091A80280910A02892B8383A9
:1012B0008091FD0184830680F781E02D309739F01D
:1012C000D6011C966D917C911D97C60109958EE003
:1012D0008A9DF0018B9DF00D1124E25EFE4F80810E
:1012E00081FF03C090E080E002C0902F812F909397
:1012F000A9028093AA0205C081FF03C0C6010E9413
:10130000491C043FBCE51B0741F190F4093DFCE595
:101310001F07E9F00A3D2CE5120789F1083D8CE52D
:101320001807B1F506E221EE41EE68ED7CE52CC030
:10133000063F9CE51907E9F0B0F0073FBCE51B0745
:1013400039F507E225EE46EE67EF7CE51DC007E2C2
:1013500025EE45EE69ED7CE517C006E221EE40EE94
:1013600064EF7CE511C007E225EE44EE65EF7CE515
:101370000BC006E221EE42EE66EF7CE505C008E216
:1013800021E045EE6AED7CE5C7010E948E1C76C027
:10139000F7018281882309F483C01092A7020C35DB
:1013A000FDE51F0709F464C060F401158CE518071A
:1013B000A9F00F3D9CE5190709F072C00E94E703F0
:1013C0004CC00E35ADE51A0709F44AC008F452C006
:1013D000093AEDE51E0709F440C062C010920A0206
:1013E0000E940D1AFFEF24E38CE0F1502040804072
:1013F000E1F700C00000F89481E08093E00080E213
:101400008093D8001092C900AFE1BEE41197F1F7C4
:1014100000C000001DBA109268001CBC10BE1FBAAC
:1014200010927A0010926E0010926F00109271006C
:10143000109272001092C9001092BC0014B817B834
:101440001AB81DB810BA1092BC0015B818B81BB85D
:101450001EB811BA0C94003F11C00E9414140EC0A3
:101460008091B70282FB882780F991E0892703C029
:1014700081E001C080E00E94E30412C08091DC01A1
:10148000877009F43EC2F7018281882309F439C2CA
:101490008091B70282FF35C282E00E94C60431C249
:1014A000F701828100811181882349F0C8010E94DF
:1014B000E918D82E682FC8010E94591904C0C80124
:1014C0000E942519D82EB8018D2D0E9447020E9436
:1014D00060028C01982ED7011296DC901297159617
:1014E000CC90C2949FE0C9228091DC018770B9F052
:1014F000DD20A9F0812F807F803421F080E2800FF1
:10150000883068F08091B70282FF09C082E00E94B3
:10151000C6048091DC018770BB24B3948111B12C87
:10152000A12EA2948FE0A8228A2D90E08C30910504
:1015300008F0B9C1FC01EA5AFF4F0C94761F812FC5
:10154000807F1F70882311F01295107FDD20B9F085
:10155000112309F496C180E2800F883010F09110B9
:1015600006C080910A02182B10930A0205C08091D0
:10157000A802182B1093A8020E94710482C1802F28
:101580000E94431A112309F48EC1005E812F083096
:1015900060F1992051F10E94630429C0812F807F5E
:1015A0001F70803211F01295107F992021F0B1E068
:1015B0009B16D9F147C08091B70282FD1BC0DD2088
:1015C00069F0112339F080910A02182B10930A0256
:1015D0000E94710480E00E946F1A65C180E00E9441
:1015E000431A112309F45FC1812F0E946A040E94EB
:1015F000710459C1DD2081F08091FD01CC2051F0B2
:10160000E1E0CE1207C0182B181709F44CC1109353
:10161000FD0149C1812B10C0CC2021F0F1E0CF1693
:1016200009F441C10E945D041FC0DD2041F021E0AA
:101630002C1508F438C1812F0E94391A34C1C11009
:1016400032C112C0DD2019F0CC20A9F31AC1CC2080
:1016500059F0093309F024C18FEF97EEA3E08150D0
:101660009040A040E1F71AC1812F0E94321A1BC19D
:10167000812F86958695837019F0813059F013C1BA
:10168000DD2019F0C801937002C080E090E00E9454
:10169000261C0FC1DD2019F0C801937002C080E044
:1016A00090E00E94101C05C1812F8370A9F5D11014
:1016B000FEC0402F429546954770440F440F802F3F
:1016C0008F7090E09C01042E01C0220F0A94EAF76B
:1016D00004FF08C08FE090E001C0880F4A95EAF748
:1016E000809501C080E0169516951370123069F050
:1016F00088F49091FE01113019F0822B892302C0E9
:10170000922B892B0E94D119D2C0822B9091FE017D
:101710008927F8CF822BF6CFDD2019F0812F817039
:1017200001C08695882309F4C2C0402F4295469592
:101730004770440F440F802F8F7090E09C01042E5F
:1017400001C0220F0A94EAF704FF08C08FE090E07E
:1017500001C0880F4A95EAF7809501C080E0169590
:1017600016951370123059F078F49091550211309B
:1017700019F0822B892309C0922B892B06C0822B5A
:1017800090915502892701C0822B0E948E198FC02B
:101790001F70DD2039F0812F0E94C519802F0E9413
:1017A000391A85C0802F0E94321A812F0E94B819E1
:1017B0007EC0802FB2EF9B1669F1B91538F0E0EFCB
:1017C0009E1659F0F1EF9F1601F157C023EF9216C4
:1017D00041F194EF9916A9F050C0DD2069F0C110D5
:1017E00062C01F7181E090E001C0880F1A95EAF78E
:1017F0009091550289271FC0A1E0AC1508F453C091
:10180000F0CF8091B70282FD19C0DD2029F0812F31
:101810008F7126C0DD20D9F3812F8F710E94B819F6
:1018200042C0DD2039F01F7181E001C0880F1A9598
:10183000EAF701C080E00E948E1935C0DD2099F0E2
:101840001F71812F0E94C5198091B70282FF07C0C6
:10185000B8E01B9FC001112483608093DC01812FBD
:101860000E94C51920C081E00E94C604E1E0EC1589
:10187000D0F482E00E94C60416C0DD2021F0CC2006
:1018800031F2802FA8CECC2039F2893349F4FFEF12
:1018900027EE83E0F15020408040E1F700C00000D7
:1018A000802F0E94431A88EF8A0D843010F40E9422
:1018B0003C1CBB20B1F08091DC0180FD12C0D7013F
:1018C00012961C928595859585950E94C519C7012C
:1018D0000E941D088091DC018595859585950E9463
:1018E000B81985E0F701DE01119601900D928A95F5
:1018F000E1F709811A81C8010E942519B8010E94E7
:101900004702A596EBE00C94371E8091300287FFCA
:1019100011C08091E80082FD05C080913B028111D9
:10192000F8CF11C08091E8008B770BC080913B020B
:10193000882349F08091E80080FFF8CF8091E8008B
:101940008E778093E8000895982F973068F59093EC
:10195000E900981739F07091EC002091ED0050915A
:10196000F00003C0242F762F50E021FD02C09F5FBE
:10197000ECCF3091EB003E7F3093EB003091ED00E7
:101980003D7F3093ED003091EB0031603093EB0000
:101990007093EC002093ED005093F0002091EE0046
:1019A00027FDE5CF80E008958F708093E90081E006
:1019B000089520913602309137022617370748F0F4
:1019C0006115710539F42091E8002E772093E80025
:1019D00001C0B901FC0120E06115710579F1809128
:1019E0003B028823F1F18530F1F18091E80083FD1D
:1019F0003CC08091E80082FD2EC08091E80080FF0D
:101A0000EBCF2091F3008091F20090E0922B6115D2
:101A1000710551F08830910538F421912093F1003F
:101A2000615071090196F3CF21E0089709F020E099
:101A30008091E8008E778093E800CECF2111CFCF40
:101A40000AC080913B02882361F0853061F080916B
:101A5000E80083FD0AC08091E80082FFF2CF80E0B9
:101A6000089582E0089583E0089581E0089508953F
:101A7000BC0184E00E94541B0895BC0183E00E94D5
:101A8000541B0895AAE2B0E0E8E4FDE00C94231EA4
:101A9000E0E3F2E088E392E02091F10021938E17D9
:101AA0009F07D1F780913102833009F463C030F48D
:101AB000813071F0823009F49FC0B6C08A3009F4D9
:101AC0008BC08B3009F46EC0893009F0ADC020C0E6
:101AD00080913002813A09F0A7C08091E800877FA9
:101AE0008093E8008091340290913502892B21F493
:101AF00060E28DE092E003C060E080E090E070E0A2
:101B00000E94D90C8091E8008B778093E8008CC00C
:101B100080913002813209F087C080913402909127
:101B20003502009719F0029709F07EC08091E80015
:101B3000877F8093E8008091E80082FD05C0809156
:101B40003B028111F8CF70C02091F3008091F20028
:101B500090E0922B029731F48091F100813011F0E6
:101B6000863021F48091F10080930C028091E8008E
:101B70008B7756C080913002813A09F055C0809130
:101B8000340290913502892B09F04EC08091E80013
:101B9000877F8093E8008091E80080FFFCCF8091F0
:101BA0000A0139C0809130028132F1F5809134020E
:101BB00090913502892BC1F58091E800877F809351
:101BC000E8000E94850C8091320280930A011092F5
:101BD0000A020E940D1A28C080913002813221F53C
:101BE0008091E800877F8093E8000E94850C8091B7
:101BF000330280930B0218C080913002813AA1F425
:101C00008091E800877F8093E8008091E80080FF62
:101C1000FCCF80910B028093F1008091E8008E77D9
:101C20008093E8000E94850C8091E80083FFDFC16B
:101C30008091300290913102492F50E04A30510595
:101C400008F0D5C1FA01EE59FF4F0C94761F803889
:101C500021F0823809F0CBC108C080912D0290910B
:101C60002E02992389F082600FC0809134028F7018
:101C7000873008F0BCC18093E9008091EB0085FBC0
:101C8000882780F91092E9009091E800977F90935F
:101C9000E8008093F1001092F10070C1282F2D7F91
:101CA00009F0A5C1882319F0823061F0A0C18091AC
:101CB0003202813009F09BC1933009F080E08093BB
:101CC0002E022EC08091320281112AC080913402EE
:101CD0008F702FEF280F263008F089C18093E9001C
:101CE0002091EB0020FF1CC0933021F48091EB0089
:101CF000806214C09091EB0090619093EB0021E022
:101D000030E0A90102C0440F551F8A95E2F74093C5
:101D1000EA001092EA008091EB0088608093EB006B
:101D20001092E9008091E800877F8093E8000E948C
:101D3000850C5DC181115BC1109132021F778091CA
:101D4000E3008078812B8093E3008091E800877F17
:101D50008093E8000E94850C8091E80080FFFCCF12
:101D60008091E30080688093E300111102C082E05B
:101D700001C083E080933B023AC18058823008F072
:101D800036C120913202309133022C3D53E03507A9
:101D900079F583E08A838AE289834FB7F894DE017C
:101DA000139620E03EE051E2E32FF0E0509357001D
:101DB000E49120FF03C0E295EF703F5FEF708E2F3C
:101DC00090E0EA3010F0C79601C0C0968D939D93C5
:101DD0002F5F243149F74FBF8091E800877F8093C0
:101DE000E8006AE270E0CE0101960E94D90CB4C00E
:101DF0008091340290913502432F5527433051058D
:101E0000A9F068F44130510509F400C14230510590
:101E100009F0EDC08BE590E0E3E1F3E04BC0413227
:101E2000510529F14232510589F1E1C0C9019927D3
:101E300081309105A1F058F0029709F0D8C0E0E890
:101E4000F3E0E4918E2F90E0E0E8F3E030C0E2ECC4
:101E5000F3E0E4918E2F90E0E2ECF3E028C0E8E9B3
:101E6000F3E0E4918E2F90E0E8E9F3E020C08330C6
:101E7000910508F0BCC0880F991FFC01E159FE4F85
:101E80000190F081E02D89E090E014C0833091054D
:101E900008F0ADC0FC01EE0FFF1FE759FE4F0190A7
:101EA000F081E02DDC01AA59BE4F8C9190E00097A3
:101EB00009F49DC02091E800277F2093E80020913D
:101EC0003602309137022817390708F4C90140E07B
:101ED000009789F120913B02222309F43DC025306F
:101EE000D9F12091E80023FD37C02091E80022FDC0
:101EF0002FC02091E80020FFEBCF4091F30020910C
:101F0000F20030E0342B009759F02830310540F4CE
:101F100044914093F100319601972F5F3F4FF3CFEB
:101F200041E02830310509F040E02091E8002E77AB
:101F30002093E800CDCF4111CDCF0AC080913B0264
:101F4000882351F0853041F08091E80083FD04C082
:101F50008091E80082FFF2CF8091E8008B77809338
:101F6000E80045C0803809F042C08091E800877FD2
:101F70008093E80080912F028093F1008091E80027
:101F80008E77D3CE811133C080913202909133028B
:101F90009927029764F58091E800877F8093E80095
:101FA0001091320210932F020E94850C111106C06D
:101FB0008091E30087FD02C081E001C084E080934E
:101FC0003B0242E061EC81E00E94A40C42E261EC41
:101FD00084E00E94A40C42E261EC82E00E94A40C26
:101FE00042E260EC83E00E94A40C80913B0280916D
:101FF000E80083FF10C08091E800877F8093E800AD
:102000008091EB0080628093EB0005C082E190E05C
:10201000EEE6F3E04FCFAA96E3E00C943F1E1F924A
:102020000F920FB60F9211242F933F934F935F930C
:102030006F937F938F939F93AF93BF93CF93DF93D0
:10204000EF93FF93C091E900CF708091EC00D82FFF
:10205000D17080FDD0E81092E9008091F000877F78
:102060008093F00078940E94420D1092E9008091D4
:10207000F00088608093F000CD2BCF70C093E90012
:10208000FF91EF91DF91CF91BF91AF919F918F9190
:102090007F916F915F914F913F912F910F900FBE64
:1020A0000F901F901895E8EDF0E080818E7F80837F
:1020B0001092E2001092DA001092E100A0EEB0E07F
:1020C0008C9181608C9380818F77808319BCA7ED80
:1020D000B0E08C918E7F8C9380818F7E8083109274
:1020E00009020895A0E0B0E0E8E7F0E10C941E1EBC
:1020F000C8EDD0E088818F7E8883E7EDF0E08081B5
:102100008160808384E082BF81E0809309028881BE
:102110008E7F888302EE10E0F80110821092DA00C0
:1021200081EEC82ED12CF601108288818F778883AA
:1021300088818068888388818F7D888319BC10920C
:102140003B0210922F0210922E0210922D0290EE5E
:10215000E92EF12CF70180818B7F8083888181605B
:10216000888342E060E080E00E94A40CF601808158
:102170008E7F8083F8018081816080838081886088
:102180008083F70180818E7F80838881806188834E
:10219000CDB7DEB7E8E00C943A1E1F920F920FB64F
:1021A0000F9211242F933F934F935F936F937F93DD
:1021B0008F939F93AF93BF93EF93FF938091E10031
:1021C00082FF09C08091E20082FF05C08091E1009A
:1021D0008B7F8093E1008091DA0080FF2AC080919C
:1021E000D80080FF26C08091DA008E7F8093DA00CD
:1021F0008091D90080FF18C080E189BD82E189BD4E
:1022000009B400FEFDCF81E080933B02809109027A
:1022100081110FC00E9453100E9472108091E20041
:1022200084608093E20005C019BC10923B021092BA
:1022300009028091E10080FF17C08091E20080FFD9
:1022400013C08091E2008E7F8093E2008091E200D3
:1022500080618093E2008091D80080628093D800F2
:1022600019BC85E080933B028091E10084FF30C07F
:102270008091E20084FF2CC080E189BD82E189BDAC
:1022800009B400FEFDCF8091D8008F7D8093D800E7
:102290008091E1008F7E8093E1008091E2008F7E4B
:1022A0008093E2008091E20081608093E20080915F
:1022B0002F02882311F084E007C08091E30087FD9E
:1022C00002C081E001C083E080933B0280913B0229
:1022D0008091E10083FF27C08091E20083FF23C04B
:1022E0008091E100877F8093E10082E080933B0250
:1022F00010922F028091E1008E7F8093E100809107
:10230000E2008E7F8093E2008091E2008061809302
:10231000E20042E060E080E00E94A40C8091F000C6
:1023200088608093F000FF91EF91BF91AF919F91F2
:102330008F917F916F915F914F913F912F910F906E
:102340000FBE0F901F9018952091E4003091E5008A
:1023500095E64091EC00842F817040FF23C080916E
:10236000E80080FD1DC080913B02882399F08530F4
:1023700099F08091EB0085FD11C04091E4005091EF
:10238000E5002417350729F3915011F09A01E1CFA8
:1023900084E0089582E0089583E0089581E008953F
:1023A00080E008954091E80042FFDDCF0895EF926C
:1023B000FF920F931F93CF93DF937C018B010E94B9
:1023C000A411811119C0E70101151105A1F0809137
:1023D000E80085FD0AC08091E8008E778093E800D0
:1023E0000E94A411882381F307C089918093F10092
:1023F00001501109E9CF80E0CDB7DEB7E6E00C94DB
:102400003C1ECF9320913B02243029F5C091E90076
:10241000CF703091EC00232F217030FD20E8C22BCB
:1024200022E02093E9002091E80020FF11C040E065
:1024300050E060E270E00E94D711882321F01092F2
:102440003802109239028091E8008E778093E8007C
:10245000CF70C093E900CF9108959C013A95211562
:102460003F4130F5BC0166277270AC0144275470BF
:102470009C012227387094FF0FC090FF02C080E1BA
:1024800001C080E0672B09F08062452B09F0806471
:10249000232B79F080680895892F8170672B09F0CC
:1024A0008260452B09F08460232B19F08860089521
:1024B00080E00895FC018281813039F4958192FD9C
:1024C00012C090FF10C082E00895823039F48581F7
:1024D00082FD06C080FD06C083E0089586E0089571
:1024E00085E0089584E00895CF93DF93EC010E9486
:1024F000431ACE01805E9109089710F0209731F4BD
:10250000CE010E942D120E94321A05C0CE010E94F7
:102510002D120E94211ADF91CF9108958FE39CE93B
:102520000197F1F700C0000080914002833029F04C
:10253000853031F0813041F403C089E191E002C07F
:1025400089E190E00E9474121092400208958FE396
:102550009CE90197F1F700C0000080913E028330B2
:1025600029F0853031F0813041F403C086E091E0FC
:1025700002C086E090E00E94741210923E0208951C
:10258000CF93DF93EC01805E9109089710F02097BC
:1025900031F4CE010E942D120E94391A05C0CE01DD
:1025A0000E942D120E94281A8C2F0E946F1ADF9110
:1025B000CF9108950F931F93CF93DF938C01C99709
:1025C00019F0C0E0D0E002C0C0E5D0E0C8010E9430
:1025D000C012209741F08FE99FE00197F1F700C00A
:1025E00000002197F6CFC8010E947412DF91CF91AD
:1025F0001F910F910895CF93DF93EC018A8183306F
:1026000061F489E190E00E94DA1289E190E00E9491
:10261000DA1289E190E00E94DA128A81843020F097
:1026200089E190E00E94DA12DF91CF910895CF9373
:10263000DF93EC018A81833061F486E090E00E94B0
:10264000DA1286E090E00E94DA1286E090E00E94C2
:10265000DA128A81843020F086E090E00E94DA125B
:10266000DF91CF9108950E945A12809340028330E7
:1026700029F0853031F0813061F407C089E191E0C3
:1026800006C089E190E00E94DA1289E190E00E94A0
:10269000C01208950E945A1280933E02833029F09E
:1026A000853031F0813061F407C086E091E006C0EA
:1026B00086E090E00E94DA1286E090E00E94C0126C
:1026C0000895A7E1B0E0E7E6F3E10C94231E4B8BFD
:1026D0005C8B6D8B7E8B8F8B61111092A80286E0D4
:1026E0009E01235F3F4FD901E82F1D92EA95E9F73C
:1026F00095E0FE017396D90101900D929A95E1F74C
:102700009C894E895F897B897D879E876F87598BDE
:10271000488BF901DE01179601900D928A95E1F739
:10272000CE0107960E94720581113EC086E0FE012F
:102730003796DE01119601900D928A95E1F7FF819F
:10274000E8856A857B856115710531F0EF3F31F4CD
:1027500081E0FF3F19F403C081E001C080E080FD0B
:1027600023C02091AA0130E0C90101968770992702
:102770004091DB0150E08417950779F1F983EA83F2
:102780007D836C8396E0929FD001939FB00D1124BE
:10279000A555BE4FFE01319601900D929A95E1F735
:1027A0008093AA010E94FF0416E08091DB019091C2
:1027B000AA01891709F1189FC001112485559E4F60
:1027C0000E9472058823C1F08091DB0190E00196A0
:1027D000877099278093DB01E8CF10920A020E944C
:1027E0000D1A1092AA011092DB01E4EAF1E086E0F2
:1027F000DF011D928A95E9F76796E3E00C943F1E8E
:10280000982F92959F7019F0892F24E001C020E045
:10281000982F9695969511F02E5F892F982F969563
:1028200009F02F5F822F089510920A020E940D1A5C
:102830002FEF84E39CE0215080409040E1F700C0FE
:1028400000009AE088E10FB6F894A89580936000A4
:102850000FBE90936000FFCFCF93C82F0E9400144B
:1028600056985E9825982D9826982E9827982F98F8
:1028700090E0FC013197E730F105A8F4E459FF4FEF
:102880000C94761F259A2D9A0EC0259A2D9A269A79
:102890002E9A09C0259A2D9A04C0259A2D9A269A17
:1028A0002E9A279A2F9A8C2FCF91089580E290E04C
:1028B000909318018093170180913C0281110EC002
:1028C0000E94301D81E080933C022FEF83ED90E366
:1028D000215080409040E1F700C0000060E570E0CA
:1028E00080E40E94361D9093180180931701892B74
:1028F00009F04EC060E570E080E00E94A91D909351
:10290000180180931701892B09F042C060E570E03F
:1029100080E00E94A91D9093180180931701892BD4
:10292000B9F560E570E08FE30E94A91D909318014E
:1029300080931701892B61F50E94FC1D60E570E012
:1029400080E40E94361D9093180180931701892B13
:10295000F9F460E570E08CE00E94A91D90931801E5
:1029600080931701892BA1F460E570E080E00E945C
:10297000A91D9093180180931701892B49F460E5F4
:1029800070E08FE30E94A91D9093180180931701B6
:102990000E94FC1D809117010895CF93DF935698F4
:1029A0005E9825982D9826982E9827982F98C8E8F5
:1029B000D0E08FEF90E099838883AAE8B0E0119689
:1029C0009C938E93ECE8F0E091838083259A2D9A76
:1029D0002FEF80E792E0215080409040E1F700C067
:1029E0000000269A2E9A2FEF80E792E02150804037
:1029F0009040E1F700C00000279A2F9A2FEF80E760
:102A000092E0215080409040E1F700C000002598FE
:102A10002D982FEF80E792E0215080409040E1F721
:102A200000C0000026982E982FEF80E792E02150FA
:102A300080409040E1F700C0000027982F988091D7
:102A4000430287702FEF829FC001112495958795CF
:102A50009595879599279983888311969C938E9352
:102A60009183808356985E9825982D9826982E9865
:102A700027982F98DF91CF910895CF93E82F873033
:102A800080F58091170190911801892B09F047C0BA
:102A9000CE2F60E570E080E40E94361D909318010F
:102AA00080931701892BD1F460E570E082E10E94E8
:102AB000A91D9093180180931701892B79F481E067
:102AC00090E001C0880FCA95EAF760E570E0809554
:102AD0000E94A91D90931801809317010E94FC1D6C
:102AE0001EC090E0FC013797E730F105C0F4ED58C7
:102AF000FF4F0C94761F209A289811C0219A29988C
:102B00000EC0229A2A980BC0239A2B9808C0529A7A
:102B10005A9805C0539A5B9802C03E9A4698CF9146
:102B20000895209828982198299822982A982398DF
:102B30002B9852985A9853985B983E9846980895C7
:102B4000CF93873040F58091170190911801892B20
:102B500059F560E570E081E40E94361D90931801FC
:102B600080931701892B11F0C0E011C080E590E03F
:102B70000E94D81D97FF05C09093180180931701FC
:102B8000F3CFC82FC09510921801109217010E9420
:102B9000FC1D8C2F0AC09FB18FB1807F86958695D2
:102BA0009370892B809501C080E0CF910895809823
:102BB000889A8198899A84988C9A85988D9A869813
:102BC0008E9A87988F9A0895ACE5B0E0EAEEF5E129
:102BD0000C94181E85B7806885BF85B7806885BF4F
:102BE00084B7877F84BF0FB6F894A8958091600062
:102BF000886180936000109260000FBE90E080E8D2
:102C00000FB6F89480936100909361000FBE82E04C
:102C100092E090938301809382010E9453100E945E
:102C200072108091E20084608093E2007894809139
:102C30003B028823A1F01091E9001F709091EC00F5
:102C4000892F817090FD80E8182B1092E900809107
:102C5000E80083FD0E94420D1F701093E90082E09E
:102C600084BD93E095BD9AEF97BD80936E000E945E
:102C7000561490E090931801809317010E949115CB
:102C80000E94D715E7E4F2E0A8E5B2E011921D92A8
:102C900022E0E535F207D1F78EE090E00E947C1F3C
:102CA0008093410290934202FC010E961192E81724
:102CB000F907E1F789EA8093800089E08093810039
:102CC00024982C983F988AB18F7C8AB96E98479A3D
:102CD0008BB180638BB9769A8FE090E00E94BF1E23
:102CE000609343027093440280934502909346029E
:102CF00067708FEF689FB001112475956795759582
:102D000067957727709389006093880070938B0094
:102D100060938A0070938D0060938C000E94CD14A4
:102D200080E090E00E94C51E883E9E4F11F00E94F8
:102D3000E70382E090E00E94B71E8093660284E081
:102D400090E00E94B71E182F82E290E00E94B71E0A
:102D5000212F30E0382B3093B7022093B60283E066
:102D600090E00E94B71E0E94D119809155020E94E6
:102D70002C148BE091E09093AE028093AD0258E169
:102D8000E52EF12C00E480913B02853009F055C01E
:102D900040E1D42E12E180913B02853009F047C01A
:102DA00080913B02843009F11092B1020FB6F89481
:102DB000A895E09260000FBE0093600083B7817F0A
:102DC000846083BF83B7816083BF7894889583B71D
:102DD0008E7F83BF0FB6F894A895809160008861BC
:102DE00080936000109260000FBE80912E028823B5
:102DF00091F20E94561490E090931801809317016D
:102E00000E9491150E94D715E8E5F2E0119222E0A8
:102E1000E636F207D9F70E94F906E8E5F2E081917B
:102E20008111B2C182E0E636F807C9F7B4CF10923B
:102E30000A020E940D1A0E943C1C0E94F90637E605
:102E4000C32E32E0D32EA8E5B2E0F60191918D9128
:102E5000892792E0E537F90719F08823B9F332C0E2
:102E6000811130C00E94B31B6C0180915602909179
:102E70005702C816D90609F474C08FEF64968FAF55
:102E8000649765968FAF659766961FAE66970E94AA
:102E9000B31B8160782F68969FAF8EAF689764965A
:102EA0004FAD649765965FAD659766966FAD669713
:102EB00068968FAD68970E946113D0925702C092B6
:102EC00056024FC028E5822E22E0922E10E0F40137
:102ED00061904F01F6017080762489F1B12CAA240B
:102EE000A394872D8A2121F16996BFAE69976A96CE
:102EF0001FAF6A9791E0862D8A2109F490E06B96C6
:102F00009FAF6B970E94B31B8160782F6D969FAF28
:102F10008EAF6D9769964FAD69976A965FAD6A9768
:102F20006B966FAD6B976D968FAD6D970E94611329
:102F3000B394AA0CF6E0BF12D4CFF60160821F5FF3
:102F4000FFEFCF1ADF0A1E3009F0C1CF8FB7F89418
:102F50004091B2025091B3026091B4027091B502F7
:102F60008FBF8091A9029091AA02892BC9F080910C
:102F70007502909176020E94A41B8739910580F01A
:102F80008091A9022EE0829FC0011124FC01E25E23
:102F9000FE4F208122FD04C0875E9E4F0E94631C6D
:102FA0000E943C1C90917702891769F08093770208
:102FB0008FB7F8944091B2025091B3026091B4027D
:102FC0007091B5028FBF80913B02843009F0DBCE57
:102FD00083E08093E9008091E80082FFD4CE809165
:102FE000E80085FF24C00E94A41181111EC090E258
:102FF000C92ED12C5E0181E2A80EB11C09C08091BE
:10300000F100F50181935F01F1E0CF1AD10869F079
:103010008091E80085FDF3CF8091E8008B77809365
:10302000E8000E94A411882399F391E001C090E088
:103030008091E8008B778093E800992309F4A3CE70
:1030400089A18230A9F050F48823B9F1813009F0C8
:103050009ACE8EE7C82E82E0D82E3CC0853009F487
:103060008AC0863009F487C0843009F08CCE77C0DE
:103070008BA19AA190937802809379028DA19CA153
:1030800090937A0280937B028FA19EA190937C0201
:1030900080937D0242E150E063E270E0CE018F5BFD
:1030A0009F4F0E94A71E84E0898381E080933902AC
:1030B0008EEF8A831092380262C019828CE0E5E7B5
:1030C000F1E0DE01129601900D928A95E1F78EEF04
:1030D0008D8755C00E94101DF601819391936F0159
:1030E000F4E8CF16F2E0DF06A9F781E0898390913A
:1030F0007E029A8390917F029B83909180029C83B1
:10310000909181029D83909182029E83909183028F
:103110009F839EEF988780933802CE0101960E948C
:10312000011242E150E063E270E0CE0101960E949C
:10313000A71EFE01319682E183301CF09189928BAB
:1031400001C0128A815031978F3FB1F742E150E0C0
:1031500063E270E0CE0101960E94CB1E14CE8091F6
:103160003902882309F40FCE80E00E948E198AA1CB
:103170000E94C51908CE8FEF898384E08A83CE012F
:1031800001960E940112FFCDD9BC19BD09B400FE01
:10319000FDCF8091D8008F7D8093D8008091E00092
:1031A00082608093E0008091E00081FDFCCF10926E
:1031B0000A020E940D1AEFCD80E090E00E94261CCA
:1031C00080E090E00E94101C1092A8020E947104FE
:1031D0000895CF92DF92FF920F931F93CF93DF93C7
:1031E0006C01009155028091FE01082BC7E0D0E0F0
:1031F00010E0C8010C2E02C0959587950A94E2F75D
:1032000080FD04C02197A8F7F12C09C0FC2EB6015F
:103210008C2F0E9447020E946002019799F38F2D24
:10322000DF91CF911F910F91FF90DF90CF90089584
:10323000CF93DF93EC010E94E918BE010E94470280
:103240000E946002DF91CF910895292F9E3078F57A
:10325000863068F590E036E0239F800D911D1124A3
:10326000682F677023E0969587952A95E1F7FC0112
:10327000EE0FFF1FE80FF91FEC57FD4F40E050E045
:1032800080E0219130E0062E02C0369527950A9401
:10329000E2F721703327042E01C0220F0A94EAF7C7
:1032A000822B4F5F5F4F4330510559F7089580E0FF
:1032B0000895292F9E3088F5863078F590E036E025
:1032C000239F800D911D1124282F277051E001C0EC
:1032D000550F2A95EAF723E0969587952A95E1F709
:1032E000FC01EE0FFF1FE80FF91FEC57FD4F20E028
:1032F00030E070E04081CB01022E02C096958795A8
:103300000A94E2F78170819584278523842781932D
:103310002F5F3F4F2330310569F70895A0E2B0E0F9
:10332000E4E9F9E10C94231E0E942C14182F8091DB
:1033300039028823A9F02FEF80E792E021508040E6
:103340009040E1F700C0000085E08983812F0E9452
:1033500000148A838EEF8B83CE0101960E940112A6
:10336000109355020E94DC18A096E3E00C943F1ED7
:1033700021E030E001C0220F8A95EAF72095809184
:10338000550282230E948E19089521E030E001C089
:10339000220F8A95EAF780915502822B0E948E199E
:1033A00008958093FE010E94DC180895CF93FC01DC
:1033B0008081918123813481232B31F09F3F31F42F
:1033C00091E08F3F19F403C091E001C090E0C92F54
:1033D000C17090FD1CC0808191810E941819929546
:1033E0009F70963079F010F4925001C09A5092304C
:1033F00088F4803F71F018F4883E60F40AC0843F7E
:1034000049F407C0883E28F0813F21F402C0C0E0A3
:1034100001C0C1E08C2FCF91089580910A018823CB
:1034200031F08091B60287FF02C08EE101C086E0D4
:10343000E6E8F1E0DF011D928A95E9F70E94DC18C9
:103440000895882321F00E9463040E947104089566
:10345000882339F09091A802892B8093A8020E94BA
:1034600071040895882321F00E946A040E94710467
:103470000895882339F090910A02892B80930A02DB
:103480000E9471040895882349F1682F8CEF860FFC
:10349000813A28F484E891E00E94E81B0CC080E2A5
:1034A000860F883058F4677081E001C0880F6A95F4
:1034B000EAF70E946A040E94710408958BE5860F62
:1034C000833028F480E090E00E94261C0895685A1A
:1034D000673120F480E090E00E94101C0895CF93A3
:1034E000882309F49AC0C82F8CEF8C0F813A08F01A
:1034F0005EC080910A018823E1F08091B60287FFC7
:1035000018C0EC2FE695E695E695F0E0EC57FE4FF7
:103510008281282F30E04C2F477081E090E002C07C
:10352000880F991F4A95E2F782239323892B59F438
:1035300011C0E6E8F1E08191C81729F081E0EC388C
:10354000F807C9F707C06C2F84E891E00E94E81BD8
:103550000E94710480910A018823C9F08091B6020B
:1035600087FF15C0AC2FA695A695A695B0E0AC57E1
:10357000BE4FC77081E090E001C0880FCA95EAF79E
:1035800012969C911297892B12968C9320C0A6E8D4
:10359000B1E0EFEF80E09D91C917C9F0EF3F19F45A
:1035A000911101C0E82F8F5F8630A9F72DC080E20E
:1035B0008C0F883078F4C77081E090E001C0880FEC
:1035C000CA95EAF790910A02892B80930A020E9419
:1035D000710423C0EBE5EC0FE33040F4F0E0EB5C6A
:1035E000FE4F808190E00E94261C17C0C85AC73148
:1035F000A0F4EC2FF0E0EE0FFF1FE85CFE4F80819F
:1036000091810E94101C09C0EF3F09F30E2E000C9F
:10361000FF0BEC57FE4FC283DACFCF910895089588
:1036200080910C020895CF93DF9320910A01222309
:1036300039F02091B60227FF03C060E224E002C007
:1036400068E021E02093E9002FEF3091E80021505D
:1036500035FD06C035ED3A95F1F700002111F5CFA3
:103660002091E80025FF1DC0EC0180910A01811125
:1036700005C040E050E068E070E003C070E040E06A
:1036800050E0CE010E94D7118091E8008E778093A0
:10369000E80080E2FE01ADE0B2E001900D928A9573
:1036A000E1F7DF91CF9108958093B8027093BA0249
:1036B0006093B90280913B028430F9F48093E90071
:1036C0008FEF9091E800815095FD06C095ED9A9599
:1036D000F1F700008111F5CF8091E80085FF0DC062
:1036E00040E050E063E070E088EB92E00E94D71188
:1036F0008091E8008E778093E800089578941F9277
:103700000F920FB60F9211248F939F93AF93BF9395
:103710008091B2029091B302A091B402B091B5022F
:103720000196A11DB11D8093B2029093B302A093A4
:10373000B402B093B502BF91AF919F918F910F905A
:103740000FBE0F901F9018959C014FB7F894809171
:10375000B2029091B302A091B402B091B5024FBFF2
:10376000821B930B08952FB7F8948091B202909129
:10377000B302A091B402B091B5022FBF08951F9279
:103780000F920FB60F9211248F939F93AF93BF9315
:103790008091B102811113C08091B2029091B30265
:1037A000A091B402B091B5024196A11DB11D8093C4
:1037B000B2029093B302A093B402B093B502BF914A
:1037C000AF919F918F910F900FBE0F901F90189502
:1037D00020910A012223C9F02091B60227FF15C0CB
:1037E000262F2695269526952E31C8F4FC01E20F4A
:1037F000F11D677081E090E001C0880F6A95EAF7DB
:1038000080959281892382830895FC010696228106
:10381000621301C012823196E817F907C1F70895C3
:103820002091AF023091B0022817390771F09093C0
:10383000B0028093AF02E091AD02F091AE023097FA
:1038400021F00084F185E02D099508952091AB02C7
:103850003091AC022817390771F09093AC02809335
:10386000AB02E091AD02F091AE02309721F00680FC
:10387000F781E02D09950895E091AD02F091AE0237
:10388000309729F00190F081E02D0995089580E0AE
:103890000895CF93DF93EC01EA85FB85309719F00B
:1038A0006C857D8509958B810E9463048C810E94C3
:1038B0006A040E94710486E0FE0111928A95E9F77C
:1038C000DF91CF910895CF93DF93EC018D8181FD3E
:1038D00018C082608D839091A8028B81892B809380
:1038E000A80290910A028C81892B80930A020E947F
:1038F0007104E885F985309721F06C857D85CE01CE
:1039000009951092AA021092A9028D8180FD03C030
:10391000CE010E94491CDF91CF910895EF92FF9252
:103920000F93CF93DF93C42FD22FFC018281882382
:10393000B1F04093A7020E94B31B9093A60280931C
:10394000A50280E28C0F883008F064C0C77081E067
:1039500001C0880FCA95EAF70E94391A5BC08091AE
:10396000A70248134BC08091A5029091A6020E9425
:10397000A41B8639910508F041C0CD17C9F080E23B
:103980008C0F883040F4C77081E001C0880FCA9561
:10399000EAF70E94321A80E28D0F883048F481E005
:1039A0009D2F977001C0880F9A95EAF70E94391AE7
:1039B000093319F0E12CF12C03C080E5E82EF12C3D
:1039C000802F0E946F1AE114F10451F08FE99FE0FB
:1039D0000197F1F700C0000091E0E91AF108F3CF78
:1039E000802F0E94431A80E28D0F883098F4D770A0
:1039F00081E001C0880FDA95EAF70AC080E28C0FF7
:103A0000883040F4C77081E001C0880FCA95EAF79A
:103A10000E94321ADF91CF910F91FF90EF9008959D
:103A2000CF93DF930E94971E66E070E00E94621FB2
:103A3000D82F0E94971E6EE070E00E94621FC82F70
:103A40006D2F782F80E00E9447020497C59718F4E5
:103A50008D2F9C2F02C00E94101DDF91CF910895E1
:103A60001092B9008CE08093B8000895A0E0B0E017
:103A7000ECE3FDE10C941B1EB82EEB010E94B31B7E
:103A80006C01C431D10558F0CF3F8FEFD80759F002
:103A9000CE0164E170E00E94001E7B0107C0EE24AD
:103AA000E394F12C03C025E0E22EF12C84E8A82E4B
:103AB00094EA992E1092BC009092BC000E94B31B15
:103AC0008C018091BC0087FD07C0C8010E94A41B27
:103AD000E816F906B0F729C08091B900887F8830D0
:103AE00041F08091B900887F803119F00FEF1FEF0E
:103AF0001EC0B092BB00A092BC000E94B31B8C0100
:103B00008091BC0087FD07C0C8010E94A41BE81675
:103B1000F906B0F70AC08091B900887F883111F0AA
:103B2000803421F700E010E00EC00EEF1FEFCF3F12
:103B30008FEFD80709F4BECFC6010E94A41BC81797
:103B4000D90708F0B7CFC801CDB7DEB7EBE00C94CA
:103B5000371E0F931F93CF93DF93EB018093BB002E
:103B600084E88093BC000E94B31B8C018091BC0050
:103B700087FD0DC0CF3F8FEFD807C1F3C8010E946A
:103B8000A41BC817D90790F78EEF9FEF0CC02091A8
:103B9000B900287F81E090E0283211F480E090E0C5
:103BA000919581959109DF91CF911F910F91089582
:103BB0000F931F93CF93DF93EC0184E88093BC00B5
:103BC0000E94B31B8C018091BC0087FD0DC0CF3FCC
:103BD0008FEFD807C1F3C8010E94A41BC817D907EB
:103BE00090F78EEF9FEF03C08091BB0090E0DF91D4
:103BF000CF911F910F91089584E98093BC0008959F
:103C0000AA1BBB1B51E107C0AA1FBB1FA617B70702
:103C100010F0A61BB70B881F991F5A95A9F780951E
:103C20009095BC01CD0108952F923F924F925F92E3
:103C30006F927F928F929F92AF92BF92CF92DF92BC
:103C4000EF92FF920F931F93CF93DF93CDB7DEB721
:103C5000CA1BDB0B0FB6F894DEBF0FBECDBF0994B5
:103C60002A88398848885F846E847D848C849B840C
:103C7000AA84B984C884DF80EE80FD800C811B811A
:103C8000AA81B981CE0FD11D0FB6F894DEBF0FBE49
:103C9000CDBFED0108958F929F92AF92BF92CF92C8
:103CA000DF92EF92FF92CF93DF93EC0168817981ED
:103CB0008A819B81611571058105910521F464E27A
:103CC00079ED8BE597E02DE133EF41E050E00E9484
:103CD000FF1E49015A019B01AC01A7EAB1E40E9411
:103CE0001E1F6B017C01ACEEB4EFA50194010E9494
:103CF0002C1FDC01CB018C0D9D1DAE1DBF1DB7FF20
:103D000003C00197A109B04888839983AA83BB8324
:103D10009F77DF91CF91FF90EF90DF90CF90BF9092
:103D2000AF909F908F9008950E944B1E089580E061
:103D300091E00E944B1E0895A0E0B0E08093000146
:103D400090930101A0930201B09303010895DC0157
:103D5000CB01FC01F999FECF06C0F2BDE1BDF89A96
:103D6000319600B40D9241505040B8F70895F9993A
:103D7000FECF92BD81BDF89A992780B50895A6E13E
:103D8000B0E044E050E00C94A91EA8E1B0E042E0AD
:103D900050E00C94A91EDC01A40FB51F4150504007
:103DA00048F0CB01840F951F2E910E94DC1E4150DC
:103DB0005040D0F70895262FF999FECF92BD81BDCE
:103DC000F89A019700B4021639F01FBA20BD0FB659
:103DD000F894FA9AF99A0FBE08950396272F0E9435
:103DE000DC1E0E94DB1E252F0E94DC1E242F0C945B
:103DF000DC1E0196272F0E94DC1E0C94DB1E052E74
:103E000097FB1EF400940E94161F57FD07D00E94D6
:103E1000311F07FC03D04EF40C94161F50954095AB
:103E2000309521953F4F4F4F5F4F08959095809566
:103E3000709561957F4F8F4F9F4F08950E94531F3C
:103E4000A59F900DB49F900DA49F800D911D1124EE
:103E50000895B7FF0C941E1F0E941E1F821B930B18
:103E60000895A1E21A2EAA1BBB1BFD010DC0AA1FBB
:103E7000BB1FEE1FFF1FA217B307E407F50720F0D3
:103E8000A21BB30BE40BF50B661F771F881F991F4E
:103E90001A9469F760957095809590959B01AC0197
:103EA000BD01CF010895A29FB001B39FC001A39FA0
:103EB000700D811D1124911DB29F700D811D112463
:103EC000911D089597FB072E16F4009407D077FDF7
:103ED00009D00E94001E07FC05D03EF49095819504
:103EE0009F4F0895709561957F4F0895EE0FFF1FC6
:103EF0000590F491E02D09940F931F93CF93DF93D6
:103F00008230910510F482E090E0E091BD02F091E2
:103F1000BE0220E030E0A0E0B0E0309719F140812F
:103F200051810281138148175907C8F084179507FA
:103F300069F4109731F012960C93129713961C9314
:103F400027C00093BD021093BE0222C02115310587
:103F500019F04217530718F49A01BD01EF01DF0170
:103F6000F801DBCF21153105F9F0281B390B24307E
:103F7000310580F48A819B816115710521F0FB0177
:103F80009383828304C09093BE028093BD02FE019E
:103F9000329644C0FE01E20FF31F819391932250A9
:103FA0003109398328833AC02091BB023091BC0289
:103FB000232B41F420910601309107013093BC027C
:103FC0002093BB0220910401309105012115310598
:103FD00041F42DB73EB74091080150910901241BCF
:103FE000350BE091BB02F091BC02E217F307A0F49D
:103FF0002E1B3F0B2817390778F0AC014E5F5F4F3F
:104000002417350748F04E0F5F1F5093BC024093B2
:10401000BB028193919302C0E0E0F0E0CF01DF9119
:10402000CF911F910F910895CF93DF93009709F4DB
:1040300081C0FC01329713821282A091BD02B0911F
:10404000BE02109781F420813181820F931F20914D
:10405000BB023091BC022817390751F5F093BC021E
:10406000E093BB0267C0ED0120E030E0CE17DF0730
:1040700040F44A815B819E0141155105F1F0EA014E
:10408000F5CFD383C28340815181840F951FC81718
:10409000D90759F488819981840F951F02969183DD
:1040A00080838A819B81938382832115310529F442
:1040B000F093BE02E093BD023DC0E901FB83EA83B9
:1040C00049915991C40FD51FEC17FD0761F4808108
:1040D0009181840F951F0296E901998388838281DB
:1040E00093819B838A83E0E0F0E012968D919C910E
:1040F0001397009719F0FD01DC01F7CF8D919C918A
:1041000011979D012E5F3F4F820F931F2091BB029D
:104110003091BC022817390769F4309729F41092BE
:10412000BE021092BD0202C013821282B093BC0282
:10413000A093BB02DF91CF910895FB01DC0104C085
:104140008D910190801921F441505040C8F7881B8F
:08415000990B0895F894FFCFCC
:10415800010000000000BF02200001101B131B0F0C
:104168001B3D0D380D370D20000000000000001722
:10417800134A13A7120000000000000000FB1233CE
:10418800138E120000818283E200E900EA00B50084
:10419800B600B700CD008301CC008A0192019401DA
:1041A8002102230224022502260227022A02B30042
:1041B800B4006F00700040226DD302B102440225A2
:1041C800033E035E03716D457A5A2F3636724242BA
:0241D8000000E5
:00000001FF
