:100000000C9420020C943D020C943D020C943D0291
:100010000C943D020C943D020C943D020C943D0264
:100020000C943D020C943D020C9475140C94B11385
:100030000C94D1150C943D020C943D020C943D029D
:100040000C943D020C943D020C943D020C943D0234
:100050000C943D020C949F150C943D020C943D02AF
:100060000C943D020C943D020C943D020C943D0214
:100070000C943D020C943D020C943D020C943D0204
:100080000C943D020C943D020C943D020C943D02F4
:100090000C943D020C943D020C943D020C943D02E4
:1000A0000C943D020C943D020C943D02240624065F
:1000B00062066206AB06B6085D08B608CB06B7074F
:1000C000C907C907B209B509B809BB09BE09C10901
:1000D000C409030E080E120E060E0B0E100E0E0EA5
:1000E000C211E9118913E9118913311254128913CC
:1000F000521365139C1D9C1DAF1DAF1DA51DAF1D8B
:10010000AF1DAF1D9C1D9C1DAA1DAF1DAF1DAA1DBF
:1001100029002B004C41E100350000001E001400B6
:1001200004001D0034002D021F001A0016621B007F
:10013000E1042A00200008000761060050002C009E
:1001400021001500096419004F001E02220017004B
:100150000A000500000033022E00D75C00002F6863
:10016000000038005600D85C0000306800003800FD
:1001700023001C000B0011000000330224001800B3
:100180000D6410005200350025000C000E61360091
:1001900051002800260012000F6237002F002B00AC
:1001A000270013003300380030002D0229003100F1
:1001B0003441E10002530000A800490001000100A1
:1001C000010000003A001E022002220201002D025E
:1001D0003B001F0221022302AA002A003C002F023A
:1001E00026022F00A9002C003D003002270230001B
:1001F0004600000F3E003102350035020000350296
:100200002E00340200003400000035005600340295
:1002100000003400000035003F005200510024026D
:10022000000035024000240021001E003700000FAE
:100230004100250022001F00270028004200260060
:10024000230020002E002B00430025022E02310047
:1002500001002D02440045000100010001000000E2
:1002600029002B0000610062010000003A00140028
:1002700004001D00010001003B001A0016001B00D5
:1002800001002A003C0008000700060001002C00C5
:100290003D00150009001900010001003E00170093
:1002A0000A000500000035002E0054000000310057
:1002B000000035023F00550000000068000001000A
:1002C00040000100010001000000010041000100A8
:1002D00001000100010001004200010001000100D5
:1002E000010028004300010001000100010001009D
:1002F000440001000100010001000100450001006F
:10030000010001000100000005010980A101850331
:100310001A81002A8300160100260300950175103A
:100320008100C0050C0901A10185041A01002A9C65
:1003300002160100269C02950175108100C005017E
:100340000906A1018505050719E029E71500250122
:100350009508750181020507190029EF150025018F
:1003600095F07501810205081901290595057501AA
:100370009102950175039101C005010906A10105CE
:100380000719E029E71500250195087501810295F7
:1003900001750881010507190029FF150026FF00D6
:1003A000950675088100050819012905950575014F
:1003B0009102950175039101C009023B0002010001
:1003C000A0FA090400000103010100092111010044
:1003D000012240000705810308000A090401000109
:1003E00003000000092111010001227100070582AC
:1003F0000320000A1201100100000008EDFE07139F
:10040000010001020301040330000000160345004F
:10041000720067006F0044006F0078002000450004
:100420005A00000016034500720067006F00440088
:100430006F007800200045005A0000000403090402
:1004400011241FBECFEFDAE0DEBFCDBF11E0A0E088
:10045000B1E0E0E6F3E402C005900D92AC3BB107D9
:10046000D9F722E0ACEBB1E001C01D92A83EB20783
:10047000E1F70E94D91B0C94AE210C9400008F92DE
:100480009F92AF92BF92CF92DF92EF92FF920F9323
:100490001F93CF93DF93CDB7DEB728970FB6F894AD
:1004A000DEBF0FBECDBFFC01F0801181838194813E
:1004B000892B09F4A4C61F3F21F40FEFF01609F4AD
:1004C0009EC66F0185E0DE01119601900D928A951E
:1004D000E1F7F601228189819A81222349F00E9465
:1004E0002E17082F682F89819A810E94A71703C0B1
:1004F0000E947A17082F26E0129FF001112434E59C
:10050000039FE00DF11D1124EF0DF11DEE0FFF1FF4
:10051000E05FFE4F059114910E3F8CE5180709F03E
:1005200040C0F60182818823E1F19091AF0281E021
:10053000890F8770987F853020F4892B8093AF02D4
:1005400002C09093AF028091AF028770FFEF8F9F40
:10055000C001112495958795959587959927909336
:1005600089008093880090938B0080938A009093F9
:100570008D0080938C004091AF025091B002609149
:10058000B1027091B2028FE090E00E94452060912C
:1005900098027091990280919A0290919B020E9418
:1005A000A40DF6018281882319F1033EFCE51F07A3
:1005B000C1F050F4013E3CE5130781F0023E8CE5AA
:1005C0001807B1F481E010C0043E9CE5190759F00A
:1005D000053EECE51E0761F484E006C01092AB0214
:1005E00005C082E001C083E08093AB020E94250B2E
:1005F00017FF73C0F6018281882309F4BEC0809181
:10060000D8018093BC011092D8018091AB02813057
:1006100071F048F08230D1F08430F1F486EE0E941F
:10062000561F88E117C082EE0E94451E15C085E660
:1006300099E00E949A1088E10E94451E88E10E947C
:10064000E91D85E599E00E949A1006C082EE0E949D
:10065000451E87E50E94561F8FE39CE90197F1F73D
:1006600000C000007801E894F7F85CE0A52EB12CFA
:10067000C7010A2C02C0969587950A94E2F7282FA5
:100680002F7041F0822F90E02A3010F44D9604C074
:10069000069702C087E290E00E94561F94E0A91AD4
:1006A000B108ECEFAE16EFEFBE0611F78091AB028A
:1006B000813039F040F0823031F0843051F488E2FA
:1006C00006C08CE204C082EE0E94E91D02C00E94B6
:1006D000561F8091BC018093D801003FFCE51F07A5
:1006E000B1F180F4083D3CE51307C9F0093D8CE504
:1006F0001807C9F1073D9CE51907C1F526E241EE4F
:1007000061EE10C0023FECE51E0749F120F1033F06
:100710002CE5120759F527E245EE66EE03C027E205
:1007200045EE65EEC60128960FB6F894DEBF0FBE03
:10073000CDBFDF91CF911F910F91FF90EF90DF9090
:10074000CF90BF90AF909F908F900C94180F26E29F
:1007500041EE60EEE7CF27E245EE64EEE3CF26E21E
:1007600041EE62EEDFCF28E241E0DBCFF60182818D
:10077000882309F419C21092BD010631FCE51F0758
:10078000A9F59091D801F6018281882381F09A7AA7
:1007900081E009F480E08093BE01811102C069E22A
:1007A00001C065E387E092E00E9425160BC08091AE
:1007B000BE01811102C069E201C065E387E092E0F9
:1007C0000E94FA1528960FB6F894DEBF0FBECDBF73
:1007D000DF91CF911F910F91FF90EF90DF90CF901D
:1007E000BF90AF909F908F900C94E81607312CE546
:1007F000120708F08BC101303CE5130771F4F601D4
:100800008281882309F4FBC48091D502982F9095AA
:1008100090FB80F98093D502F2C402308CE5180772
:1008200008F42CC1F6018281882309F4AEC180E06E
:1008300090E00E942D208F3E9E4F11F00E946E1678
:100840000E945D169093C2028093C1020F302CE586
:10085000120709F4CDC008F042C008308CE5180733
:1008600009F4A8C0F0F40430ECE51E0709F490C0C8
:1008700068F402302CE5120709F486C003301C45E9
:1008800009F0D9C08091C1028260D3C006308CE5E6
:10089000180709F487C008F089C08091C1028860F8
:1008A000C8C00B30ECE51E0709F493C068F40930AA
:1008B0002CE5120709F482C00A301C4509F0BBC0C0
:1008C0008091C10288607EC00D308CE5180709F464
:1008D00084C008F085C08091C1028D7FAAC0073F07
:1008E000ECE51E0709F457C050F502312CE512075C
:1008F00009F486C068F400318CE5180709F47CC05F
:1009000001311C4509F097C08091C1028F7B91C0D5
:100910000431ECE51E0709F483C008F475C0053105
:100920001C4509F088C08091C10282FB222720F972
:1009300091E0922790FB82F990FB83F97AC00A3FFD
:100940003CE5130709F450C058F4083F9CE519072B
:1009500029F1093F1C4509F06EC08091C2025CC0BC
:100960000C3FFCE51F0709F454C070F10D3F1C4516
:1009700009F061C08091C202982F909591708E7F8E
:10098000892B90FB81F949C08091C102816051C0DF
:100990008091C10217C08091C20219C08091C20229
:1009A00082603BC08091C102806143C08091C102DE
:1009B00080623FC08091C10280643BC08091C102CF
:1009C000806837C0846035C08091C20282608160D7
:1009D00024C08091C1028E7F2CC08091C10217C0BB
:1009E0008091C102877F25C08091C2028D7F15C092
:1009F0008091C1028F7E1DC08091C1028F7D19C080
:100A00008091C1028F7715C08091C102877F8B7F53
:100A100010C08091C2028D7F8E7F8093C2020BC076
:100A20008091C10287FB222720F991E0922790FB59
:100A300087F98093C1026091C1021091C20284E0E3
:100A400090E00E943320612F81E290E00E943320E9
:100A50001092D80128960FB6F894DEBF0FBECDBF16
:100A6000DF91CF911F910F91FF90EF90DF90CF908A
:100A7000BF90AF909F908F900C94C11D01151C45A5
:100A800009F083C0F6018281882309F4B8C310926B
:100A9000D8010E94C11DFFEF04E31CE0F1500040AB
:100AA0001040E1F700C00000F89481E08093E0007E
:100AB00080E28093D8001092C9008FE19EE40197F4
:100AC000F1F700C000001DBA109268001CBC10BEF7
:100AD0001FBA10927A0010926E0010926F0010925E
:100AE0007100109272001092C9001092BC0014B8EC
:100AF00017B81AB81DB810BA1092BC0015B818B8BB
:100B00001BB81EB811BA0C94003F79C30E3DECE53A
:100B10001E07C9F4F6018281882309F470C3289660
:100B20000FB6F894DEBF0FBECDBFDF91CF911F91FE
:100B30000F91FF90EF90DF90CF90BF90AF909F907C
:100B40008F900C946E160F3DFCE51F07C0F40C3D12
:100B50002CE5120741F4F6018281882309F44FC382
:100B60001092A8024CC30D3D1C4579F4F601828118
:100B7000882309F444C382E08093A80240C3C801DB
:100B8000875F9C45079708F44DCEF601828100816E
:100B900011818823F1F0C8010E942E17F82E682FCA
:100BA000C8010E94A71719C00631FCE51F0709F408
:100BB000E8CD08F00DC301303CE5130709F41FCE62
:100BC00008F030CE01151C4509F45CCFF601008118
:100BD0001181C8010E947A17F82EB8018F2D0E944A
:100BE0002B0B182F382FF601258122952F700281AB
:100BF000011110929E0280919C028770A9F000233F
:100C000099F080E2810F883078F082E02F83388776
:100C10009E830E94081880919C028770EE24E394C2
:100C20002F8138859E818111E12CA92EA2944FE05D
:100C3000A422B12CFCE0AF16B10408F097C2F50174
:100C4000EA5AFF4F0C947B20892F807F9F70F92EEA
:100C5000882319F0F29480EFF8220023B9F0FF20E6
:100C600009F415C280E2810F883010F0311106C0FE
:100C70009091D801F92AF092D80105C090919E0276
:100C8000F92AF0929E020E94E81601C2812F38874D
:100C90000E94E91D3885FF2009F468C2105EF094B7
:100CA000183010F0311106C09091D801F922F0925D
:100CB000D80105C090919E02F922F0929E020E94F6
:100CC000E81654C2492F407F892F8F70403211F0AF
:100CD0008295807F332319F03130E9F025C000235D
:100CE00081F030919F02222351F0213041F4982F5E
:100CF000932B391709F43AC290939F0237C2832B82
:100D000017C0222319F0213009F430C28E830E94CB
:100D1000E2168E811DC0002321F0223008F026C289
:100D200007C0211123C214C0002329F02111AFC133
:100D30000E94DF1D1BC2222359F0193309F0B9C1EB
:100D40000FEF27EE33E0015020403040E1F7AFC114
:100D50000E94D41D0BC2292F26952695237030E0C2
:100D60002115310521F02130310559F0FFC1002353
:100D700019F0812F937002C080E090E00E94030B75
:100D8000FEC1002319F0812F937002C080E090E033
:100D90000E94ED0AF4C1892F837009F070C001111F
:100DA000ECC1812F829586958770880F880F412F1F
:100DB0004F7050E060E070E04A015B01082E04C013
:100DC000880C991CAA1CBB1C0A94D2F714FF12C0F1
:100DD0000FE010E020E030E004C0000F111F221FE0
:100DE000331F8A95D2F7B901A801409550956095B7
:100DF000709503C040E050E0BA01969596959370C7
:100E0000892F90E08230910529F183309105C9F056
:100E10000091A0021091A1022091A2023091A302A0
:100E2000019759F0482959296A297B29CB01BA0130
:100E300060237123822393230AC0802A912AA22A45
:100E4000B32ACB01BA01682979298A299B290E94F2
:100E5000421893C1482959296A297B298091A00207
:100E60009091A102A091A202B091A3028A019B01DC
:100E7000082719272A273B27C901B801E8CF0023F3
:100E800019F0892F817001C08695882309F475C1F6
:100E9000812F829586958770880F880F412F4F701C
:100EA00050E060E070E04A015B01082E04C0880C4D
:100EB000991CAA1CBB1C0A94D2F714FF12C00FE0A5
:100EC00010E020E030E004C0000F111F221F331F8C
:100ED0008A95D2F7B901A801409550956095709513
:100EE00003C040E050E0BA01969596959370892F23
:100EF00090E082309105E9F08330910579F100911D
:100F000098021091990220919A0230919B020197C8
:100F100059F0482959296A297B29CB01BA01602354
:100F200071238223932320C0802A912AA22AB32AE4
:100F300015C0482959296A297B29809198029091E6
:100F40009902A0919A02B0919B028A019B01082705
:100F500019272A273B27C901B80106C0CB01BA01CE
:100F6000682979298A299B290E94D71706C19F7071
:100F7000F92E002339F0892F0E942118812F0E9419
:100F8000DF1DFBC0812F0E94D41D8F2D0E94E3170F
:100F9000F4C0812F323FC9F128F4303F49F0313F8E
:100FA00079F170C0333FC1F1343F09F44DC06AC0DC
:100FB000002311F12111DAC0292F2F7181E090E077
:100FC000A0E0B0E0AC01BD0104C0440F551F661F96
:100FD000771F2A95D2F78091980290919902A0915B
:100FE0009A02B0919B028A019B01082719272A27A0
:100FF0003B27C901B80125C0223008F0B7C0DCCFBB
:10100000002329F0892F8F712EC00023D9F3892F57
:101010008F710E94E317AAC0002381F0292F2F713E
:1010200081E090E0A0E0B0E0BC01CD0104C0660F1B
:10103000771F881F991F2A95D2F703C060E070E0E0
:10104000CB010E94D71792C0002381F0192F1F7186
:10105000812F0E94211828E0129FC0011124836073
:1010600080939C02812F0E94211880C081E02F83F1
:101070000E9408182F81223008F478C082E00E9474
:10108000081874C0002339F0222309F4BBCF812F44
:101090000E94451E6BC0222309F4B9CF893349F45D
:1010A0003FEF87EE93E0315080409040E1F700C081
:1010B0000000812F0E94E91D59C0323FB1F028F491
:1010C000303F49F0313FF9F028C0343FB9F058F0D3
:1010D000353F71F022C0002309F451C090912802DD
:1010E00081E0892708C081E008270093280247C0D3
:1010F000011145C081E08093280241C001113FC029
:10110000109228023CC0002329F0809127028823F6
:1011100029F329C0222311F332C080912702222310
:10112000C1F0882341F09091280281E089278093C3
:10113000280210922702812F002319F00E94451ED9
:101140001EC00E94E91D86E0F60111928A95E9F71A
:1011500016C08823A1F0011112C09091280281E0ED
:101160008927809328021092270209C0F8E0AF1A5D
:10117000B10804E0A016B10410F40E94190BEE208F
:10118000F1F180919C0280FD3AC0F60112828595B2
:10119000859585950E942118C6010E943F02809185
:1011A0009C0285958595859528960FB6F894DEBFA7
:1011B0000FBECDBFDF91CF911F910F91FF90EF90A8
:1011C000DF90CF90BF90AF909F908F900C94E317DB
:1011D0000E3DECE51E0709F49DCC50F40C3D2CE5CA
:1011E000120709F4B8CC0D3D1C4509F4BFCCEECC78
:1011F000C801875F9C45079708F414CBE7CC289675
:101200000FB6F894DEBF0FBECDBFDF91CF911F9117
:101210000F91FF90EF90DF90CF90BF90AF909F9095
:101220008F9008959091C10292FF0DC0282F2871D0
:10123000283019F4877F846006C0282F2471243059
:1012400011F48B7F886093FF0DC0282F28712831FF
:1012500019F4877E846106C0282F2471243111F48B
:101260008B7E88612091C20220FF0DC0382F38711B
:10127000383019F4877F816006C0382F31713130E2
:1012800011F48E7F886021FF0DC0282F287128312E
:1012900019F4877E816106C0282F2171213111F454
:1012A0008E7E886194FD877E0895282F277081E0C7
:1012B00090E001C0880F2A95EAF7809590919E02F0
:1012C000892380939E020C94E816282F277081E0D2
:1012D00090E001C0880F2A95EAF790919E02892B31
:1012E00080939E020C94E816CF93E82F873080F508
:1012F0008091070190910801892B09F047C0CE2FFA
:1013000064E670E080E40E946F1F90930801809370
:101310000701892BD1F464E670E082E10E94C61FC8
:101320009093080180930701892B79F481E090E084
:1013300001C0880FCA95EAF764E670E080950E94C4
:10134000C61F9093080180930701CF910C941B2036
:1013500090E0FC013797E730F105C0F4EE59FF4FFC
:101360000C947B20209A289811C0219A29980EC0AD
:10137000229A2A980BC0239A2B9808C0529A5A98FE
:1013800005C0539A5B9802C03E9A4698CF91089543
:10139000CF93873008F03FC08091070190910801FA
:1013A000892B09F041C064E670E080E40E946F1F61
:1013B0009093080180930701892B11F0C0E027C0AA
:1013C00064E670E083E10E94C61F90930801809359
:1013D0000701892B99F764E670E081E40E946F1F92
:1013E0009093080180930701892B41F784E690E0F0
:1013F0000E94F61F97FF05C0909308018093070194
:10140000DDCFC82FC09510920801109207010E94ED
:101410001B208C2F0AC09FB18FB1807F8695869547
:101420009370892B809501C080E0CF910895EF9251
:10143000FF920F931F93CF93DF93CDB7DEB76797DC
:101440000FB6F894DEBF0FBECDBF4B8B5C8B6D8BA0
:101450007E8B8F8B0E891F8901151105C1F15F3FAE
:1014600011F44F3FA1F1E42EF12CA1E0B0E0042EE5
:1014700001C0AA0F0A94EAF7852F90E0662319F0BD
:101480002091280206C09C0127533E4FF90120817C
:101490002A232223A9F046E0489F9001499F300D5E
:1014A0001124F701E20FF31FEE0FFF1FED5EFE4F59
:1014B00040815181FC01E753FE4F9081A92B06C06A
:1014C000FC01E753FE4FA0958081A823A08386E00E
:1014D000FE013D96DF01982F1D929A95E9F74D8701
:1014E0005E876F87198B088BDE01179601900D922E
:1014F0008A95E1F7CE0107960E94B118811137C095
:1015000086E0FE013796DE01119601900D928A95D4
:10151000E1F7FF81E8856A857B856115710539F101
:10152000EF3F11F4FF3F19F120912F0230E0C90184
:101530000196877099274091600250E084179507C3
:1015400079F1F983EA837D836C8396E0929FD001E1
:10155000939FB00D1124A05DBD4FFE013196019007
:101560000D929A95E1F780932F020E944C1816E095
:101570008091600290912F02891711F1189FC0018C
:101580001124805D9D4F0E94B1188823C9F080917D
:10159000600290E001968770992780936002E8CFFF
:1015A0001092D8010E94C11D10922F021092600269
:1015B000E9E2F2E086E0DF011D928A95E9F7D7CFF4
:1015C00067960FB6F894DEBF0FBECDBFDF91CF9107
:1015D0001F910F91FF90EF9008952091C7013091D6
:1015E000C8018217930771F09093C8018093C701D7
:1015F000E091C302F091C402309721F00084F1859C
:10160000E02D099408952091C5013091C6018217FB
:10161000930771F09093C6018093C501E091C302D6
:10162000F091C402309721F00680F781E02D0994F3
:101630000895E091C302F091C402309721F0019027
:10164000F081E02D099480E008956091AB028CE078
:1016500090E00C943320CF93DF9326E0729FF0014B
:10166000112434E5839FE00DF11D1124E60FF11DD7
:10167000EE0FFF1FE05FFE4FC591D491CE01C2383F
:10168000D10569F1B0F4C133D10509F475C048F44E
:10169000C932D10509F469C0CA32D10509F473C051
:1016A00079C0C533D10509F459C0C933D105B9F0A2
:1016B00071C0C33ED10571F138F4C03ED105B1F01F
:1016C000C23ED10511F166C0C63ED105B9F1C73E93
:1016D000D105C9F1C43ED10509F05CC024C02091F8
:1016E000C10220FD29C221FD27C22BC22091C102C7
:1016F00020FD1CC22091C20220FF23C28091C102A2
:1017000084FDC6C183EE90E01CC22091C10222FF7D
:1017100018C2F4CF8091C10282FD0BC28091C20237
:1017200080FD0AC2EBCF2091C20221FF0AC2809144
:10173000C10284FDADC187EE90E003C22091C102D9
:1017400023FFFFC1F4CF8091C10283FDF8C18091D6
:10175000C20281FFECCF84EE90E0F3C12091C10280
:1017600025FFEFC189E290E0ECC12091C10225FF85
:10177000E8C185E390E0E5C12091C10226FFE1C107
:101780008AE290E0DEC12091C10226FFDAC181E346
:1017900090E0D7C1C11540E5D40708F047C0C11596
:1017A00020E4D20708F034C1C83ED10518F5C03E88
:1017B000D10508F0C6C1C83AD10570F4C53AD105C3
:1017C00008F0B1C0C130D10509F4BBC108F460C153
:1017D000249708F45DC1B5C1CF3BD10508F4AEC074
:1017E000C03CD10508F454C1FE01EE0FFF1FE857BD
:1017F000FE4F03C1C11530E2D30760F4C11541E0CB
:10180000D40708F09EC1C03FD10508F441C1CE0104
:10181000906597C1C11580E3D80708F0F1C0FE01BB
:10182000FF70EE0FFF1FE85FFC4FE7C0C11595E5A5
:10183000D90708F044C0C11524E5D20708F002C159
:10184000C11532E5D30710F5C11541E5D40708F0FD
:10185000E4C08C2F837021E030E002C0220F331FE0
:101860008A95E2F73C68CE0174E0969587957A9563
:10187000E1F78370382BEC2FEF70E695E69540E2A8
:10188000E49FC0011124822B932B5BC12C2F269542
:101890002695AE0143705527C115D34508F0C3C046
:1018A00080E2289F9001112481E090E002C0880F1F
:1018B000991F4A95E2F7822B932B9C6842C1C11570
:1018C0009AE5D907A8F4C11529E5D20708F0C9C0DF
:1018D000C11536E5D30708F4BBC0C11548E5D407E8
:1018E00008F4D6C0FC2FEE27CF01806F906A29C183
:1018F000C1158BE5D80708F4CBC0C1159CE5D90705
:1019000008F4C2C0CE0190568115904208F0C0C0C4
:101910008D2F8F710E941209FE01FF27F0628F71D7
:101920009F01382BAFC0C53AD10509F4B4C0C63AFF
:10193000D10509F0B3C082E890E403C1C83AD105EB
:1019400009F4AFC0C93AD10509F4AEC0CA3AD1050D
:1019500009F4ADC0CB3AD10509F4ACC0CC3AD105FD
:1019600009F4ABC0CB3BD10509F4AAC0CC3BD105EF
:1019700009F4A9C0CD3AD10509F4A8C0C03BD105EE
:1019800009F4A7C0CE3AD10509F4A6C0CF3AD105D3
:1019900009F4A5C0C13BD10509F4A4C0C23BD105DF
:1019A00009F4A3C0C33BD10509F4A2C0C43BD105CF
:1019B00009F4A1C0C53BD10509F4A0C0C63BD105BF
:1019C00009F49FC0C73BD10509F49EC0C83BD105AF
:1019D00009F49DC0C93BD10509F49CC0CD3BD1059C
:1019E00009F49BC0CE3BD10509F49AC0CA3BD1058E
:1019F00009F499C080E094E4A4C085919491A1C0B9
:101A0000CE019927D3FF02C0986C9BC0906C99C0FF
:101A1000FE01FF70CF01906A94C0FC2FEE27CF012A
:101A2000816F906A8EC090E2299F9001112481E01D
:101A300090E002C0880F991F4A95E2F7822B932B02
:101A40009A687FC0FC2FEE27CF01846F906A79C01F
:101A50008C2F0E9412098F7190E0982F8827906236
:101A600070C08C2F8F700E941209FE0194E0F695D1
:101A7000E7959A95E1F7EF70F0E0FE2FEE27F06919
:101A80009F01282BC9015DC0CE019927906659C0DE
:101A900080E090E056C081E890E453C083E890E491
:101AA00050C082EE94E44DC089EE94E44AC08AEEC0
:101AB00094E447C085EB94E444C086EB94E441C0D1
:101AC00083EB94E43EC084EB94E43BC087EB94E466
:101AD00038C08CEC94E435C08DEC94E432C083E8DB
:101AE00095E42FC08AE895E42CC082E995E429C0EA
:101AF00084E995E426C081E296E423C083E296E47B
:101B000020C084E296E41DC085E296E41AC086E215
:101B100096E417C087E296E414C08FE694E411C0FF
:101B200080E794E40EC08AE296E40BC089E390E07B
:101B300008C082EE90E005C080EE90E002C086EE24
:101B400090E0DF91CF910895CF92DF92EF92FF92D4
:101B50000F931F936C01EE24FF24C114D104E10400
:101B6000F10411F0E0E103C06B017C01E0E03327F8
:101B70002F2D1E2D0D2D011511052105310519F0F3
:101B8000E85F6801790197018601F4E036952795B1
:101B900017950795FA95D1F701151105210531051E
:101BA00019F0EC5F680179019701860152E03695E2
:101BB0002795179507955A95D1F701151105210518
:101BC000310519F0EE5F68017901970186013695BC
:101BD000279517950795012B022B032B09F0EF5F33
:101BE00056985E9825982D9826982E9827982F9885
:101BF0000E2F10E0F8013197E730F105A8F4E7590E
:101C0000FF4F0C947B20259A2D9A0EC0259A2D9A71
:101C1000269A2E9A09C0259A2D9A04C0259A2D9AA3
:101C2000269A2E9A279A2F9A1F910F91FF90EF9044
:101C3000DF90CF90089580E290E090930801809328
:101C400007018091C20181110EC00E94691F81E0CD
:101C50008093C2012FEF83ED90E3215080409040AC
:101C6000E1F700C0000064E670E080E40E946F1FAE
:101C70009093080180930701892B09F04EC064E618
:101C800070E080E00E94C61F9093080180930701D6
:101C9000892B09F042C064E670E080E00E94C61F14
:101CA0009093080180930701892BB9F564E670E0F1
:101CB0008FE30E94C61F9093080180930701892B30
:101CC00061F50E941B2064E670E080E40E946F1FB3
:101CD0009093080180930701892BF9F464E670E082
:101CE0008CE00E94C61F9093080180930701892B06
:101CF000A1F464E670E080E00E94C61F90930801A2
:101D000080930701892B49F464E670E08FE30E9419
:101D1000C61F90930801809307010E941B208091A9
:101D200007010895CF93DF9356985E9825982D98D4
:101D300026982E9827982F98C8E8D0E08FEF90E04B
:101D400099838883AAE8B0E011969C938E93ECE87F
:101D5000F0E091838083259A2D9A2FEF80E792E01F
:101D6000215080409040E1F700C00000269A2E9A52
:101D70002FEF80E792E0215080409040E1F700C0D3
:101D80000000279A2F9A2FEF80E792E021508040A1
:101D90009040E1F700C0000025982D982FEF80E7D4
:101DA00092E0215080409040E1F700C0000026986A
:101DB0002E982FEF80E792E0215080409040E1F78D
:101DC00000C0000027982F988091AF0287702FEFF6
:101DD000829FC001112495958795959587959927A0
:101DE0009983888311969C938E93918380835698D0
:101DF0005E9825982D9826982E9827982F98DF91F1
:101E0000CF91089584B1807F84B985B1807F85B9F1
:101E10008AB1837F8AB98BB1837F8BB93E9846980C
:101E2000089580B38C7080BB81B3836F81BB0895AC
:101E30006F927F928F929F92AF92BF92CF92DF92DA
:101E4000EF92FF920F931F93CF93DF931F92CDB723
:101E5000DEB7742E622EFC018281882331F16093FB
:101E6000BD0169830E94C5159093C4018093C3018D
:101E7000698180E2860F883008F080C0677081E059
:101E800001C0880F6A95EAF70F90DF91CF911F91FB
:101E90000F91FF90EF90DF90CF90BF90AF909F9009
:101EA0008F907F906F900C94DF1D9091BD019613E1
:101EB0004AC04091C3015091C4018FB7F89400917A
:101EC000A4021091A5022091A6023091A7028FBF13
:101ED00048015901AA24BB246A01E12CF12C041BFE
:101EE000150B8C149D04AE04BF0410F401501109AD
:101EF000083C110540F510E2170D9715B9F080E286
:101F0000890F883040F4977081E001C0880F9A955E
:101F1000EAF70E94D41D183048F481E0972D97709D
:101F200001C0880F9A95EAF70E94DF1D862D0E9456
:101F3000561F183018F5972D977081E001C0880F53
:101F40009A95EAF70AC080E2860F8830B8F4677085
:101F500081E001C0880F6A95EAF70F90DF91CF9179
:101F60001F910F91FF90EF90DF90CF90BF90AF90B7
:101F70009F908F907F906F900C94D41D0F90DF9165
:101F8000CF911F910F91FF90EF90DF90CF90BF9076
:101F9000AF909F908F907F906F9008959F92AF9297
:101FA000BF92CF92DF92EF92FF920F931F93CF9346
:101FB000DF938091070190910801892B91F0809126
:101FC000C1018F5F8093C10181110BC00E941B0E64
:101FD00090E09093080180930701892B11F40E94EF
:101FE000920E03EB12E02AEBE22E22E0F22E6801C1
:101FF000C0E0912C97E0A92EAC0E8C2F0E947409A2
:102000008A2D0E9474098C2F0E94C809F6019081C4
:10201000981721F08083BB24B39401C0B12C8A2D82
:102020000E94C809F7019081981719F0808381E018
:1020300001C080E0B82A9B280E94020FCF5FFFEF0B
:10204000CF1ADF0A8FEFE81AF80AC73099F60E9414
:10205000C5156AEF70E00E9467209C01682F80918F
:10206000C0018823E9F11092C001E091A902F0912A
:10207000AA02DF011E9690E07BEF8AEFE82EF12C9A
:1020800080818B3FA9F0482F50E0681728F0E901C4
:10209000C41BD50BAE0106C06701C41AD50AA60140
:1020A000420F531F4E31510514F0708301C091E06F
:1020B0003196EA17FB0721F79093C001911002C0F7
:1020C000911110C01092BF01A091A902B091AA0273
:1020D0009091C001E6ECF2E080E03EE03E0F07C0E8
:1020E0009110F0CF8091BF018111ECCF16C0E801B3
:1020F00029918E014081421741F04C914B3F21F4D0
:102100006C93208391E001C081E0119631963E13DB
:10211000EECF9093C0018093BF01892DDF91CF91C5
:102120001F910F91FF90EF90DF90CF90BF90AF90F5
:102130009F900895CF93DF93EC0180EEFE01099507
:1021400081EEFE01DF91CF910994CF92DF92FF9251
:102150000F931F93CF93DF931F92CDB7DEB7F82E67
:102160008B0199830E94F01A998181111CC0CF2C98
:10217000D92E01151105B1F08091E80085FD0AC046
:102180008091E8008E778093E8000E94F01A8823FF
:1021900081F309C0F60181916F018093F100015034
:1021A0001109E7CF80E00F90DF91CF911F910F9140
:1021B000FF90DF90CF9008951F93CF93DF93CDB71B
:1021C000DEB7AA970FB6F894DEBF0FBECDBFEFEF14
:1021D000F1E088E08E0F9091F10091938E13FBCF88
:1021E00080910002833009F460C030F4813071F0D6
:1021F000823009F49CC0B3C08A3009F488C08B30A7
:1022000009F46BC0893009F0AAC020C08091FF0199
:10221000813A09F0A4C08091E800877F8093E800AC
:102220008091030290910402892B21F460E28BEDEE
:1022300091E003C060E080E090E070E00E94761BD7
:102240008091E8008B778093E80089C08091FF013E
:10225000813209F084C080910302909104020297B8
:1022600008F07DC08091E800877F8093E80080912E
:10227000E80082FD05C08091FD018111F8CF6FC09B
:102280002091F3008091F20090E0922B029729F4C4
:102290008091F1008B7F813021F48091F100809357
:1022A000DA018091E8008B7756C08091FF01813A76
:1022B00009F055C08091030290910402892B09F026
:1022C0004EC08091E800877F8093E8008091E8000D
:1022D00080FFFCCF8091060139C08091FF018132DF
:1022E000F1F58091030290910402892BC1F5809150
:1022F000E800877F8093E8000E94221B8091010202
:10230000809306011092D8010E94C11D28C08091BF
:10231000FF01813221F58091E800877F8093E800FA
:102320000E94221B809102028093D90118C08091E3
:10233000FF01813AA1F48091E800877F8093E80053
:102340008091E80080FFFCCF8091D9018093F1005B
:102350008091E8008E778093E8000E94221B809194
:10236000E80083FFD6C18091FF0190910002492FC0
:1023700050E04A30510508F0CCC1FA01E059FF4F56
:102380000C947B20803821F0823809F0C2C108C04B
:102390008091FB019091FC01992389F082600FC02C
:1023A000809103028F70873008F0B3C18093E900F9
:1023B0008091EB0085FB882780F91092E9009091CD
:1023C000E800977F9093E8008093F1001092F1006D
:1023D00074C1282F2D7F09F09CC1882319F0823009
:1023E00061F097C180910102813009F092C1933070
:1023F00009F080E08093FC012EC0809101028111E0
:102400002AC0809103028F702FEF280F263008F02A
:1024100080C18093E9002091EB0020FF1CC0933025
:1024200021F48091EB00806214C09091EB009061E8
:102430009093EB0021E030E0A90102C0440F551F4A
:102440008A95E2F74093EA001092EA008091EB004F
:1024500088608093EB001092E9008091E800877F0C
:102460002FC1811156C1109101021F778091E300A5
:102470008078812B8093E3008091E800877F8093B0
:10248000E8000E94221B8091E80080FFFCCF809131
:10249000E30080688093E300111102C082E001C074
:1024A00083E08093FD0135C18058823008F031C14E
:1024B00080910102909102028C3D53E0950779F5DD
:1024C00083E08A838AE289834FB7F894DE0113960A
:1024D00020E03EE051E2E32FF0E050935700E4911A
:1024E00020FF03C0E295EF703F5FEF708E2F90E00A
:1024F000EA3010F0C79601C0C0968D939D932F5F70
:10250000243149F74FBF8091E800877F8093E8002E
:102510006AE270E0CE0101960E94761BBDC0409138
:10252000030250910402292F332723303105B9F0DB
:102530006CF42130310509F4FBC02230310509F07B
:10254000E8C08BE390E0E9EBF3E054C021323105C1
:1025500009F433C02232310509F43CC0DAC09927AE
:1025600081309105D1F05CF4892B09F0D2C0ECE305
:10257000F4E0E4918E2F90E0ECE3F4E038C0823098
:10258000910599F0039709F0C4C0E6E0F4E0E49106
:102590008E2F90E0E6E0F4E02AC0E4E2F4E0E4917B
:1025A0008E2F90E0E4E2F4E022C0ECE0F4E0E4916D
:1025B0008E2F90E0ECE0F4E01AC04115510509F4CB
:1025C000BCC04130510509F0A4C089E090E0E4EEC0
:1025D000F3E010C04115510509F4B4C04130510574
:1025E00009F097C081E790E0E8E0F3E003C00097CE
:1025F00009F48FC02091E800277F2093E800209104
:102600000502309106022817390708F4C90140E095
:10261000009789F12091FD01222309F43DC0253066
:10262000D9F12091E80023FD37C02091E80022FD78
:102630002FC02091E80020FFEBCF4091F3002091C4
:10264000F20030E0342B009759F02830310540F487
:1026500044914093F100319601972F5F3F4FF3CFA4
:1026600041E02830310509F040E02091E8002E7764
:102670002093E800CDCF4111CDCF0AC08091FD015C
:10268000882351F0853041F08091E80083FD04C03B
:102690008091E80082FFF2CF8091E8008B778093F1
:1026A000E80037C08038A9F58091E800877F8093E3
:1026B000E8008091FE018093F1008091E8008E7720
:1026C0008093E8000E94221B24C0811122C0109137
:1026D00001021230F0F48091E800877F8093E800D7
:1026E0001093FE010E94221B111106C08091E3008D
:1026F00087FD02C081E001C084E08093FD0142E0DB
:1027000061EC81E00E94411B42E261EC82E00E94A8
:10271000411B8091E80083FF1AC08091E800877F09
:102720008093E8008091EB0080628093EB000FC003
:1027300082E190E0E4EFF3E05DCF89E090E0EBEC44
:10274000F3E058CF80E490E0E9E7F3E053CFAA96B6
:102750000FB6F894DEBF0FBECDBFDF91CF911F91B2
:1027600008951F920F920FB60F9211242F933F934B
:102770004F935F936F937F938F939F93AF93BF9389
:10278000CF93DF93EF93FF93C091E900CF708091D7
:10279000EC00D82FD17080FDD0E81092E900809134
:1027A000F000877F8093F00078940E94DC101092F4
:1027B000E9008091F00088608093F000CD2BCF700D
:1027C000C093E900FF91EF91DF91CF91BF91AF915D
:1027D0009F918F917F916F915F914F913F912F9139
:1027E0000F900FBE0F901F901895E8EDF0E08081DC
:1027F0008E7F80831092E2001092DA001092E10046
:10280000A0EEB0E08C9181608C9380818F77808383
:1028100019BCA7EDB0E08C918E7F8C9380818F7E68
:1028200080831092D7010895CF92DF92EF92FF92AA
:102830000F931F93CF93DF93C8EDD0E088818F7EF5
:102840008883E7EDF0E080818160808384E082BF4F
:1028500081E08093D70188818E7F888302EE10E02B
:10286000F80110821092DA0081EEC82ED12CF60108
:10287000108288818F7788838881806888838881A7
:102880008F7D888319BC1092FD011092FE01109279
:10289000FC011092FB0190EEE92EF12CF7018081F2
:1028A0008B7F808388818160888342E060E080E064
:1028B0000E94411BF60180818E7F8083F801808118
:1028C00081608083808188608083F70180818E7F32
:1028D0008083888180618883DF91CF911F910F91E0
:1028E000FF90EF90DF90CF9008951F920F920FB658
:1028F0000F9211242F933F934F935F936F937F9386
:102900008F939F93AF93BF93EF93FF938091E100D9
:1029100082FF09C08091E20082FF05C08091E10042
:102920008B7F8093E1008091DA0080FF2AC0809144
:10293000D80080FF26C08091DA008E7F8093DA0075
:102940008091D90080FF18C080E189BD82E189BDF6
:1029500009B400FEFDCF81E08093FD018091D70195
:1029600081110FC00E94F5130E9414148091E2009F
:1029700084608093E20005C019BC1092FD011092A2
:10298000D7018091E10080FF17C08091E20080FFB5
:1029900013C08091E2008E7F8093E2008091E2007C
:1029A00080618093E2008091D80080628093D8009B
:1029B00019BC85E08093FD018091E10084FF34C063
:1029C0008091E20084FF30C080E189BD82E189BD51
:1029D00009B400FEFDCF8091D8008F7D8093D80090
:1029E0008091E1008F7E8093E1008091E2008F7EF4
:1029F0008093E2008091E20081608093E200809108
:102A0000FE01882311F084E007C08091E30087FD78
:102A100002C081E001C083E08093FD011092D801E3
:102A20000E94C11D0E94190B8091E10083FF27C005
:102A30008091E20083FF23C08091E100877F809333
:102A4000E10082E08093FD011092FE018091E1009F
:102A50008E7F8093E1008091E2008E7F8093E20080
:102A60008091E20080618093E20042E060E080E0DB
:102A70000E94411B8091F00088608093F000FF91DC
:102A8000EF91BF91AF919F918F917F916F915F91E6
:102A90004F913F912F910F900FBE0F901F9018955F
:102AA0008091DA010895CF93DF932091A80221113C
:102AB00003C02091FD0102C0223011F02430E1F565
:102AC00020910601222339F02091C10227FF03C083
:102AD00060E222E002C068E021E02093E9002FEFED
:102AE0003091E800215035FD06C035ED3A95F1F7FB
:102AF00000002111F5CF2091E80025FF1DC0EC0159
:102B000080910601811105C040E050E068E070E06E
:102B100003C070E040E050E0CE010E94A51080911B
:102B2000E8008E778093E80080E2FE01ABEDB1E033
:102B300001900D928A95E1F7DF91CF9108957894F5
:102B40001F920F920FB60F9211248F939F93AF9302
:102B5000BF938091A4029091A502A091A602B0918A
:102B6000A7020196A11DB11D8093A4029093A50216
:102B7000A093A602B093A702BF91AF919F918F91AE
:102B80000F900FBE0F901F9018952FB7F89480915B
:102B9000A4029091A502A091A602B091A7022FBF16
:102BA00008951F920F920FB60F9211248F939F9347
:102BB000AF93BF938091C502811113C08091A4028D
:102BC0009091A502A091A602B091A7024196A11DE5
:102BD000B11D8093A4029093A502A093A602B09386
:102BE000A702BF91AF919F918F910F900FBE0F9051
:102BF0001F90189520910601222321F02091C102F7
:102C000027FD04C0FC013296089619C0262F269590
:102C1000269526952E31C0F4FC01E20FF11D677058
:102C200081E090E001C0880F6A95EAF78095928173
:102C30008923828308953196E817F90729F02081C6
:102C40002613F9CF1082F7CF089520910601222391
:102C500021F02091C10227FD05C0FC0132962FEF23
:102C600030E019C0262F2695269526952E3120F581
:102C7000FC01E20FF11D677081E090E001C0880F58
:102C80006A95EAF79281892B828308952F3F39F064
:102C90003F5F363041F041914613F8CF0DC04111EE
:102CA000F7CF232FF5CF2F3F39F0FC01E20FF11DB5
:102CB00027FDFA95628308950895CF9384E090E00C
:102CC0000E941F20C82F81E290E00E941F202C2F1D
:102CD00030E0A901582BCA01CF9108956FEE7EEF25
:102CE00080E090E00E94512060E082E090E00E944D
:102CF000332060E083E090E00E9433201092A00235
:102D00001092A1021092A2021092A30260E084E04D
:102D100090E00E94332060E081E290E00E94332046
:102D200060E085E090E00E94332060E086E090E083
:102D30000E9433206FEF87E090E00E94332040E054
:102D400050E0BA0188E090E00E94452060E08DE00C
:102D500090E00E94332040E050E0BA0188E190E02A
:102D60000E94452060E087E190E00E94332040E02F
:102D700050E0BA018CE190E00E94452060E080E2E2
:102D800090E00E9433201092AF021092B002109295
:102D9000B1021092B20284E080618093AF02409150
:102DA000AF025091B0026091B1027091B2028FE017
:102DB00090E00E94452040E050E0BA0183E190E0BD
:102DC0000C94452080919F02811110929F020895DA
:102DD00090919E028091D801892B20919D02982F7D
:102DE000922B9093070280919F028823D9F0892B20
:102DF0008093070280910601882331F08091C102FF
:102E000087FF02C08EE101C086E0E9E0F2E090E0D9
:102E1000815028F021912223D9F39F5FF9CF91119E
:102E20000E94E216E091C302F091C4023097A9F02B
:102E300080910601882359F08091C10287FF07C065
:102E4000809107028093080285E080930702028048
:102E5000F381E02D87E092E009940895BF92CF922C
:102E6000DF92EF92FF920F931F93CF93DF938C012A
:102E7000C090A002D090A102E090A202F090A30224
:102E80008091980290919902A0919A02B0919B0230
:102E9000C82AD92AEA2AFB2ACFE1D0E0D701C60105
:102EA0000C2E04C0B695A795979587950A94D2F7EE
:102EB00080FF07C0BC2EB8018C2F0E942B0B0197FE
:102EC00019F4219758F7B12C8B2DDF91CF911F91D9
:102ED0000F91FF90EF90DF90CF90BF900895CF9328
:102EE000DF93EC010E942E17BE010E942B0BDF9195
:102EF000CF910895292F220F920F990F890F682FD4
:102F0000669566956695982F977085E0689FB001E5
:102F1000112440E050E080E0FA01E60FF71FEF597E
:102F2000FD4F208130E0092E02C0369527950A9486
:102F3000E2F721703327042E01C0220F0A94EAF72A
:102F4000822B4F5F5F4F4530510531F70895292F90
:102F5000220F920F990F890FA82FA695A695A695D7
:102F6000877051E001C0550F8A95EAF785E0A89F68
:102F7000D001112420E030E070E0F901EA0FFB1FDE
:102F8000EF59FD4F4081CB01022E02C096958795E7
:102F90000A94E2F7817099278195842785238427F5
:102FA00080832F5F3F4F2530310539F708950E9408
:102FB000A40D609398027093990280939A02909363
:102FC0009B020C94B31D0F931F9341E050E060E00F
:102FD00070E004C0440F551F661F771F8A95D2F713
:102FE00040955095609570958091980290919902C6
:102FF000A0919A02B0919B028A019B010823192398
:103000002A233B23C901B8011F910F910C94D717B4
:1030100020919C028095822380939C02982F977028
:1030200079F430E0482F082E000C550B2417350793
:1030300039F08595859585950E94E31710929C023D
:1030400008950F931F9341E050E060E070E004C0EA
:10305000440F551F661F771F8A95D2F780919802FB
:1030600090919902A0919A02B0919B028A019B01D2
:10307000082B192B2A2B3B2BC901B8011F910F914B
:103080000C94D7176093A0027093A1028093A202C0
:103090009093A3020C94B31D8091600290912F0233
:1030A000891719F08F5F8770FBCF089580912E02EA
:1030B00082958F7009F054C080912B02882309F407
:1030C0004FC080916002A0912F02609129027091FF
:1030D0002A0240912C0250912D02B6E08A1709F481
:1030E0003FC090E041155105C1F17F3F11F46F3FA2
:1030F000A1F1B89FF001B99FF00D1124E05DFD4FE3
:10310000218172132AC02081621327C022812111DC
:1031100024C0238134812417350710F4215031094C
:10312000241B350B283C3105C0F420912E022F7052
:10313000206120932E0226E0289FF001299FF00DA8
:103140001124EB5CFD4F80818F708061808389E268
:1031500092E00E943F020C944C1801968770BECFFB
:103160000895BF92CF92DF92EF92FF920F931F9339
:10317000CF93DF93CDB7DEB761970FB6F894DEBF7C
:103180000FBECDBF8C0185E0F801DE011D960190D8
:103190000D928A95E1F7D8013C9111962C911197E7
:1031A0001296EC9012971396CD90DC901497509154
:1031B000290260912A0280912C0290912D020097A1
:1031C00009F44FC16F3F19F45F3F09F44AC1B09051
:1031D0002B02BB2009F4ECC040912E02C816D90680
:1031E00028F0F601E81BF90BCF0104C080959095FB
:1031F0008C0D9D1DFF24F394883C910548F0F12C23
:10320000407F09F09FC089E292E00E943F0221C105
:10321000842F807F09F044C0621312C0531310C082
:10322000E1100EC04F70406140932E0289E292E09F
:103230000E943F0280912E02D80115968C932EC0D9
:10324000CD2819F12F3F11F43F3FF9F0FE2CE1108A
:103250001CC08091600240912F0256E0841709F44F
:1032600058C090E0589FF001599FF00D1124E05D87
:10327000FD4F6181261306C06081361303C0628151
:10328000611103C001968770E9CFFE2CEE2009F48E
:1032900021C180912E02816080932E02F12C1AC1EF
:1032A00062130AC0531308C0E11006C080912E02B9
:1032B000D80115968C93B0C03D872E878D859E854D
:1032C0000E948C1D8823D1F1EE20C1F120912E02A5
:1032D000822F82958F7090E0029774F0809129027E
:1032E00090912A0298878F831986DB86CA862C875D
:1032F000CE0107960E943F0286E0F801A9E2B2E003
:1033000001900D928A95E1F70E945618FF24F394DC
:10331000E1C03D872E878D859E850E946F17292FDE
:1033200022952F7030E0223031050CF0C7C09F701D
:1033300009F0C1C0805E883008F4CCC0C8010E948A
:103340003F02E4CF621314C0531312C0E11010C047
:1033500080912E02F8018583C8010E943F0286E019
:10336000E9E2F2E0DF011D928A95E9F7FB2CB2C099
:103370003D872E878D859E850E948C1D8823F1F2C6
:10338000EE20E1F220912E02822F82958F7090E044
:1033900002970CF4B1CF8091290290912A029A836E
:1033A00089831B82DD82CC822E83CE010196A2CF3F
:1033B000C816D90638F0C81AD90AB8ECCB16D10409
:1033C00050F007C0809590958C0D9D1D883C91050F
:1033D00010F0F12C3EC0FE2CEE2009F4AFCF6213AA
:1033E00027C0531325C020912E0220FD18C0822F24
:1033F00082958F70482F50E04115510581F0F801FA
:1034000025834F30510541F08F5F982F9295907F23
:10341000822F8F70892B8583C8010E943F0286E02E
:10342000F801A9E2B2E001900D928A95E1F752C04D
:103430003D872E878D859E850E948C1D81115CCFD6
:1034400080912E02816080932E02C8010E943F026B
:1034500041C0E9E2F2E086E0DF011D928A95E9F7DA
:1034600039C0EE2009F46ACF3D872E878D859E8571
:103470000E948C1DF82E882309F460CF86E0F801A5
:10348000A9E2B2E001900D928A95E1F780912902BC
:1034900090912A020E946F1792959F70963041F486
:1034A0008091280291E08927809328029093270237
:1034B0000E9456180FC081113DCF0CC02430310539
:1034C0000CF03CCF9F7009F435CFF8019581907FC7
:1034D00009F030CF8F2D61960FB6F894DEBF0FBE86
:1034E000CDBFDF91CF911F910F91FF90EF90DF90B3
:1034F000CF90BF9008950895CF93DF9300D01F928F
:10350000CDB7DEB79C019091A802911105C08091C2
:10351000FD01843049F504C0923011F0943021F55A
:1035200084E089833B832A8382E08093E9008FEFE4
:103530009091E800815095FD06C095ED9A95F1F7C0
:1035400000008111F5CF8091E80085FF0DC040E0BB
:1035500050E063E070E0CE0101960E94A5108091DA
:10356000E8008E778093E8000F900F900F90DF9126
:10357000CF910895CF93DF9300D01F92CDB7DEB7E0
:103580002091FD01243031F523E0298380589109F1
:103590009B838A8382E08093E9008FEF9091E8001B
:1035A000815095FD06C095ED9A95F1F700008111C7
:1035B000F5CF8091E80085FF0DC040E050E063E06A
:1035C00070E0CE0101960E94A5108091E8008E77F0
:1035D0008093E8000F900F900F90DF91CF910895A6
:1035E0002091E4003091E50095E64091EC00842FB5
:1035F000817040FF22C08091E80080FD1CC0809156
:10360000FD01882391F0853091F08091EB0085FDDC
:1036100010C04091E4005091E5004217530729F390
:103620009A01915011F784E0089582E0089583E0B3
:10363000089581E0089580E008954091E80042FFF8
:10364000DECF08958091FF0187FF11C08091E800CF
:1036500082FD05C08091FD018111F8CF11C08091DC
:10366000E8008B770BC08091FD01882349F08091A1
:10367000E80080FFF8CF8091E8008E778093E80023
:103680000895982F973058F59093E900981739F0DE
:103690007091EC002091ED005091F00003C0242FB8
:1036A000762F50E021FF19C03091EB003E7F309320
:1036B000EB003091ED003D7F3093ED003091EB0059
:1036C00031603093EB007093EC002093ED00509349
:1036D000F0002091EE0027FF07C09F5FD3CF8F70CF
:1036E0008093E90081E0089580E00895209105022B
:1036F000309106022617370748F06115710539F435
:103700002091E8002E772093E80001C0B90140E045
:1037100061157105A9F12091FD01222309F443C02F
:10372000253009F442C02091E80023FD40C02091DB
:10373000E80022FD32C02091E80020FFE9CF40914F
:10374000F3002091F20030E0342BFC01CF01611531
:10375000710559F02830310540F481918093F100D2
:10376000615071092F5F3F4FF1CF41E028303105A3
:1037700009F040E02091E8002E772093E800C8CFC0
:103780004111C9CF0AC08091FD01882361F08530C5
:1037900061F08091E80083FD0AC08091E80082FF1B
:1037A000F2CF80E0089582E0089583E0089581E0FB
:1037B0000895CF93DF93CDB7DEB72A970FB6F8946D
:1037C000DEBF0FBECDBF84B7877F84BF0FB6F8942E
:1037D000A8958091600088618093600010926000DD
:1037E0000FBE80E8809361001092610085B7806809
:1037F00085BF85B7806885BF0E94F5130E941414A9
:103800008091E20084608093E20078948091FD01D1
:103810008823A1F01091E9001F709091EC00892F8E
:10382000817090FD80E8182B1092E9008091E800EB
:1038300083FD0E94DC101F701093E90082E084BDBC
:1038400093E095BD9AEF97BD80936E000E941B0E8A
:1038500090E090930801809307010E94020F0E945C
:10386000110FA3EBB2E0E6ECF2E06EE0F62EFE0EF6
:1038700011921D92FE12FCCF8EE090E00E948120FA
:103880008093A9029093AA02FC010E962BEF21933C
:10389000E817F907E1F780E090E00E942D208F3EC5
:1038A0009E4F11F00E946E168CE090E00E941F2047
:1038B00090E0A0E0B0E08093AB029093AC02A093C4
:1038C000AD02B093AE0289EA8093800089E08093D4
:1038D000810024982C983F988AB18F7C8AB96E9881
:1038E000479A8BB180638BB9769A8FE090E00E9403
:1038F00027206093AF027093B0028093B10290933F
:10390000B20267708FEF689FB001112475956795BB
:1039100075956795772770938900609388007093F9
:103920008B0060938A0070938D0060938C000E94DE
:10393000920E80E090E00E942D208F3E9E4F11F06D
:103940000E946E1682E090E00E941F208093D502B4
:103950000E945D169093C2028093C10283E090E0C2
:103960000E941F20682F70E080E090E00E944218C3
:1039700089E091E09093C4028093C302EE24EA941C
:10398000CC24C394D12C90E1892E22E1522E38E12F
:10399000A32EB12C40E4942E8091FD01853009F0D6
:1039A00043C08091FD01843009F11092C5020FB629
:1039B000F894A895A09260000FBE9092600083B723
:1039C000817F846083BF83B7816083BF789488954B
:1039D00083B78E7F83BF0FB6F894A895809160005F
:1039E000886180936000109260000FBE8091FC019E
:1039F000882391F20E941B0E90E09093080180931F
:103A000007010E94020F0E94110FE6ECF2E01192F2
:103A1000FE12FDCF0E94CE0FE6ECF2E08191811103
:103A200067C0FE12FBCFB8CF0E94CE0FE6EDF2E0EA
:103A3000A6ECB2E000E010E0702F6D9121912627F6
:103A4000B1F180E090E030E0782EA901082E02C0AC
:103A5000559547950A94E2F740FF25C089837A83FC
:103A6000C60102C0880F991F7A94E2F73C01862FA5
:103A700090E08621972121E0892B09F420E02B8317
:103A80000E94C5158160782F9D838C8349815A815E
:103A90006B818D810E94170AF801EA52FD4F8081E7
:103AA0006826608219C001968630910569F60F5F1D
:103AB0001F4F0E30110509F0BFCFEE82EF8218863E
:103AC0000E94C5158160782F9A8789874E815F8112
:103AD00068858A850E94170A1091D4020E94190BEA
:103AE000181709F459CF0E94190B8093D40254CFB0
:103AF00089BC59BC09B400FEFDCF8091D8008F7DF0
:103B00008093D8008091E00082608093E0008091F3
:103B1000E00081FDFCCF40CF0E946F17292F2F704E
:103B200092959F70E92FF0E03297EE30F105B8F4EE
:103B3000E658FF4F0C947B20803F99F018F4883EA4
:103B400070F40FC0843F59F40CC0883E50F0813FA0
:103B500031F407C0822F869586958695089580E07A
:103B6000089581E0089510929E0210929D020E9495
:103B7000E81680E090E00E94030B80E090E00C9457
:103B8000ED0A80910601882331F08091C10287FF00
:103B900002C08EE101C086E0E9E0F2E0DF011D92A3
:103BA0008A95E9F70C94B31D882341F08095909194
:103BB000D80189238093D8010C94E81608958823AE
:103BC00039F09091D801892B8093D8010C94E81694
:103BD0000895882309F458C0682F823869F40E9438
:103BE000190B81FF51C069E387E092E00E9425161E
:103BF0000E94E81669E30EC0833891F40E94190B05
:103C000080FF42C063E587E092E00E9425160E9493
:103C1000E81663E587E092E00E94FA150C94E81636
:103C2000843869F40E94190B82FF2EC067E487E094
:103C300092E00E9425160E94E81667E4EBCF8CEF15
:103C4000860F813A38F380E2860F883070F467700F
:103C500081E090E001C0880F6A95EAF78095909125
:103C6000D80189238093D801D9CF8BE5860F833083
:103C700020F480E090E00C94030B685A673120F444
:103C800080E090E00C94ED0A0895882309F40DC1BA
:103C9000682F8238B1F40E94190B81FD06C169E3D7
:103CA00087E092E00E9425160E94E8162FEF81EE31
:103CB00094E0215080409040E1F700C0000069E3AB
:103CC00017C08338D9F40E94190B80FDEEC063E55C
:103CD00087E092E00E9425160E94E8162FEF81EE01
:103CE00094E0215080409040E1F700C0000063E57F
:103CF00087E092E00E94FA150C94E8168438B1F43B
:103D00000E94190B82FDD1C067E487E092E00E9417
:103D100025160E94E8162FEF81EE94E02150804096
:103D20009040E1F700C0000067E4E2CF8CEF860F1F
:103D3000813A28F487E092E00E942516DDCF80E2E8
:103D4000860F883068F4677081E090E001C0880FCA
:103D50006A95EAF79091D801892B8093D801CCCF4E
:103D60008BE5860F833070F4653A29F0663A31F0BE
:103D700083E890E005C081E890E002C082E890E02E
:103D80000C94030B88E5860F873108F08EC0683AE3
:103D900009F445C0693A09F445C06A3A09F445C0D6
:103DA0006B3A09F445C06C3A09F445C06B3B09F421
:103DB00045C06C3B09F445C06D3A09F445C0603B11
:103DC00009F445C06E3A09F445C06F3A09F445C09C
:103DD000613B09F445C0623B09F445C0633B09F40B
:103DE00045C0643B09F445C0653B09F445C0663BEA
:103DF00009F445C0673B09F445C0683B09F445C078
:103E0000693B09F445C06D3B09F445C06E3B09F4BC
:103E100045C06A3B09F445C080E090E044C082EEB2
:103E200090E041C089EE90E03EC08AEE90E03BC059
:103E300085EB90E038C086EB90E035C083EB90E0F6
:103E400032C084EB90E02FC087EB90E02CC08CEC6C
:103E500090E029C08DEC90E026C083E891E023C07B
:103E60008AE891E020C082E991E01DC084E991E0F8
:103E70001AC081E292E017C083E292E014C084E2AB
:103E800092E011C085E292E00EC086E292E00BC0A3
:103E900087E292E008C08FE690E005C080E790E0FE
:103EA00002C08AE292E00C94ED0A0895CF93C82FE5
:103EB0000E94451EC93349F42FEF87EE93E021504D
:103EC00080409040E1F700C000008C2FCF910C940F
:103ED000E91D1092B9008CE08093B8000895EF922C
:103EE000FF920F931F93CF93DF93182FEB01109244
:103EF000BC0084EA8093BC000E94C5157C019091AF
:103F0000BC0097FD0EC0CF3F8FEFD807C1F30E94D2
:103F1000C5158E199F098C179D0788F38EEF9FEFAB
:103F20002EC09091B900987F983041F09091B900DF
:103F3000987F903119F08FEF9FEF21C01093BB0055
:103F400084E88093BC000E94C5158C019091BC0050
:103F500097FD0CC0CF3F8FEFD807C1F30E94C51566
:103F6000801B910B8C179D0788F3D8CF8091B900E7
:103F7000887F883111F08034F1F680E090E0DF91A5
:103F8000CF911F910F91FF90EF9008950F931F9382
:103F9000CF93DF93EB018093BB0084E88093BC0058
:103FA0000E94C5158C019091BC0097FD0EC0CF3FBB
:103FB0008FEFD807C1F30E94C515801B910B8C179A
:103FC0009D0788F38EEF9FEF0CC02091B900287FEA
:103FD00081E090E0283211F480E090E091958195A5
:103FE0009109DF91CF911F910F9108950F931F9326
:103FF000CF93DF93EC0184E88093BC000E94C51549
:104000008C019091BC0097FD0EC0CF3F8FEFD80779
:10401000C1F30E94C515801B910B8C179D0788F377
:104020008EEF9FEF03C08091BB0090E0DF91CF91B6
:104030001F910F91089584E98093BC000895F99928
:10404000FECF92BD81BDF89A992780B50895A6E16B
:10405000B0E044E050E00C945920A8E1B0E042E028
:1040600050E00C945920262FF999FECF92BD81BDC6
:10407000F89A019700B4021639F01FBA20BD0FB6A6
:10408000F894FA9AF99A0FBE08950396272F0E9482
:1040900034200E943320252F0E943420242F0C949A
:1040A00034200196272F0E9434200C943320DC0109
:1040B000CB01FC01F999FECF06C0F2BDE1BDF89A33
:1040C000319600B40D9241505040B8F70895AA1BA4
:1040D000BB1B51E107C0AA1FBB1FA617B70710F0F3
:1040E000A61BB70B881F991F5A95A9F78095909525
:1040F000BC01CD010895EE0FFF1F0590F491E02D56
:104100000994CF93DF938230910510F482E090E020
:10411000E091E602F091E70220E030E0C0E0D0E07C
:10412000309711F14081518148175907C0F0481765
:10413000590761F482819381209719F09B838A83C8
:104140002BC09093E7028093E60226C0211531052B
:1041500019F04217530718F49A01BE01DF01EF016D
:104160000280F381E02DDCCF2115310509F1281BF8
:10417000390B2430310590F412968D919C91139750
:104180006115710521F0FB019383828304C0909334
:10419000E7028093E602FD01329644C0FD01E20F82
:1041A000F31F81939193225031092D933C933AC090
:1041B0002091E4023091E502232B41F42091020189
:1041C000309103013093E5022093E4022091000135
:1041D000309101012115310541F42DB73EB74091D1
:1041E000040150910501241B350BE091E402F0918C
:1041F000E502E217F307A0F42E1B3F0B281739073F
:1042000078F0AC014E5F5F4F2417350748F04E0F32
:104210005F1F5093E5024093E4028193919302C0A3
:10422000E0E0F0E0CF01DF91CF9108950F931F936D
:10423000CF93DF93009709F48CC0FC01329713826F
:1042400012820091E6021091E7020115110581F436
:1042500020813181820F931F2091E4023091E50289
:104260002817390779F5F093E502E093E40271C06D
:10427000D80140E050E0AE17BF0750F412962D91E0
:104280003C911397AD012115310509F1D901F3CF07
:104290009D01DA013383228360817181860F971F2C
:1042A0008217930769F4EC0128813981260F371FA3
:1042B0002E5F3F4F318320838A819B81938382834A
:1042C000452B29F4F093E702E093E60242C01396EF
:1042D000FC93EE931297ED01499159919E01240FA1
:1042E000351FE217F30771F480819181840F951FC8
:1042F000029611969C938E938281938113969C9340
:104300008E931297E0E0F0E0D80112968D919C9187
:104310001397009719F0F8018C01F6CF8D919C91BD
:1043200098012E5F3F4F820F931F2091E40230913E
:10433000E5022817390769F4309729F41092E7024B
:104340001092E60202C0138212821093E5020093DB
:10435000E402DF91CF911F910F910895F894FFCF60
:104360000000E8022000012000501553157B1ABA06
:104370001A7C1A000D010D020D030D040D050D0030
:104380000C010C020C030C040C050C000B010B02BD
:104390000B030B040B050B000A010A020A030A04B3
:1043A0000A050A00090109020903090409050900AF
:1043B00008010802080308040805080007010702AD
:1043C00007030704070507000601060206030604A3
:1043D000060506000501050205030504050505009F
:1043E000040104020403040404050400030103029D
:1043F0000303030403050300020102020203020493
:10440000020502000101010201030104010501008E
:0C44100000010002000300040005000091
:00000001FF
