:100000000C94F2010C940F020C940F020C940F024A
:100010000C940F020C940F020C940F020C940F021C
:100020000C940F020C940F020C94EC0E0C94A80E7E
:100030000C94BB1B0C940F020C940F020C940F0237
:100040000C940F020C940F020C940F020C940F02EC
:100050000C940F020C94C30F0C940F020C940F021B
:100060000C940F020C940F020C940F020C940F02CC
:100070000C940F020C940F020C940F020C940F02BC
:100080000C940F020C940F020C940F020C940F02AC
:100090000C940F020C940F020C940F020C940F029C
:1000A0000C940F020C940F020C940F02000000003D
:1000B0000000000000000000000000000000000040
:1000C0007E0F00D4FFFFFFC7000000780000000093
:1000D000000000002A2B28000000000000000000A3
:1000E0000000000000000029000000002C1E342049
:1000F000212224342627252E362D3738271E1F206F
:100100002122232425263333362E37381F040506B3
:100110000708090A0B0C0D0E0F10111213141516F7
:100120001718191A1B1C1D2F3130232D35040506F5
:100130000708090A0B0C0D0E0F10111213141516D7
:100140001718191A1B1C1D2F3130354C29002B0094
:100150004C41E100350000001E00140004001D00A9
:1001600034002D021F001A0016621B00E1042A0051
:10017000200008000761060050002C002100150037
:10018000096419004F001E02220017000A00050032
:10019000000033022E00D85C00002F6800003800F9
:1001A0005600D95C000030680000230223001C00C8
:1001B0000B00110000003502240018000D6410002F
:1001C0005200E20125000C000E61360051002800AB
:1001D000260012000F6237002F002B0027001300AB
:1001E0003300380030002D02290031003441E10095
:1001F00035000000A80049000100010001000000D6
:100200003A001E022002220201002D023B001F02C2
:1002100021022302AA002A003C002F0226022F00FE
:10022000A9002C003D003002270230004600000FDC
:100230003E00310235003502000035022E00340246
:100240000000340000003500560034020000340085
:10025000000035003F00520051002402000035022A
:100260004000240021001E003700000F410025003F
:1002700022001F0027002800420026002300200043
:100280002E002B00430025022E02310001002D021A
:100290004400450001000100010000000501098043
:1002A000A101850319012AB700150126B7009501A0
:1002B00075108100C0050C0901A101850419012AEE
:1002C000A002150126A002950175108100C005014C
:1002D0000906A1018505050719E029E71500250193
:1002E0009508750181020507190029EF1500250100
:1002F00095F075018102050819012905950575011B
:100300009102950175039101C005010906A101053E
:100310000719E029E7150025019508750181029567
:1003200001750881010507190029FF150026FF0046
:1003300095067508810005081901290595057501BF
:100340009102950175039101C009023B0002010071
:10035000A0FA0904000001030101000921110100B4
:10036000012240000705810308000A090401000179
:1003700003000000092111010001226D0007058220
:100380000320000A1201000200000008973274499D
:1003900001000102000116034500720067006F00B2
:1003A00044006F007800200045005A000000300330
:1003B0005A005300410020005400650063006800AB
:1003C0006E006F006C006F006700790020004C0029
:1003D000610062007300200049006E0063000000AD
:1003E0000403090411241FBECFEFDAE0DEBFCDBF46
:1003F00011E0A0E0B1E0E6E5F2E402C005900D9264
:10040000AC34B107D9F722E0ACE4B1E001C01D92F1
:10041000A936B207E1F70E940C1A0C94FE200C9446
:100420000000E8EDF0E080818E7F80831092E20092
:100430001092DA001092E100A0EEB0E08C918160A1
:100440008C9380818F77808319BCA7EDB0E08C916D
:100450008E7F8C9380818F7E808310922F020895EF
:100460002091E4003091E50095E6A9012091EC008F
:10047000822F817020FF06C08091E80080FF06C0B7
:1004800080E008952091E80022FD1AC08091540276
:10049000882389F0853089F08091EB0085FD0FC0BD
:1004A0002091E4003091E50042175307F9F2915092
:1004B000E1F684E0089582E0089583E0089581E004
:1004C0000895EF92FF920F931F93CF937C018B01BE
:1004D0000E943002C82F811117C08091E80085FD6D
:1004E0000BC08091E8008E778093E8000E94300274
:1004F000882399F3C82F08C0F70181917F01809369
:10050000F1000150110949F78C2FCF911F910F91E4
:10051000FF90EF9008958091560287FF13C080915D
:10052000E80082FF06C08091E8008B778093E800A6
:1005300004C0809154028111F2CF08958091540239
:100540008823D9F38091E80080FFF8CF8091E800FC
:100550008E77ECCF982F9093E900242F762F50E0E0
:10056000891731F07091EC002091ED005091F0006E
:1005700021FD07C09F5F973071F78093E90081E00C
:1005800008953091EB003E7F3093EB003091ED0009
:100590003D7F3093ED003091EB0031603093EB0004
:1005A0007093EC002093ED005093F0002091EE004A
:1005B00027FDE0CF80E00895CF92DF92EF92FF9287
:1005C0000F931F93CF93DF93C8EDD0E088818F7E88
:1005D0008883E7EDF0E080818160808384E082BFE2
:1005E00081E080932F0288818E7F888302EE10E065
:1005F000F80110821092DA0081EEC82ED12CF6019B
:10060000108288818F778883888180688883888139
:100610008F7D888319BC109254021092550210925B
:1006200053021092520290EEE92EF12CF7018081D4
:100630008B7F808388818160888342E060E080E0F6
:100640000E94AA02F60180818E7F8083F80180815A
:1006500081608083808188608083F70180818E7FC4
:100660008083888180618883DF91CF911F910F9172
:10067000FF90EF90DF90CF900895FC0180915C0295
:1006800090915D0286179707A0F06115710529F416
:100690009091E8009E779093E80090E061157105D5
:1006A00051F4911108C08091E80082FF34C080E0CD
:1006B0000895BC01F2CF809154028823C1F18530A6
:1006C000C1F18091E80083FD30C08091E80082FD97
:1006D000EACF8091E80080FFE1CF8091F300209184
:1006E000F200382F6115710519F02830310558F0E6
:1006F00091E02830310509F090E02091E8002E7754
:100700002093E800CBCF81918093F1006150710973
:100710002F5F3F4FE7CF80915402882341F085300F
:1007200041F08091E80083FFBECF81E0089582E030
:10073000089583E0089508958091310208952091ED
:1007400015012223C9F020910C0227FF15C0E62FC6
:10075000E695E695E695EE31D8F4E80FF92FF11D10
:10076000677021E030E001C0220F6A95EAF720951A
:100770008281282322830895FC01329608962191D4
:10078000621303C0DF0111971C92E817F907B9F74C
:100790000895209115012223C1F020910C0227FF1A
:1007A00014C0E62FE695E695E695EE31F8F4E80FED
:1007B000F92FF11D677021E030E001C0220F6A952A
:1007C000EAF78281822B82830895FC0132962FEF13
:1007D00030E04191641751F02F3F19F4411101C0ED
:1007E000232F3F5F3630A9F72F3F09F40895820F7A
:1007F000911D27FD9A95FC01628308958091EF0178
:1008000081111092EF0108958091EE019091ED0118
:10081000892B9091EC01892B80934C019091EF01F1
:100820009923A1F0892B80934C0180911501882395
:1008300041F180910C0287FF24C08EE1EEE4F1E0EB
:1008400090E0815000F591110E94FE03E0910E02AC
:10085000F0910F023097E1F080911501882359F053
:1008600080910C0287FF07C080914C0180934D015D
:1008700085E080934C010280F381E02D8CE491E0CF
:10088000099486E0DBCF21912223D9F29F5FD9CF53
:100890000895E92FEE0FE90FEE0F8E0F982F977046
:1008A00086958695869525E0829FF0011124EC546B
:1008B000FE4F50E040E080E0219130E0092E02C080
:1008C000369527950A94E2F721703327042E01C04C
:1008D000220F0A94EAF7822B4F5F5F4F4530510594
:1008E00059F70895E92FEE0FE90FEE0F8E0F982FAD
:1008F000977041E001C0440F9A95EAF78695869576
:10090000869595E0899FF0011124EC54FE4F30E06C
:1009100020E070E05191DF011197CB01022E02C05F
:10092000969587950A94E2F78170819585278423AF
:1009300085278C932F5F3F4F2530310559F7089558
:100940008091B30190918201981301C008958F5F47
:100950008770FACF882341F080959091EE0189232A
:100960008093EE010C9404040895882339F090914B
:10097000EE01982B9093EE010C94040408952091BD
:100980007501309176012817390771F0909376013F
:1009900080937501E0910E02F0910F02309721F0E3
:1009A0000084F185E02D0994089520917301309120
:1009B00074012817390771F09093740180937301C3
:1009C000E0910E02F0910F02309721F00680F7813E
:1009D000E02D099408951092ED011092EC010E940F
:1009E000040490E080E00E94D50490E080E00C9444
:1009F000BF046093F0017093F1018093F201909332
:100A0000F3010C94EB04882379F19CEF980F913A51
:100A100038F4682F8CE491E00E949F030C94040446
:100A200090E2980F983088F4877021E030E0A901B7
:100A300002C0440F551F8A95E2F7CA018095909134
:100A4000EE0189238093EE01E9CF9BE5980F933067
:100A500020F490E080E00C94D504885A873120F48B
:100A600090E080E00C94BF040895CF93C82F8823B2
:100A700009F467C08CEF8C0F813AC0F580911501A5
:100A8000882311F180910C0287FF1EC0EC2FE695A0
:100A9000E695E695F0E0E45BFE4F828190E04C2F16
:100AA000477021E030E002C0220F331F4A95E2F781
:100AB00082239323892B91F06C2F8CE491E00E9488
:100AC0009F030E9404040AC0EEE4F1E084E591E093
:100AD0002191C21789F38E179F07D1F76C2F8CE4F1
:100AE00091E00E94C903CF910C94040480E28C0F22
:100AF000883068F4C77021E030E001C0220FCA9549
:100B0000EAF78091EE01822B8093EE01ECCFEBE5CA
:100B1000EC0FE33040F4F0E0E55EFE4F808190E0C2
:100B2000CF910C94D504C85AC73158F4EC2FF0E09B
:100B3000EE0FFF1FE25EFE4F80819181CF910C94FA
:100B4000BF04CF910895E0910E02F0910F0230970B
:100B500021F00190F081E02D099480E008950F9339
:100B60001F93CF93DF938C01EB018091080182FFEB
:100B70002FC08B7F809308018091790120917701AC
:100B800030917801AB01421B530B2091060130914B
:100B900007014217530788F40E9435058091080128
:100BA0008D7F80930801809179010E9403058091D7
:100BB000ED018D7F8093ED0115C09091ED01926064
:100BC0009093ED010E943505809108018260E9CF84
:100BD000802F0E9403058091790190917A01081776
:100BE000190729F30E940404D0937801C093770178
:100BF000DF91CF911F910F91089590910C0292FF78
:100C000006C0282F28712830F9F4877F846093FF6D
:100C100006C0282F28712831F1F4877E8461209145
:100C20000D0220FF06C0382F38713830D9F4877F85
:100C3000816021FF06C0282F28712831D1F4877EDA
:100C4000816194FD877E0895282F24712430F9F660
:100C50008B7F8860DCCF282F2471243101F78B7EB5
:100C60008861DDCF382F3171313019F78E7F886080
:100C7000E0CF282F2171213121F78E7E8861E1CFCD
:100C8000CF93DF93972F70E026E0929F600D711D48
:100C90001124FB0134E5839FE00DF11D1124EE0FBB
:100CA000FF1FE45BFE4FC591D491CE01C238D10540
:100CB000B9F1E8F5C133D10509F499C050F5C9324D
:100CC000D10509F48DC0CA32D10509F497C0C11508
:100CD00042E5D40708F0B6C0C11521E5D20708F0F7
:100CE00024C1C83ED10508F09DC0C03ED10568F5BD
:100CF000C83AD10508F089C0C53AD10508F0EDC061
:100D0000C130D10511F1209709F443C02497E8F4CC
:100D100040C0C533D10509F45CC0C933D105B9F66B
:100D200020910C02237089F080EE90E00EC0C33E4B
:100D3000D10591F168F4C03ED105F9F0C23ED1056C
:100D400031F620910C0222FD20C0DF91CF91089551
:100D5000C63ED10561F1C73ED10581F1C43ED10542
:100D600009F0B5CF20910D0221FFEFCF80910C0249
:100D700084FD0FC087EE90E0E8CF20910C0220FDAB
:100D800001C130910D0230FFE0CF83EE90E024FFEF
:100D9000DCCF90E080E0D9CF20910C0222FDF5C09D
:100DA00030910D0230FDC0CF24FFCFCFF2CF209184
:100DB0000C0223FFCACF24FDECCFDCCF20910C0224
:100DC00023FDE6C030910D0231FFEECF84EE90E0BE
:100DD000BCCF20910C0225FFB8CF89E290E0B5CFBF
:100DE00020910C0225FFB1CF85E390E0AECF20919A
:100DF0000C0226FFAACF8AE290E0A7CF20910C0236
:100E000026FFA3CF81E390E0A0CFCF3BD10508F62A
:100E1000C85AD0E0CC0FDD1FC25EDE4F88819981B9
:100E2000946493CFC11530E5D30708F062C0C115B3
:100E300040E4D40708F059C0DA95C115DF4108F441
:100E400084CFA7CFC11536E5D30718F5C11545E501
:100E5000D40708F080C0C11584E5D80708F076C033
:100E60009C2F96959695AE0143705527C115D34595
:100E700008F460C021E030E002C0220F331F4A9521
:100E8000E2F740E2949FC0011124822B932B9A68D1
:100E90005CCFC1153AE5D30778F4C11549E5D4070D
:100EA00008F063C0C11588E5D80708F472CF9C2FFD
:100EB0008827806F906A49CFCE0190568115904265
:100EC00008F067CF8D2F8F710E94FD0590E0982F5D
:100ED000882788279F718C2B46C0C55AD0E0C55EF5
:100EE000DE4F888190E0906430CFCE019F70906A91
:100EF0002CCF9E01E4E036952795EA95E1F7237023
:100F00008C2F86958695837030E2839FC0011124D3
:100F1000922BC37021E030E002C0220F331FCA952C
:100F2000E2F7822B932B9C6810CF9C2F8827816F30
:100F3000906A0BCF21E030E002C0220F331F4A95A8
:100F4000E2F740E2949FC0011124EBCF9C2F882749
:100F5000846F906AFACE8C2F0E94FD0590E0982F46
:100F6000882788279F719062F0CE8C2F8F700E9407
:100F7000FD0534E0D695C7953A95E1F7CF709C2FE3
:100F80009069E3CE89E390E0E0CE82EE90E0DDCEA2
:100F900086EE90E0DACEBF92CF92DF92EF92FF9290
:100FA0000F931F93CF93DF938C01C0900802D090D2
:100FB0000902E0900A02F0900B028091F0019091FA
:100FC000F101A091F201B091F301C82AD92AEA2ACD
:100FD000FB2ACFE1D0E0BC2ED701C6010C2E04C005
:100FE000B695A795979587950A94D2F780FD0EC080
:100FF000219788F7B12C8B2DDF91CF911F910F9105
:10100000FF90EF90DF90CF90BF900895B8018C2FA4
:101010000E944006019761F3EECFCF93DF93EC017E
:101020000E94CB07BE01DF91CF910C9440060E9435
:101030000D08292F2F7092959F7092509E3078F452
:10104000E92FF0E0E050FF4D0C94AF1C803F19F009
:1010500020F4883E20F481E00895843FE1F380E0AD
:101060000895883EC0F3813FD1F7F5CF822F869552
:1010700086958695089527982F98089526982E98F6
:10108000089525982D98089556985E980895279A62
:101090002F9A0895269A2E9A0895259A2D9A0895A2
:1010A000CF92DF92EF92FF92CF936B017C01C70149
:1010B000AA27BB27C0E10097A105B10519F4D70104
:1010C000CB01C0E0492F5A2F6B2F772741155105CF
:1010D0006105710519F0C85FDB01CA01AC01BD01F2
:1010E000E4E07695679557954795EA95D1F74115D0
:1010F00051056105710519F0CC5FDB01CA01AC0136
:10110000BD0132E076956795579547953A95D1F7A9
:10111000411551056105710519F0CE5FDB01CA016A
:10112000B695A79597958795892B8A2B8B2B09F0D8
:10113000CF5F0E9444080E9441080E943E080E941E
:101140003B08C150C73040F4EC2FF0E0E25FFE4DA9
:101150000C94AF1C0E944D08C701B601CF91FF90BF
:10116000EF90DF90CF9008950E944D080E944A08AA
:10117000F3CF0E944D080E944708EECF0E944D0811
:101180000E944A08F8CF0E945008609308027093AA
:10119000090280930A0290930B020C94EB040F93C4
:1011A0001F9341E050E060E070E004C0440F551F21
:1011B000661F771F8A95D2F7CB01BA0160957095AB
:1011C00080959095009108021091090220910A02E1
:1011D00030910B0260237123822393231F910F917F
:1011E0000C94C3089091EB01809589238093EB01C7
:1011F000282F277071F4282F082E000C330B92171C
:10120000130639F08595859585950E94CF08109233
:10121000EB0108950F931F9341E050E060E070E010
:1012200004C0440F551F661F771F8A95D2F780911F
:10123000080290910902A0910A02B0910B028A0162
:101240009B01082B192B2A2B3B2BC901B8011F919D
:101250000F910C94C30820982898219829982298D7
:101260002A9823982B9852985A9853985B983E98AE
:10127000469808958098889A8198899A84988C9A3B
:1012800085988D9A86988E9A87988F9A0895CF938D
:1012900084E090E00E94EC1CC82F81E290E00E9464
:1012A000EC1C982F8C2FCF910895CF93DF9300D013
:1012B0000F92CDB7DEB790915402943019F589831F
:1012C0007B836A8382E08093E9008FEF9091E8004E
:1012D000815095FD06C095ED9A95F1F700008111BA
:1012E000F5CF8091E80085FF0DC050E040E063E05D
:1012F00070E0CE0101960E9461028091E8008E7735
:101300008093E8000F900F900F90DF91CF91089598
:10131000BC0184E00C945509BC0183E00C94550990
:10132000CF93DF93EC01809115018823B1F1809177
:101330000C0287FF32C060E282E08093E9008FEF09
:101340009091E800815095FD06C095ED9A95F1F7D2
:1013500000008111F5CF8091E80085FF1BC08091CE
:10136000150170E050E040E0811104C050E040E021
:1013700068E070E0CE010E9461028091E8008E7703
:101380008093E80080E2FE01A2E3B2E001900D92BA
:101390008A95E1F7DF91CF91089568E081E0CDCFA4
:1013A000CF93C82F0E943505C93349F42FEF87EE3C
:1013B00093E0215080409040E1F700C000008C2F66
:1013C000CF910C940305EF92FF920F931F93CF934D
:1013D000DF930E9444080E9441080E943E080E9438
:1013E0003B0888E8E82EF12C8FEF90E0F70191831D
:1013F00080830AE810E0F80191838083CCE8D0E094
:10140000998388830E944D08FFEF20E782E0F15026
:1014100020408040E1F700C000000E944A089FEF92
:10142000E0E7F2E09150E040F040E1F700C000005A
:101430000E9447082FEF80E792E0215080409040C3
:10144000E1F700C000000E944108EFEFF0E722E062
:10145000E150F0402040E1F700C000000E943E084B
:101460008FEF90E7E2E081509040E040E1F700C06C
:1014700000000E943B088091F6018770FFEF8F9F6C
:10148000C001112495958795959587959927F70122
:1014900091838083F80191838083998388830E945C
:1014A00044080E9441080E943E08DF91CF911F919D
:1014B0000F91FF90EF900C943B086FEE7EEF90E061
:1014C00080E00E941E1D60E082E090E00E94001D0E
:1014D00060E083E090E00E94001D1092F001109205
:1014E000F1011092F2011092F30160E084E090E0CB
:1014F0000E94001D60E081E290E00E94001D60E01B
:1015000085E090E00E94001D60E086E090E00E948F
:10151000001D6FEF87E090E00E94001D40E050E06A
:10152000BA0188E090E00E94121D60E08DE090E03A
:101530000E94001D40E050E0BA0188E190E00E9466
:10154000121D60E087E190E00E94001D40E050E045
:10155000BA018CE190E00E94121D60E080E290E010
:101560000E94001D40E050E0BA0188E190E00E9436
:10157000121D1092F6011092F7011092F8011092CC
:10158000F90184E080618093F6014091F601509169
:10159000F7016091F8017091F9018FE090E00E94ED
:1015A000121D40E050E0BA0183E190E00C94121D5E
:1015B0001092EE0180911501EEE4F1E0882359F0DC
:1015C00080910C0287FF07C08EE1DF011D928A9592
:1015D000E9F70C94EB0486E0F8CF1F93CF93DF93E9
:1015E000CDB7DEB7AA970FB6F894DEBF0FBECDBF5A
:1015F00086E592E02091F100FC012193CF01F2E019
:101600008E359F07B9F780915702833009F46FC078
:10161000B8F4813009F446C0823009F4B0C080913A
:10162000E80083FF7BC280915602909157029A3066
:1016300008F074C2E92FF0E0EB5EFE4D0C94AF1C95
:101640008A3009F48BC08B3009F46EC0893039F7C9
:1016500080915602813219F780915A0290915B0273
:101660000297E8F68091E800877F8093E8008091F8
:10167000E80082FF37C09091F3008091F20002975A
:1016800029F48091F1008B7F813021F48091F10069
:10169000809331028091E8008B778093E8000E946C
:1016A0008B02BDCF80915602813A09F0B8CF80916C
:1016B000E800877F8093E80080915A0290915B0256
:1016C000892B61F460E282E392E070E00E943D03C6
:1016D0008091E8008B778093E800A1CF60E090E0F4
:1016E00080E0F3CF809154028111C1CF98CF8091D7
:1016F0005602813A09F093CF80915A0290915B0291
:10170000892B09F08CCF8091E800877F8093E800D7
:101710008091E80080FFFCCF809115018093F1005B
:101720008091E8008E77B9CF80915602813209F01E
:1017300076CF80915A0290915B02892B09F06FCF8E
:101740008091E800877F8093E8000E948B0280915F
:101750005802809315010E94D80A61CF80915602E9
:10176000813209F05CCF8091E800877F8093E800A8
:101770000E948B02809159028093300250CF809159
:101780005602813A09F04BCF8091E800877F809321
:10179000E8008091E80080FFFCCF80913002BECF4E
:1017A000803899F0823809F0B9C180915A028F705F
:1017B000873008F0B3C18093E9008091EB0085FB8E
:1017C000882780F91092E90006C08091520290911A
:1017D0005302911182609091E800977F9093E80006
:1017E0008093F1001092F1008091E8008E7792C111
:1017F000882309F480C1823009F090C18091580299
:10180000811183C180915A028F702FEF280F2630EB
:1018100008F084C18093E9002091EB0020FF75C19E
:10182000933031F48091EB0080628093EB006DC1C6
:101830009091EB0090619093EB0021E030E001C0CB
:10184000220F8A95EAF72093EA001092EA0080912D
:10185000EB008860EACF811161C1109158021F77B7
:101860008091E3008078812B8093E3008091E800F1
:10187000877F8093E8000E948B028091E80080FFC0
:10188000FCCF8091E30080688093E30082E0111137
:1018900083E08093540242C18058823008F03EC1F8
:1018A00080915802909159028C3D23E09207A1F556
:1018B00083E08A838AE289834FB7F894DE01139626
:1018C00020E03EE051E2E32FF0E050935700E49136
:1018D00020FF03C0E295EF703F5FEF708E2F90E026
:1018E000EA30C0F0C7968D939D932F5F243159F74E
:1018F0004FBF8091E800877F8093E8006AE270E044
:10190000CE0101960E943D038091E8008B77809381
:10191000E80004C1C096E7CF40915A0250915B02A3
:10192000292F33272330310509F444C078F52130BD
:10193000310509F46FC08BE390E0E9E4F3E0223075
:10194000310509F0EBC02091E800277F2093E800E3
:1019500020915C0230915D028217930708F49C018C
:1019600040E02115310509F064C0411162C0809149
:10197000E80082FDC9CF80915402882329F2853086
:1019800019F28091E80083FFF2CFBECF21323105FA
:10199000A9F12232310509F0C1C04115510509F400
:1019A00043C04130510509F0B9C08DE690E0ECE943
:1019B000F2E0C9CF992781309105C1F0009759F025
:1019C000029709F0ABC0E6E9F3E0E4918E2F90E0D6
:1019D000E6E9F3E007C0E0EEF3E0E4918E2F90E05B
:1019E000E0EEF3E0009709F499C0ADCFEEEAF3E042
:1019F000E4918E2F90E0EEEAF3E0F4CF411551052B
:101A000071F04130510509F089C089E090E0E4E7C8
:101A1000F3E099CF82E190E0E4E8F3E094CF89E04D
:101A200090E0EBE5F3E08FCF80E490E0E9E0F3E0D5
:101A30008ACF80915402882309F466CF853009F457
:101A400063CF8091E80083FD5FCF8091E80082FD45
:101A50008ECF8091E80080FF84CF9091F300809139
:101A6000F2002115310519F08830910550F041E060
:101A7000089709F040E08091E8008E778093E800B5
:101A800070CF44914093F100319621503109019675
:101A9000E8CF803809F042C08091E800877F8093CA
:101AA000E800809155028093F1009ECE811136C0EE
:101AB00010915802123090F58091E800877F809352
:101AC000E800109355020E948B02112311F084E06C
:101AD00005C08091E30087FDFACF81E08093540236
:101AE00042E061EC81E00E94AA0242E261EC82E005
:101AF0000E94AA0213C080915802813079F481E0DB
:101B0000933009F080E0809353021092E9008091B5
:101B1000E800877F8093E8000E948B028091E800B4
:101B200083FF0AC08091E800877F8093E80080915E
:101B3000EB0080628093EB00AA960FB6F894DEBFAC
:101B40000FBECDBFDF91CF911F910895CF93C82FC6
:101B5000873070F58091090190910A01892B89F5F0
:101B600064E670E080E40E94E81B90930A01809391
:101B70000901892BD1F464E670E082E10E94441CE3
:101B800090930A0180930901892B79F481E090E018
:101B900001C0880FCA95EAF764E670E080950E945C
:101BA000441C90930A0180930901CF910C94971CD7
:101BB0008A30B9F040F4883071F0893079F0209A99
:101BC0002898CF9108958C3091F070F08D30B9F74E
:101BD0003E9A4698F6CF219A2998F3CF229A2A98CE
:101BE000F0CF239A2B98EDCF529A5A98EACF539A76
:101BF0005B98E7CF80E290E090930A01809309011F
:101C000080916C0181110EC00E94E21B81E08093E3
:101C10006C012FEF83ED90E3215080409040E1F77D
:101C200000C0000064E670E080E40E94E81B90932E
:101C30000A0180930901892B09F04EC064E670E027
:101C400080E00E94441C90930A0180930901892B33
:101C500009F042C064E670E080E00E94441C90936A
:101C60000A0180930901892BB9F564E670E08FE3DE
:101C70000E94441C90930A0180930901892B61F50D
:101C80000E94971C64E670E080E40E94E81B909339
:101C90000A0180930901892BF9F464E670E08CE075
:101CA0000E94441C90930A0180930901892BA1F49E
:101CB00064E670E080E00E94441C90930A018093E7
:101CC0000901892B49F464E670E08FE30E94441C0B
:101CD00090930A01809309010E94971C8091090149
:101CE0000895CF93873050F58091090190910A01B2
:101CF000C0E0892B71F464E670E081E40E94E81B87
:101D000090930A0180930901892B31F0C0E00E9471
:101D1000971C8C2FCF91089584E690E00E94731C4D
:101D200097FF05C090930A0180930901EFCFC82F58
:101D3000C09510920A0110920901E9CFCFB18FB17D
:101D4000869586958C73C3708C2BC82FC095E1CF78
:101D50001F920F920FB60F9211242F933F934F9320
:101D60005F936F937F938F939F93AF93BF93CF9323
:101D7000DF93EF93FF93D091E900DF708091EC0047
:101D8000C82FC17080FDC0E81092E9008091F0007A
:101D9000877F8093F00078940E94ED0A1092E9000A
:101DA0008091F00088608093F000CD2BCF70C093BD
:101DB000E900FF91EF91DF91CF91BF91AF919F919A
:101DC0008F917F916F915F914F913F912F910F90E4
:101DD0000FBE0F901F9018951F920F920FB60F9283
:101DE00011242F933F934F935F936F937F938F9320
:101DF0009F93AF93BF93EF93FF938091E10082FF96
:101E000009C08091E20082FF05C08091E1008B7FD4
:101E10008093E1008091DA0080FF24C08091D80097
:101E200080FF20C08091DA008E7F8093DA0080915D
:101E3000D90080FF9BC080E189BD82E189BD09B4E2
:101E400000FEFDCF81E08093540280912F0281112A
:101E500009C00E9411020E94DC028091E2008460AD
:101E60008093E2008091E10080FF17C08091E20042
:101E700080FF13C08091E2008E7F8093E20080910A
:101E8000E20080618093E2008091D80080628093BC
:101E9000D80019BC85E0809354028091E10084FF52
:101EA00029C08091E20084FF25C080E189BD82E1E4
:101EB00089BD89B5982F917080FFFBCF8091D800A4
:101EC0008F7D8093D8008091E1008F7E8093E10028
:101ED0008091E2008F7E8093E2008091E200816039
:101EE0008093E20080915502882309F445C084E084
:101EF000809354028091E10083FF27C08091E2002B
:101F000083FF23C08091E100877F8093E10082E01E
:101F100080935402109255028091E1008E7F80934D
:101F2000E1008091E2008E7F8093E2008091E200E8
:101F300080618093E20042E060E080E00E94AA02BB
:101F40008091F00088608093F000FF91EF91BF9145
:101F5000AF919F918F917F916F915F914F913F9141
:101F60002F910F900FBE0F901F90189519BC1092D3
:101F7000540210922F0276CF8091E30087FD93E008
:101F800090935402B7CF78941F921FB61F921124DA
:101F90008F939F93AF93BF9380915E0290915F0266
:101FA000A0916002B09161020196A11DB11D8093C4
:101FB0005E0290935F02A0936002B0936102BF91B2
:101FC000AF919F918F911F901FBE1F9018952FB7B3
:101FD000F89480915E0290915F02A0916002B091AE
:101FE00061022FBF08950F931F93CF93DF93C62FE6
:101FF000D42F022FFC0182818823A1F06093640218
:102000000E94E70F9093630280936202C77081E0A1
:1020100001C0880FCA95EAF7DF91CF911F910F9108
:102020000C94B50480916402681340C02091620250
:10203000309163024FB7F89480915E0290915F02F5
:10204000A0916002B09161024FBF821B930B883C4C
:10205000910560F510E21D0F6D17B9F080E2860F53
:10206000883040F4C77081E001C0880FCA95EAF754
:102070000E94AA04183048F481E09D2F977001C097
:10208000880F9A95EAF70E94B504802F0E94D00924
:10209000183098F4D77081E001C0880FDA95EAF71C
:1020A000DF91CF911F910F910C94AA04C77081E02A
:1020B00001C0880FCA95EAF7F3CFDF91CF911F9146
:1020C0000F9108954F925F926F927F928F929F929D
:1020D000AF92BF92CF92DF92EF92FF920F931F9336
:1020E000CF93DF93CDB7DEB728970FB6F894DEBF56
:1020F0000FBECDBF7C01FC0183819481892B39F017
:102100001081D180812F8D218F3F09F0AFC5289696
:102110000FB6F894DEBF0FBECDBFDF91CF911F91F8
:102120000F91FF90EF90DF90CF90BF90AF909F9076
:102130008F907F906F905F904F9008950E94CB0793
:10214000082F682F89819A810E947204E12FF0E0A4
:1021500026E0D29EE00DF11D112434E5039FE00D31
:10216000F11D1124EE0FFF1FE45BFE4F059114914A
:102170000A328DE51807E9F5F70182818823C9F154
:102180008091F60191E0980F9770887F953008F460
:10219000892B8093F6018091F6018770FFEF8F9F66
:1021A000C0011124959587959595879599279093CA
:1021B00089008093880090938B0080938A0090938D
:1021C0008D0080938C004091F6015091F701609151
:1021D000F8017091F9018FE090E00E94121D60916A
:1021E00008027091090280910A0290910B020E94EC
:1021F00050080E94E70F6C01F70182818823F1F0FB
:102200008091080182FF05C0B60190E080E00E9445
:10221000AF058091ED018D7F8093ED010931FCE5E3
:102220001F0709F4B5C0E8F507313CE5130709F4C9
:102230009FC008318CE5180709F4A4C00B321105C2
:1022400039F008F04BC1C8010497849708F051C1D8
:10225000F7018281882309F465C18091080180FF1C
:1022600031C09091EE0191112DC010937A0100932D
:102270007901D0927801C09277018460809308013F
:1022800082E00E94F2088091EB01877009F43FCF51
:10229000F7018281882309F43ACF82E00E94F20894
:1022A00036CF0B319CE5190709F45EC008F455C020
:1022B000809108018E7F0C31FCE51F0709F0BECF2D
:1022C00080930801F7018281882309F4E3C4109206
:1022D00064020230FCE51F0708F424C206312CE535
:1022E000120738F098012B5F3C452730310508F084
:1022F00019C20E94470990930D0280930C020F307F
:102300003CE5130709F4EFC108F069C108309CE50A
:10231000190709F4D2C108F03EC10430FCE51F07DB
:1023200009F4BFC108F024C102303CE5130709F4E9
:10233000B0C103301C4509F4B0C160910C0210918A
:102340000D0284E090E00E94001D612F81E290E088
:102350000E94001D0E94D80A96CF90910801892FF3
:102360008E7F90FF8160ACCF809108018160A8CF03
:102370008091060190910701059690930701809343
:102380000601A0CF80910601909107010597F5CF36
:10239000809107018F93809106018F9386E191E0F0
:1023A0009F938F931F9288E08F939F928F920E94AA
:1023B0005F1E0FB6F894DEBF0FBECDBF64015AE0BA
:1023C000452EF6012081222309F47CCF213009F02B
:1023D00046C091818281913049F4F2E0CF0ED11C48
:1023E0000E94D0092FEFC21AD20AEBCF923031F4FB
:1023F00022E0C20ED11C0E943505F4CF933031F497
:1024000032E0C30ED11C0E940305ECCF943021F0C2
:102410008FEFC81AD80AE6CF92E0C90ED11C30E07F
:1024200020E0A6014F5F5F4F8053990B8A309105E2
:1024300050F021503109B0F28FE99FE00197F1F798
:1024400000C00000F6CF429EB001439E700D1124E3
:102450009C01260F371FF60181816A01E2CFE22F2E
:10246000F0E0E453FF4F5490822F86958695869531
:1024700090E0FC01E454FF4F64902770712C022E11
:1024800002C0759467940A94E2F7E1E06E22772423
:10249000FC01E455FF4FA490B12C02C0B594A79461
:1024A0002A95E2F7F1E0AF22BB246114710419F020
:1024B00081EE0E943505A114B10419F086EE0E9448
:1024C0003505852D0E94D009AB2819F086EE0E94B3
:1024D0000305672809F486CF81EE95CF0D321105EB
:1024E00040F00933110508F4B3CE0436110509F4A0
:1024F000AFCE043FFCE51F0761F1C8F4093D3CE5A0
:10250000130719F10A3D8CE5180779F1083D9CE5A0
:10251000190709F0D7CE26E241EE61EEC7010E940D
:10252000F30FB1CEB601C8010E94AF05ACCE063F95
:10253000ECE51E07B1F088F0073F2CE5120709F023
:10254000C1CE27E245EE66EEE9CF27E245EE65EE25
:10255000E5CF26E241EE60EEE1CF27E245EE64EE04
:10256000DDCF26E241EE62EED9CF28E241E0EFCFA7
:1025700080910C02806106309CE5190709F447C080
:1025800080910C02886007301C4508F440C080919F
:102590000C0280623CC00B30FCE51F0709F49BC0B5
:1025A00068F409303CE5130709F48BC00A301C4578
:1025B00009F0C3CE80910C028C6029C080910C027E
:1025C0008B7F0D309CE5190711F180910C028D7FF6
:1025D0000E301C45E0F080910C02877F18C00B3F45
:1025E000FCE51F0709F461C060F502313CE5130703
:1025F00009F481C078F400319CE5190709F477C02B
:1026000080910C028F7B01311C4509F096CE80939E
:102610000C0293CE0431FCE51F0709F47AC008F4DC
:1026200070C005311C4509F088CE80910C0282FBF8
:10263000992790F921E0922790FB82F990FB83F98A
:10264000E6CF0E3F8CE5180709F449C070F40C3F43
:10265000ECE51E0771F180910D028E7F0D3F1C4548
:1026600009F06BCE80930D0268CE01152DE512079F
:1026700009F44BC060F101301D4509F05ECE809138
:102680000D02982F909591708E7F892B90FB81F988
:10269000E9CF80910C028160BACF80910C028260F8
:1026A000B6CF80910C028460B2CF80910D02816020
:1026B000D9CF80910D028260D5CF80910C028064C9
:1026C000A6CF0E94D80A80910C028068A0CF80918A
:1026D0000D028360C7CF80910C028E7F98CF8091CE
:1026E0000D028D7FBFCF80910C028F7E90CF8091A5
:1026F0000C028F7D8CCF0E94D80A80910C028F77BC
:1027000086CF80910C02837F82CF80910D028C7FD7
:10271000A9CF0E94D80A90910C02892F97FB87F9C4
:10272000805875CF06319CE5190709F0C0C2809129
:10273000EE018A7A91E009F490E090937B0169E2DE
:10274000811165E38CE491E00E94C9030E940404B6
:102750009ACD0E94D80AEFEFF4E32CE0E150F0406C
:102760002040E1F700C00000F89481E08093E00091
:1027700080E28093D8001092C9008FE19EE4019717
:10278000F1F700C000001DBA109268001CBC10BE1A
:102790001FBA10927A0010926E0010926F00109281
:1027A0007100109272001092C9001092BC0014B80F
:1027B00017B81AB81DB810BA1092BC0015B818B8DE
:1027C0001BB81EB811BA0C94003F5DCD0E945D0A83
:1027D0005ACDC8010E944904D82E80C2212F2F70E3
:1027E000A22E107F19F0A29420EFA222DD20C9F0C2
:1027F000AA2069F080E2800F883010F061100BC0D1
:102800008091EE01A82AA092EE010E940404802F7C
:102810000E94350518C08091ED01A82AA092ED0113
:10282000F4CF802F0E940305AA2069F0A094005ED7
:10283000083010F0611045C08091EE01A822A092EE
:10284000EE010E9404042B2D2850330B2430310557
:1028500010F40E94A305CC20A9F08091EB0180FD2B
:1028600011C0F70112828595859585950E940A0908
:10287000C7010E9462108091EB0185958595859531
:102880000E94CF0885E0F701D40101900D928A954E
:10289000E1F789819A810E9449049A81E981F0E0F7
:1028A00026E0929FE00DF11D112434E5839FE00D99
:1028B000F11D1124EE0FFF1FE45BFE4F85919491F3
:1028C00026CC8091ED01A822A092ED01BACF312F44
:1028D0003F70732E107F103219F0729490EF7922AE
:1028E000662041F081E0681631F1DD2079F1AA20FF
:1028F00041F18DCFDD2091F09091EF01872D892B53
:10290000A11003C00E94B5049ECFE1E0AE12FACF41
:10291000891709F498CF8093EF0195CFA11006C0D5
:102920000E94FE03872D0E94AA048DCFF1E0AF160E
:1029300009F489CFF5CFDD2031F021E02A1508F424
:1029400082CF872DDFCFA1107ECFECCFAA2051F30D
:1029500039E3631284C18FEF97EEE3E0815090403A
:10296000E040E1F700C000007AC1812F869586958E
:10297000837061F0813009F066CFC8019370D11087
:1029800002C090E080E00E94BF045DCFC801937058
:10299000D11002C090E080E00E94D50454CF812F76
:1029A000837009F066C0D1104ECF802F8295869536
:1029B0008770880F880F602F6F70462E512C712CF6
:1029C000612C082E04C0440C551C661C771C0A940C
:1029D000D2F740E050E0BA0104FF0FC04FE050E0F2
:1029E00060E070E004C0440F551F661F771F8A9592
:1029F000D2F74095509560957095812F8695869574
:102A00008370823019F1D8F40091F0011091F10136
:102A10002091F2013091F301813069F04429552968
:102A200066297729CB01BA0160237123822393237E
:102A30000E94F90408CF402A512A622A732ACB0146
:102A4000BA016429752986299729F2CF4429552985
:102A5000662977290091F0011091F1012091F2018E
:102A60003091F301CB01BA016027712782279327A8
:102A7000DFCF8695DD2011F0812F8170882309F446
:102A8000E2CE802F829586958770880F880F602F01
:102A90006F70462E512C712C612C082E04C0440CF2
:102AA000551C661C771C0A94D2F740E050E0BA012E
:102AB00004FF0FC04FE050E060E070E004C0440F3E
:102AC000551F661F771F8A95D2F7409550956095E0
:102AD0007095812F869586958370823019F1D8F490
:102AE000009108021091090220910A0230910B0214
:102AF000813069F04429552966297729CB01BA012B
:102B000060237123822393230E94C3089CCE402A12
:102B1000512A622A732ACB01BA01642975298629B0
:102B20009729F2CF4429552966297729009108026F
:102B30001091090220910A0230910B02CB01BA01D7
:102B40006027712782279327DFCF1F70DD2029F0B0
:102B5000812F0E940A09802FD5CE802F0E94AA04BF
:102B6000812F0E94CF086FCE802FF2EF6F1609F4ED
:102B70004EC0F61578F020EF621619F131EF6316AA
:102B800009F43DC0DD2009F465C0A11040CE812FBD
:102B90008F713AC093EF691609F43EC0E4EF6E12EC
:102BA000F1CFDD2009F44BC01F71812F0E940A096B
:102BB00028E0129FC001112483608093EB01812FD4
:102BC00023C0DD20B9F0A1103ECE1F7161E070E09E
:102BD00080E090E004C0660F771F881F991F1A9548
:102BE000D2F7009108021091090220910A02309157
:102BF0000B02A6CFF1E0FA1508F425CEE6CF812F1F
:102C00008F71DD2009F4ADCF0E940A091CCE812FFF
:102C10008F71DD20C9F3A5CF60E070E0CB01DD202E
:102C200009F472CF1F7161E070E080E090E004C0B1
:102C3000660F771F881F991F1A95D2F765CF81E01D
:102C40000E94F20831E03A1508F0FDCD82E00E94C2
:102C5000F208F9CDAA2039F0893309F47CCE802F0F
:102C60000E940305F0CD812F8F717BCF85E09E01FF
:102C70002F5F3F4F4901D90101900D928A95E1F7ED
:102C8000F701228189819A81211158CA0E94490441
:102C9000082F5CCA06311C4599F480917B0169E2DA
:102CA000811165E38CE491E00E949F034FCD0115F3
:102CB0002CE5120709F44DCD0F3D1C4509F486CDD6
:102CC000F70100811181882309F483CDC8010E9496
:102CD000CB07D82E682FC8010E947204B8018D2D31
:102CE0000E9440068C01682EF701A580A2944FE057
:102CF000A422D280D1101092ED018091EB01877057
:102D000099F0DD2089F0812F807F803421F080E2EE
:102D1000800F883048F082E00E94F2088091EB0139
:102D20008770CC24C3948111C12CB12EB2943FE0A2
:102D3000B322FBE0FB1508F486CDEB2DF0E0E15E5D
:102D4000FE4D0C94AF1C1F93CF93DF9380918101B4
:102D5000807FA9F480917E01882389F08091B3015E
:102D6000D091820160917C0170917D01A0917F01E1
:102D7000B0918001C62FC72316E0D81304C0DF919D
:102D8000CF911F91089590E0109711F0CF3F19F463
:102D900001968770F2CF189F9001199F300D112472
:102DA000F901ED57FE4F41814713F2CF40814613A1
:102DB000EFCF42814111ECCF438154814A1B5B0B21
:102DC000483C510528F7809181018F708061809384
:102DD0008101F901E857FE4F80818F708061808307
:102DE0008CE791E00E946210DF91CF911F910C94CB
:102DF000A004AF92BF92CF92DF92EF92FF920F9317
:102E00001F93CF93DF93CDB7DEB761970FB6F894DA
:102E1000DEBF0FBECDBF8C0185E0F801DE011D963F
:102E200001900D928A95E1F7F80180819181E2800D
:102E30002CE7A22E21E0B22E60917F0170918001DB
:102E40006115710509F43EC130917C0140917D010D
:102E5000232F24232F3F09F435C1C380D480F09061
:102E60007E01F601E61BF70BFF2009F4FBC0209161
:102E70008101522F507FE83CF10508F0BBC0511191
:102E800078C0FE2C491321C038131FC0E1101DC0AB
:102E90002F70206120938101C5010E9462108091F2
:102EA0008101F80185838F2D61960FB6F894DEBFFE
:102EB0000FBECDBFDF91CF911F910F91FF90EF908B
:102EC000DF90CF90BF90AF900895CD2829F0282FA4
:102ED00029232F3F09F014C120E0F22FF170DF2EDB
:102EE00020FF3DC02091B3014091820156E02413A0
:102EF00015C08D879E878D859E850E940D08292F80
:102F000022952F702230F8F0243020F59F70F9F0D0
:102F1000F8019581907FD9F4D12C1FC030E0529FE9
:102F2000F001539FF00D1124ED57FE4F6181961370
:102F300006C06081861303C06281E61210C02F5F55
:102F40003F4F2770D4CF9F7011F0882329F3805E04
:102F5000883010F3C8010E946210FD2CA4CFEE202F
:102F600009F4A1CF80918101816080938101F12CCE
:102F70009ACF491312C0381310C0E1100EC0F801E7
:102F80002583C8010E94621086E0F801ACE7B1E039
:102F900001900D928A95E1F786CF8D879E878D856A
:102FA0009E850E941708882309F1EE20F9F0809190
:102FB0008101803270F020917C0130917D01388751
:102FC0002F831986DB86CA868C87CE0107960E94DE
:102FD000621086E0F801ACE7B1E001900D928A95AD
:102FE000E1F70E94A316FF24F3945DCFC8010E946D
:102FF0006210F9CF51110AC08CE791E00E94621073
:1030000086E0F50111928A95E9F7B1CF49130FC017
:1030100038130DC0E1100BC0F8012583C8010E94D0
:10302000621086E0F50111928A95E9F73CCF8D8711
:103030009E878D859E850E9417088823B9F2EE2011
:10304000A9F280918101803220F220917C0130919F
:103050007D013A8329831B82DD82CC828E83CE015F
:103060000196B5CFE83CF105E0F6FE2CEE2009F420
:10307000BDCF491316C0381314C08091810180FD63
:1030800083CF982F907F09F47FCFF8018583903FFD
:1030900009F477CF982F907F905F8F70892B85836D
:1030A00070CF8D879E878D859E850E941708811120
:1030B00090CF80918101816080938101C8010E943D
:1030C0006210F1CEEE2009F491CF8D879E878D8519
:1030D0009E850E941708F82E882309F487CF86E082
:1030E000F801ACE7B1E001900D928A95E1F780918B
:1030F0007C0190917D010E940D080E94A316D3CE01
:1031000021E02E25EACE1F93CF93DF93CDB7DEB714
:1031100067970FB6F894DEBF0FBECDBF4B8B5C8BAD
:103120006D8B7E8B8F8B1A8A198A85E0FE017396D0
:10313000DE011D9601900D928A95E1F786E0FE0171
:103140003D96DE01179601900D928A95E1F7CE012A
:1031500007960E94F916811112C086E0FE0137968B
:10316000DE01119601900D928A95E1F78A859B8583
:10317000892B29F08F81988589238F3FB1F516E03F
:103180008091B3019091820189131DC067960FB69B
:10319000F894DEBF0FBECDBFDF91CF911F91089590
:1031A00096E0929FD001939FB00D1124AD57BE4F72
:1031B000FE01319601900D929A95E1F7809382017C
:1031C0000E94A004DCCF819FC00111248D579E4F27
:1031D0000E94F9168823D1F28091B30190E0019604
:1031E000877099278093B301CBCF2091820130E083
:1031F000C9010196877099274091B30148171906B4
:1032000079F60E94D80A109282011092B30186E0EA
:10321000ECE7F1E0DF011D928A95E9F7B0CF8F92DC
:103220009F92BF92CF92DF92EF92FF920F931F93E4
:10323000CF93DF938091090190910A01892B91F03E
:1032400080916D018F5F80936D0181110BC00E9491
:10325000FA0D90E090930A0180930901892B11F4F3
:103260000E94E3092AEF822E21E0922E740110E0E1
:1032700000E097E0C92EC00E802F0E94A60D8C2D75
:103280000E94A60D802F0E94710EE70199917E0188
:10329000D12C891729F0FE0131978083DD24D39446
:1032A0008C2D0E94710EF7019681891709F47AC05E
:1032B000868381E08D29182B0E942B090F5F073030
:1032C000C1F60E94E70F60916F01709170019093B9
:1032D000700180936F0120916E0130E0261B370B47
:1032E000820F931F6BEF70E00E949B1CE82E392F1A
:1032F000082F80936E01F0907201FF2009F45EC0E8
:1033000010927201E091F401F091F501AF01425F7A
:103310005F4F20E08BEFB82E6BEF70E0A191AB3FD9
:1033200099F0CA2ED12C8E2D932F0A17E8F18C1903
:103330009D09092E000CAA0BBB0B8D97A105B105A9
:10334000C8F1DF011197BC924E175F0739F7209340
:103350007201111102C0211133C010927101A091AC
:10336000F401B091F50190917201E1E1F2E080E0A9
:103370003191E40129914E01321751F03C913B3FCC
:10338000D9F40C93AF0141505109EA01288391E02F
:103390001196D2E0EF31FD0759F7909372018093B7
:1033A000710112C080E086CFDB01AC19BD098A0F24
:1033B0009B1FBFCF2F2DC8CF81E0EACF1111CDCFFA
:1033C000809171018111C9CF8091080182FF17C0DE
:1033D0000E94E70F2091770130917801AC01421BE8
:1033E000530B20910601309107014217530738F023
:1033F000BC018091790190917A010E94AF05812FE3
:10340000DF91CF911F910F91FF90EF90DF90CF90C0
:10341000BF909F908F900895CDB7DEB72A970FB6D3
:10342000F894DEBF0FBECDBF84B7877F84BF0FB6D1
:10343000F894A89580916000886180936000109254
:1034400060000FBE80E890E00FB6F89480936100B2
:10345000909361000FBE85B7806885BF85B780688F
:1034600085BF0E9411020E94DC028091E20084600C
:103470008093E2007894809154028823A1F0109107
:10348000E9001F709091EC00892F817090FD80E819
:10349000182B1092E9008091E80083FD0E94ED0A4C
:1034A0001F701093E90082E084BD93E095BD9AEF10
:1034B00097BD80936E000E94FA0D90E090930A01F0
:1034C000809309010E942B090E943A09EAEFF1E07A
:1034D000A1E1B2E011921D9222E0E830F207D1F7AB
:1034E0008EE090E00E94341D8093F4019093F501EA
:1034F000FC010E962BEF21938E179F07E1F790E0CA
:1035000080E00E94FA1C8F3E9E4F11F00E945D0ADF
:1035100089EA8093800089E08093810024982C9828
:103520003F988AB18F7C8AB96E98479A8BB1806335
:103530008BB9769A8FE090E00E94F41C6093F601BC
:103540007093F7018093F8019093F90167708FEF02
:10355000689FB001112475956795759567957727D4
:10356000709389006093880070938B0060938A0049
:1035700070938D0060938C000E94E30990E080E0DE
:103580000E94FA1C8F3E9E4F11F00E945D0A82E05D
:1035900090E00E94EC1C809320020E9447099093C7
:1035A0000D0280930C0283E090E00E94EC1C682FD7
:1035B00070E090E080E00E94F90460910802709150
:1035C000090280910A0290910B020E9450088BE040
:1035D00091E090930F0280930E0288E1C82ED12CC7
:1035E00090E4992E2FE1A22E22E0B22E81E192E00A
:1035F0003EE0E32EE80E8091540200E112E18530B6
:1036000009F47DC00E940F19E1E2F2E0A1E1B2E00D
:1036100010E000E0302F8D912191281709F47EC031
:1036200090E0FF24F3942827422F4F2109F471C022
:1036300099833A838F2191E009F490E09B830E9463
:10364000E70F8160782F9D838C8349815A816B813C
:103650008D810E948318F801EF5DFD4F8081F8266F
:10366000F0820E94A30590911F02891721F20E9407
:10367000A30580931F02BFCF80915402843009F1CB
:10368000109210020FB6F894A895C09260000FBE79
:103690009092600083B7817F846083BF83B781602D
:1036A00083BF7894889583B78E7F83BF0FB6F894D5
:1036B000A8958091600088618093600010926000FE
:1036C0000FBE809153028823D1F00E94FA0D90E042
:1036D00090930A01809309010E942B090E943A09E4
:1036E000E1E1F2E01192AE16BF06E1F70E940F1978
:1036F000E1E1F2E08191811128C0EE12FBCF8091CF
:103700005402853009F4B8CF0E94D80A0E94A3055C
:1037100079CF9F5FFF0C963009F086CF0F5F1F4F68
:103720000E30110509F076CF8FEF8E838F831886C8
:103730000E94E70F8160782F9A8789874E815F8189
:1037400068858A850E9483188CCF09BD19BD09B48C
:1037500000FEFDCF8091D8008F7D8093D8008091AE
:10376000E00082608093E0008091E00081FDFCCF6A
:103770000E94D80AC4CF1F921FB61F9211248F93A4
:103780009F93AF93BF9380911002811113C08091DA
:103790005E0290915F02A0916002B0916102419639
:1037A000A11DB11D80935E0290935F02A093600201
:1037B000B0936102BF91AF919F918F911F901FBEF7
:1037C0001F9018951092B9008CE08093B80008956E
:1037D000EF92FF920F931F93CF93DF93182FEB017C
:1037E0001092BC0084EA8093BC000E94E70F7C0129
:1037F0008091BC0087FF27C08091B900887F883006
:1038000029F08091B900887F8031D9F51093BB00F1
:1038100084E88093BC000E94E70F8C018091BC007B
:1038200087FF24C02091B900287F90E080E02831F4
:10383000B1F081E090E0203411F490E080E09195C7
:10384000819591090CC0CF3FDC0791F20E94E70FF0
:103850008E199F098C179D0758F28EEF9FEFDF910D
:10386000CF911F910F91FF90EF900895CF3FDC070C
:10387000A9F20E94E70F801B910B8C179D0770F235
:10388000ECCF8FEF9FEFEBCF0F931F93CF93DF938F
:10389000EB018093BB0084E88093BC000E94E70F9B
:1038A0008C018091BC0087FF11C02091B900287F56
:1038B00081E090E0283211F490E080E091958195CC
:1038C0009109DF91CF911F910F910895CF3FDC07B0
:1038D00041F30E94E70F801B910B8C179D0708F3A3
:1038E0008EEF9FEFEECF0F931F93CF93DF93EC01FB
:1038F00084E88093BC000E94E70F8C018091BC009B
:1039000087FF08C08091BB0090E0DF91CF911F91AD
:103910000F910895CF3FDC0789F30E94E70F801BCA
:10392000910B8C179D0750F38EEF9FEFEECF84E93C
:103930008093BC000895AA1BBB1B51E107C0AA1FBE
:10394000BB1FA617B70710F0A61BB70B881F991F40
:103950005A95A9F780959095BC01CD010895EE0F79
:10396000FF1F0590F491E02D09942F923F924F9202
:103970005F926F927F928F929F92AF92BF92CF92FF
:10398000DF92EF92FF920F931F93CF93DF93CDB708
:10399000DEB7CA1BDB0B0FB6F894DEBF0FBECDBF80
:1039A00009942A88398848885F846E847D848C8451
:1039B0009B84AA84B984C884DF80EE80FD800C815A
:1039C0001B81AA81B981CE0FD11D0FB6F894DEBF3D
:1039D0000FBECDBFED010895F999FECF92BD81BD17
:1039E000F89A992780B50895A6E1B0E044E050E048
:1039F0000C94261DA8E1B0E042E050E00C94261D96
:103A0000262FF999FECF92BD81BDF89A019700B497
:103A1000021639F01FBA20BD0FB6F894FA9AF99A37
:103A20000FBE08950396272F0E94011D0E94001DBE
:103A3000252F0E94011D242F0C94011D0196272F74
:103A40000E94011D0C94001DDC01CB01FC01F999C1
:103A5000FECF06C0F2BDE1BDF89A319600B40D92DA
:103A600041505040B8F708950F931F93CF93DF93C1
:103A70008230910510F482E090E0E0916702F091CD
:103A8000680230E020E0B0E0A0E0309799F4211522
:103A9000310509F447C0281B390B24303105C0F526
:103AA0008A819B816115710571F1FB01938382838A
:103AB000FE0111C0408151810281138148175907CD
:103AC000F8F04817590799F4109761F012960C9383
:103AD000129713961C933296CF01DF91CF911F91CD
:103AE0000F9108950093670210936802F4CF211597
:103AF000310519F04217530718F49A01BD01EF017F
:103B0000DF01F801C2CF9093680280936702D0CFA3
:103B1000FE01E20FF31F8193919322503109398303
:103B20002883DACF2091650230916602232B41F47D
:103B300020910201309103013093660220936502C7
:103B400020910001309101012115310541F42DB77B
:103B50003EB74091040150910501241B350B409163
:103B60006502509166024217530708F0B5CF241B37
:103B7000350B2817390708F4AFCFBC016E5F7F4FB4
:103B80002617370708F4A8CF640F751F70936602D5
:103B900060936502FA01819391939ECFCF93DF9357
:103BA0000097E9F0FC01329713821282C0916702FC
:103BB000D0916802DE0130E020E02097A1F420815E
:103BC0003181820F931F2091650230916602281780
:103BD000390709F067C0F0936602E0936502DF9150
:103BE000CF910895DA01AE17BF0708F040C01296D2
:103BF0004D915C9113979D014115510599F7D9019C
:103C00001396FC93EE9312974D915D91A40FB51FFF
:103C1000EA17FB0779F4808191810296840F951F42
:103C2000D90111969C938E938281938113969C93D4
:103C30008E931297B0E0A0E08A819B810097B9F53E
:103C4000FE0181919191E80FF91F80916502909199
:103C500066028E179F0719F6109761F51092680299
:103C600010926702D0936602C0936502B8CFB38307
:103C7000A28340815181840F951FA817B90771F461
:103C80004E5F5F4F8D919C911197480F591F518343
:103C9000408312968D919C919383828321153105E7
:103CA00009F0ADCFF0936802E093670298CFDE0190
:103CB000EC01C2CF13961C921E921297D3CFAEE0A6
:103CC000B0E0E5E6FEE10C94C31C0D891E898F89E6
:103CD000988D26E02C831A83098397FF02C080E029
:103CE00090E801979E838D83AE01455E5F4F698D9D
:103CF0007A8DCE0101960E948F1E4D815E8157FD07
:103D00000AC02F813885421753070CF49A01020F1D
:103D1000131FF80110822E96E4E00C94DF1CABE038
:103D2000B0E0E5E9FEE10C94B51C7C013B018A01A1
:103D3000FC0117821682838181FFB9C19AE0292E86
:103D4000CE0101965C01F7019381F30193FD85910A
:103D500093FF81913F01882309F446C1853239F4EC
:103D600093FD859193FF81913F01853229F4B7013D
:103D700090E00E947020E7CF912C412C512CFFE164
:103D8000F51538F08B3209F188F4803201F1833275
:103D900021F157FC3AC020ED280F2A3040F556FE9D
:103DA0001FC0929C200D1124922E06C08D3291F0DE
:103DB000803379F7689450F8F30193FD859193FF70
:103DC00081913F018111DBCF20C0689451F8689444
:103DD00052F8F2CF689453F8EFCF689454F8ECCFD0
:103DE000429C200D1124422E689455F8E5CF8E3266
:103DF00029F456FCF9C0689456F8DECF8C3619F4D5
:103E0000689457F8D9CF8836B9F2982F9F7D95548A
:103E10009330C0F08336A1F18337C1F1833509F0C7
:103E20005BC0F801C190D1908F01692D70E056FC04
:103E300002C06FEF7FEFC6010E945A204C016894C8
:103E400057F80AC00C5F1F4F2FE3298388248394FF
:103E5000912C6501E89457F853FC04C048141904E8
:103E600009F018F5342C8114910431F5332009F44C
:103E70006ACFB70180E290E00E9470203A94F6CFBA
:103E8000F801808189830E5F1F4FE0CFF801C19058
:103E9000D1908F01692D70E056FC02C06FEF7FEF6B
:103EA000C6010E9465204C01D5CFB70180E290E0A9
:103EB0000E9470204A94D2CFF60157FC859157FE9C
:103EC00081916F01B70190E00E94702031103A9407
:103ED000F1E08F1A9108C7CF843619F0893609F0BE
:103EE00074C0F80157FE6AC06191719181919191FE
:103EF0008F01252D2F76D22E97FF09C090958095A2
:103F0000709561957F4F8F4F9F4F6894D7F82AE047
:103F100030E0A5010E94A020C82ECA188C2C5D2C70
:103F2000D6FE0CC0E89450F8C91440F4D4FE05C085
:103F3000D2FC03C0FD2DFE7E5F2E892C54FE8FC067
:103F4000FE01EC0DF11D8081803309F081C0252D2B
:103F5000297E522E852D8870382E53FC8FC050FE3E
:103F600089C09C2C841418F44C0C942C981854FE82
:103F70008BC0B70180E390E00E94702052FE09C020
:103F800088E790E051FE02C088E590E0B7010E940A
:103F90007020C91408F484C0CA94D12C9FEFC91AA8
:103FA000D90ACA0CDB1CF60182916F01B70190E0BF
:103FB0000E947020AC14BD04B1F758CF619171918B
:103FC000072E000C880B990B93CFD52CE894D4F8CE
:103FD0002AE030E0853739F1952D997FD92E8F363B
:103FE00001F148F48835A9F0F701868197812B9675
:103FF000E2E10C94D11C803749F08837A9F7D4FE50
:1040000002C06894D2F820E130E00DC06894D4F882
:10401000F6CF54FE03C0E92FE660DE2E20E132E049
:1040200002C028E030E0F801D7FE0DC06191719127
:10403000819191918F01A5010E94A020C82ECA18DC
:10404000E894D7F86BCF6191719190E080E0F2CF66
:1040500052FC02C083947ECF839483947BCF852DC2
:10406000867809F477CFF6CFB70180E290E00E941E
:10407000702083948414C0F3312C79CF342C3818F9
:10408000841408F474CFF8CF852D867809F481CF95
:104090008BE251FE80E257FC8DE2B70190E077CFD2
:1040A000B70180E390E00E9470209A9472CF8FEF66
:1040B0009FEF9DCFFC010590615070400110D8F733
:1040C000809590958E0F9F1F0895FC016150704060
:1040D00001900110D8F7809590958E0F9F1F08953D
:1040E0000F931F93CF93DF93182F092FEB018B8131
:1040F00081FD09C01FEF0FEF812F902FDF91CF912E
:104100001F910F91089582FF14C02E813F818C81F1
:104110009D81281739073CF4E881F981CF01019688
:104120009983888310838E819F8101969F838E83DC
:10413000E3CFE885F985812F0995892BA1F3DACFA3
:10414000FA01AA27283051F1203181F1E8946F93C8
:104150006E7F6E5F7F4F8F4F9F4FAF4FB1E03ED06E
:10416000B4E03CD0670F781F891F9A1FA11D680F0C
:10417000791F8A1F911DA11D6A0F711D811D911D3F
:10418000A11D20D009F468943F912AE0269F1124B4
:104190003019305D3193DEF6CF010895462F477018
:1041A000405D4193B3E00FD0C9F7F6CF462F4F7073
:1041B000405D4A3318F0495D31FD4052419302D0D1
:1041C000A9F7EACFB4E0A695979587957795679577
:1041D000BA95C9F700976105710508959B01AC0177
:1041E0000A2E06945795479537952795BA95C9F79E
:1041F000620F731F841F951FA01D0895F894FFCFB1
:10420000260826082F082F0831082F082F082F0806
:104210002608260836082F082F083608AA08B608E8
:10422000BB08B408B908C008BE08D00BF80B8E0D47
:10423000F80B8E0D2B0C4C0C8E0D490D560DEE13FC
:10424000EE1367146714B514231423142314CF1426
:06425000A515B415B4151C
:10425600000069022000AF000120009C0390099B2A
:10426600038C098809010A25640A00818283E20019
:10427600E900EA00B500B600B700CD008301CC0026
:104286008A019201940121022302240225022602B8
:0C42960027022A02B300B4006F00700081
:00000001FF
