:100000000C94E6010C9403020C9403020C9403027A
:100010000C9403020C9403020C9403020C9403024C
:100020000C9403020C9403020C945B0D0C949D0C35
:100030000C94B00E0C9403020C9403020C94030273
:100040000C9403020C9403020C9403020C9403021C
:100050000C9403020C946F0E0C9403020C94030294
:100060000C9403020C9403020C9403020C940302FC
:100070000C9403020C9403020C9403020C940302EC
:100080000C9403020C9403020C9403020C940302DC
:100090000C9403020C9403020C9403020C940302CC
:1000A0000C9403020C9403020C9403021D0322031C
:1000B0002C03200325032A0328039D03A303910394
:1000C0009703A903AF03B503120486041A04E403DB
:1000D000E8031E04EB0321042C04F6037C04FA035A
:1000E0003004FE0334045E04020438046804080487
:1000F0003E044804EF032504F20328040D044304DE
:10010000540474047604E00316048F047505750521
:10011000A705A70522063607360736074006B406A8
:10012000C506C506BC0AE30A7B0CE30A7B0C2B0B55
:100130004E0B7B0C3D0C500C05010980A101850381
:1001400019012AB700150126B70095017510810025
:10015000C0050C0901A101850419012AA00215019D
:1001600026A002950175108100C005010906A101B4
:100170008506050719E029E7150025019508750191
:1001800081020507190029EF1500250195F0750179
:10019000810205081901290595057501910295014E
:1001A00075039101C005010906A101050719E029A0
:1001B000E7150025019508750181029501750881F3
:1001C000010507190029FF150026FF00950675088F
:1001D00081000508190129051500250195057501FE
:1001E0009102950175039101C009023B00020100D3
:1001F000A0FA090400000103010100092111010016
:1002000001224400070581030800010904010001DF
:1002100003000000092111010001226D0007058281
:100220000320000112010002000000089732744907
:1002300000010102000116034500720067006F0013
:1002400064006F007800200045005A000000280379
:100250005A0053004100200054006500630068000C
:100260006E006F006C006F006700790020004C008A
:1002700061006200730000000403090429002B00E0
:100280004C41E100350000001E00140004001D0078
:1002900034004E001F001A0016221B00E1042A0041
:1002A000200008000721060050002C002100150046
:1002B000092419004F004B00220017000A00050016
:1002C000000033022E001A7C00002F2800003800A6
:1002D00056001B7C000030280000230223001C0075
:1002E0000B00110000003502240018000D2410003E
:1002F0005200E20125000C000E21360051002800BA
:10030000260012000F2237002F002B0027001300B9
:100310003300380030002D02290031003441E10063
:1003200035000000A80049000100010001000000A4
:100330003A001E0220022202010001003B001F02BF
:1003400021022302AA002A003C002F0226022F00CD
:10035000A9002C003D0030022702300046000100B9
:100360003E00310235003502000035022E00340215
:100370000000340000003500560034020000340054
:10038000000035003F0052005100240200003502F9
:100390004000240021001E0037000100410025001C
:1003A00022001F0027002800420026002300200012
:1003B0002E002B00430025022E02310001002D02E9
:1003C00044004500010001000100000011241FBE8F
:1003D000CFEFDAE0DEBFCDBF11E0A0E0B1E0E4ECAA
:1003E000F8E302C005900D92A836B107D9F722E0D4
:1003F000A8E6B1E001C01D92A238B207E1F70E9461
:100400001F100C94601C0C940000982F92959F7004
:1004100019F0892F24E001C020E0982F9695969539
:1004200011F02E5F892F982F969509F02F5F822F5C
:10043000089590E0FC01EF5DFE4F208121111AC06C
:10044000F894FC01ED5EFE4F8081E82FE295EF709D
:10045000F0E031A1282F2F7081E090E001C0880FDB
:100460002A95EAF7982F9095932391A392A1892B2F
:1004700082A378940895A6E0B0E0E1E4F2E00C9461
:10048000CD1B49835A8349815A81992361F02223E4
:1004900051F0CA010E944218182F682F89819A8151
:1004A0000E94B21804C0CA010E947E18182F6981E8
:1004B0007A81812F0E94E8132696E3E00C94E91BD1
:1004C000ABE1B0E0E6E6F2E00C94CC1B4E8B5F8B28
:1004D000688F798F8A8F9B8F192F9111109231021B
:1004E000DE011F9687E0FD0111928A95E9F786E00B
:1004F000FE01769601900D928A95E1F70A8D002310
:1005000041F021E04F85588969897A89C8010E94A4
:100510003B020B8B1C8B87E0FE013F96DE01189699
:1005200001900D928A95E1F7CE0108960E940C1673
:1005300081112CC087E0FE013896DE0111960190F2
:100540000D928A95E1F76C85662301F12091F50102
:1005500030E0C90101968770992740912E0250E042
:100560008417950761F16D8397E0929FD001939F67
:10057000B00D1124AA50BE4FFE01319601900D928C
:100580009A95E1F78093F5010E94A91517E08091F3
:100590002E029091F5018917F9F0189FC0011124DE
:1005A0008A509E4F0E940C168823B1F080912E0233
:1005B00090E001968770992780932E02E8CF0E94E1
:1005C0002B191092F50110922E02EEEEF1E087E069
:1005D000DF011D928A95E9F76B96E4E00C94E81B25
:1005E00027982F982F98089526982E982E9808953A
:1005F00025982D982D980895279A2F9A0895269A30
:100600002E9A0895259A2D9A0895CF93DF93D82F87
:100610000E940502C82F5E980E94F8020E94F40210
:100620000E94F0028C2F90E0FC013197E730F10539
:10063000A8F4EA5AFF4F0C944D1C0E9402030EC00E
:100640000E9402030E94FF0209C00E94020304C02C
:100650000E9402030E94FF020E94FC028D2FDF9184
:10066000CF910895A0E0B0E0E8E3F3E00C94C71B5D
:10067000FC018481882309F42DC47F0121E040819D
:1006800051816281738195810E943B02EC01811549
:100690002EE79207E1F5F7018581882309F46EC002
:1006A0009091C00181E0890F8770987F853020F498
:1006B000892B8093C00102C09093C0018091C0013A
:1006C0008770FFEF8F9FC0011124959587959595B1
:1006D00087959927909389008093880090938B0049
:1006E00080938A0090938D0080938C004091C0018C
:1006F0005091C1016091C2017091C3018FE090E0FF
:100700000E942B1C8091BF010E94050337C0FC0191
:10071000E851FC47E730F10588F5E35AFF4F0C94A8
:100720004D1C06E221EE41EE6AE17CE723C007E2C0
:1007300025EE45EE6BE17CE71DC006E221EE40EEC2
:1007400068E17CE717C007E225EE44EE69E17CE74B
:1007500011C006E221EE42EE6CE17CE70BC007E23D
:1007600025EE46EE6DE17CE705C008E221E045EEAE
:100770006EE17CE7C7010E94950FFAC0F701858101
:10078000882309F459C11092E401CE019057839750
:1007900008F0DBC084E090E00E94031C9093EC0121
:1007A0008093EB01FE01E150F047E232F10520F4C5
:1007B000EC59FF4F0C944D1C8091EB018160ACC053
:1007C0008091EC018860B4C08091EB018260A4C08C
:1007D0008091EB0120C08091EB0188609DC08091E9
:1007E000EC011EC08091EC018260A2C08091EB01FF
:1007F000806192C08091EB0180628EC08091EB019C
:1008000080648AC00E942B198091EB01806884C0AB
:100810008091EB01886084607FC08091EC018260F0
:10082000816086C08091EB018E7F76C08091EC0163
:10083000877F7EC08091EB018D7F6EC08091EB0140
:1008400020C08091EB01877F67C08091EC011EC0C2
:100850008091EC018D7F6CC08091EB018F7E5CC03C
:100860008091EB018F7D58C08091EB018F7B54C04C
:100870000E942B198091EB018F774EC08091EB0184
:10088000877F8B7F49C08091EC018D7F8E7F50C028
:100890008091EB0182FB222720F991E0922790FBC7
:1008A00082F990FB83F938C08091EC01982F9095E4
:1008B00091708E7F892B90FB81F93AC08091EB017A
:1008C00086FB222720F991E0922790FB86F924C02D
:1008D0000E942B198091EB0187FB222720F991E0E0
:1008E000922790FB87F918C061E001C060E08EE0BC
:1008F00090E00E94191C1EC08091EB0184FB22270E
:1009000020F991E0922790FB84F906C08091EB01D9
:10091000982F909590FB80F98093EB010BC080910C
:10092000EC0183FB222720F991E0922790FB83F9C9
:100930008093EC016091EB017091EC0184E090E018
:100940000E94371C0E942B1913C0C631FCE7DF0739
:1009500009F580915A028A7A91E009F490E0909327
:100960006B018111ABC289E20E94070F0E94291519
:1009700080912F02877009F4ADC2F7018581882329
:1009800009F4A8C28091EC0182FFA4C282E00E9417
:100990007B15A0C2C330FCE7DF0771F190F4C115ED
:1009A0008CE7D807D9F0C130DC4709F049C00E9474
:1009B0002B19FFEF24E38CE0F15020408040E1F759
:1009C0002AC0CB35ECE7DE0799F1CC35FCE7DF0731
:1009D00039F1CA35DC47A1F581E02BC00E942B1903
:1009E0008FEF94E3ECE081509040E040E1F700C0ED
:1009F00000000E943D0EBCCF6FEF7FEF80E090E0E3
:100A00000E94371C0E942B199FEFE4E3FCE09150F9
:100A1000E040F040E1F700C000000E94320EA8CF95
:100A20008091EC0182FB882780F991E0892701C041
:100A300080E00E94921504C0C631DC4709F440C230
:100A4000F7018581C081D181882349F0CE010E94C0
:100A50004218182F682FCE010E94B21804C0CE0190
:100A60000E947E18182FBE01812F0E94E8130E9459
:100A70000514182FC92FC82EF701D58106810295BC
:100A80000F7080912F02877001F1DD23F1F0892F23
:100A9000807F803469F080E2810F8830B0F0892F48
:100AA000807E803229F4F1E0F11778F4002369F0B8
:100AB0008091EC0182FF09C082E00E947B15809149
:100AC0002F028770DD24D3948111D12CBC2EB294D7
:100AD0008FE0B8228B2D90E08C30910508F0C6C1D4
:100AE000FC01EA57FF4F0C944D1C8C2F807FCF7078
:100AF000882311F0C295C07FDD23B9F0CC2309F41F
:100B0000A3C180E2810F883010F0C11006C090911F
:100B10005A02C92BC0935A0205C090913102C92BC9
:100B2000C09331020E9429158FC1812F0E945E1946
:100B3000CC2309F49BC1105E183080F1CC2071F1F8
:100B4000C09590913102C923C09331022AC08C2FE5
:100B5000807FCF70803211F0C295C07FCC2029F009
:100B600021E0C21609F44CC054C08091EC0182FD12
:100B70001BC0DD2369F0CC2339F090915A02C92BB8
:100B8000C0935A020E94291580E00E9488196EC104
:100B900080E00E945E19CC2309F468C18C2F0E946A
:100BA00022150E94291562C1DD2381F00023A9F1DD
:100BB000013009F05BC1909130028C2F8923C81756
:100BC00009F454C1C92BC093300250C101114EC168
:100BD0008C2F0E944D19809130029C2F982329F070
:100BE0009C2F909589238093300220916C018C2F4B
:100BF000822309F43BC1C0952C2320936C0136C19C
:100C0000DD2321F0023008F031C107C001112EC1EF
:100C100015C0DD2331F0011117C18C2F0E9454192A
:100C200025C1002359F0193309F01DC18FEF97EE4C
:100C3000E3E081509040E040E1F713C18C2F0E9427
:100C40004D1914C18C2F86958695837019F08130CB
:100C500061F00CC1DD2321F0812F9C2F937002C025
:100C600080E090E00E94630F07C1DD2321F0812F17
:100C70009C2F937002C080E090E00E943E0FFCC069
:100C80008C2F8370A9F5D111F5C0412F429546955F
:100C90004770440F440F812F8F7090E09C01042E09
:100CA00001C0220F0A94EAF714FF08C08FE090E019
:100CB00001C0880F4A95EAF7809501C080E0C6958B
:100CC000C695C370C23069F088F49091BE01C130FE
:100CD00019F0822B892302C0922B892B0E940519BF
:100CE000C9C0822B9091BE018927F8CF822BF6CF05
:100CF000DD2319F08C2F817001C08695882309F4BB
:100D0000B9C0412F429546954770440F440F812F3B
:100D10008F7090E09C01042E01C0220F0A94EAF724
:100D200014FF08C08FE090E001C0880F4A95EAF7F1
:100D3000809501C080E0C695C695C370C23059F059
:100D400078F49091BF01C13019F0822B892309C03A
:100D5000922B892B06C0822B9091BF01892701C05D
:100D6000822B0E94E71886C0CF70DD2339F08C2FCC
:100D70000E94F918812F0E9454197CC0812F0E9473
:100D80004D198C2F0E94EC1875C0812FF2EFCF16F1
:100D900061F1FC1538F020EFC21659F091EFC91639
:100DA000F9F04EC0E3EFCE1639F1F4EFCF16A1F013
:100DB00047C0DD2369F0011159C0CF7181E090E097
:100DC00001C0880FCA95EAF79091BF0189271EC01C
:100DD000023008F04BC0F1CF8091EC0182FD19C0C8
:100DE000DD2329F08C2F8F711FC0DD23D9F38C2FC9
:100DF0008F710E94EC183AC0DD2339F0CF7181E089
:100E000001C0880FCA95EAF701C080E00E94E71888
:100E10002DC0DD2361F08C2F8F7198E0899F9001A8
:100E20001124236020932F020E94F9181FC081E033
:100E30000E947B150230D0F082E00E947B1516C024
:100E4000DD2321F0002371F2812F9FCE002379F260
:100E5000893349F4EFEFF7EE23E0E150F040204012
:100E6000E1F700C00000812F0E945E1988EF8B0D12
:100E7000843010F40E94880FDD20A9F080912F02A9
:100E800080FD11C0F70115828695869586950E9492
:100E9000F918C7010E94320380912F02869586952A
:100EA00086950E94EC1820E0F70140815181628113
:100EB0007381848195810E943B020CC085E354CDEF
:100EC00080916B01811104C089E20E94D90E4ECD40
:100ED00085E3FBCFCDB7DEB7E9E00C94E31BA1E0DF
:100EE000B0E0E5E7F7E00C94CC1B8730F8F42091F4
:100EF0000B0130910C01232BD1F521E030E0A90149
:100F000002C0440F551F8A95E2F7CA018095898374
:100F10000AE010E0AE014F5F5F4F62E180E40E94A3
:100F2000C31A90930C0180930B0121C090E0FC0147
:100F3000EF5DFE4F208121111AC0F894FC01ED5E97
:100F4000FE4F8081E82FE295EF70F0E031A1282F6D
:100F50002F7081E090E001C0880F2A95EAF7932F67
:100F6000982B91A392A18095892382A378942196AE
:100F7000E4E00C94E81B0F931F93CF9308E211E079
:100F8000C7E0F80181918F01811103C08C2F0E946D
:100F90001902CF5FCE30A9F7CF911F910F9108951D
:100FA000A1E0B0E0E6EDF7E00C94CC1B082F873011
:100FB000C8F480910B0190910C01892BE9F51982FD
:100FC0000AE010E021E030E0AE014F5F5F4F63E1E7
:100FD00080E40E94111B90930C0180930B01898186
:100FE00080952BC00E946F07ADE0B1E020E030E0BB
:100FF00010E051E04D91E42FE295EF70F0E080A118
:1010000090E04F7002C0959587954A95E2F780FD74
:1010100007C0852F022E01C0880F0A94EAF701C08D
:1010200080E0182B2F5F3F4F2630310519F7802FB6
:101030000E941902812F01C080E02196E4E00C9407
:10104000E81BCF93DF93ADE0B1E043E151E061E015
:1010500070E0F8948D91E82FE295EF70F0E021A117
:101060008F70EB0102C0CC0FDD1F8A95E2F7CE0135
:101070009C2F9095922391A392A1892B82A378947F
:101080004A175B0731F7DF91CF910895A2E0B0E0F6
:10109000ECE4F8E00C94CC1B80E290E090930C011F
:1010A00080930B0180916A0181110EC00E94461A43
:1010B00081E080936A012FEF83ED90E3215080401F
:1010C0009040E1F700C0000019828FE38A830AE0B4
:1010D00010E022E030E0AE014F5F5F4F60E080E45F
:1010E0000E94C31A90930C0180930B01892B69F421
:1010F00022E030E0AE014F5F5F4F6CE080E40E9481
:10110000C31A90930C0180930B0180910B012296DE
:10111000E4E00C94E81B2091E4003091E50095E6B2
:101120004091EC00842F817040FF23C08091E80043
:1011300080FD1DC080917E01882399F0853099F053
:101140008091EB0085FD11C04091E4005091E500D5
:101150002417350729F3915011F09A01E1CF84E06B
:10116000089582E0089583E0089581E0089580E085
:1011700008954091E80042FFDDCF089580918001FD
:1011800087FF11C08091E80082FD05C080917E013B
:101190008111F8CF11C08091E8008B770BC080914E
:1011A0007E01882349F08091E80080FFF8CF80918C
:1011B000E8008E778093E8000895982F973068F5BF
:1011C0009093E900981739F07091EC002091ED00B0
:1011D0005091F00003C0242F762F50E021FD02C073
:1011E0009F5FECCF3091EB003E7F3093EB0030916E
:1011F000ED003D7F3093ED003091EB003160309396
:10120000EB007093EC002093ED005093F0002091E0
:10121000EE0027FDE5CF80E008958F708093E90010
:1012200081E00895209186013091870126173707C4
:1012300048F06115710539F42091E8002E7720936C
:10124000E80001C0B901FC0120E06115710579F1E8
:1012500080917E018823F1F18530F1F18091E800E1
:1012600083FD3CC08091E80082FD2EC08091E800A3
:1012700080FFEBCF2091F3008091F20090E0922B61
:101280006115710551F08830910538F42191209352
:10129000F100615071090196F3CF21E0089709F040
:1012A00020E08091E8008E778093E800CECF211176
:1012B000CFCF0AC080917E01882361F0853061F034
:1012C0008091E80083FD0AC08091E80082FFF2CFA0
:1012D00080E0089582E0089583E0089581E0089514
:1012E00008958091730108950F931F93CF93DF9317
:1012F0008B01EA0190917E019430A9F58F70809363
:10130000E9008FEF9091E800815095FD06C095EDC2
:101310009A95F1F700008111F5CF8091E80085FFE3
:1013200022C00E948B08811115C0209789F08091FE
:10133000E80085FD06C08091E8008E778093E80084
:10134000F0CFF80181918F018093F1002197EDCFCB
:1013500090E001C0982F8091E8008E778093E8009C
:1013600081E0911101C080E0DF91CF911F910F9139
:10137000089543E050E0BC0182E00E9474090895A2
:1013800040E250E0BC0182E00E9474090895CF93CE
:10139000DF93EC0148E050E0BC0181E00E94740959
:1013A00088E0FE01A4E7B1E001900D928A95E1F793
:1013B000DF91CF910895AAE2B0E0E1EEF9E00C945C
:1013C000CD1BE0E8F1E088E891E02091F100219365
:1013D0008E179F07D1F780918101833009F461C096
:1013E00030F4813071F0823009F49BC0B2C08A3091
:1013F00009F487C08B3009F46CC0893009F0A9C0AA
:1014000020C080918001813A09F0A3C08091E8005A
:10141000877F8093E8008091840190918501892BDA
:1014200021F468E084E791E003C060E080E090E0B0
:1014300070E00E9412098091E8008B778093E800A9
:1014400088C080918001813209F083C0809184013D
:1014500090918501029708F07CC08091E800877F19
:101460008093E8008091E80082FD05C080917E01B4
:101470008111F8CF6EC02091F3008091F20090E0CE
:10148000922B029731F48091F100813011F0863077
:1014900021F48091F100809373018091E8008B77B3
:1014A00054C080918001813A09F053C08091840139
:1014B00090918501892B09F04CC08091E800877FCD
:1014C0008093E8008091E80080FFFCCF80910001CC
:1014D00037C0809180018132E1F580918401909143
:1014E0008501892BB1F58091E800877F8093E80022
:1014F0000E94BE0880918201809300010E942B19F6
:1015000028C080918001813221F58091E800877F99
:101510008093E8000E94BE0880918301809372014D
:1015200018C080918001813AA1F48091E800877F02
:101530008093E8008091E80080FFFCCF80917201E9
:101540008093F1008091E8008E778093E8000E94FC
:10155000BE088091E80083FFCEC180918001909108
:101560008101492F50E04A30510508F0C4C1FA0109
:10157000EE56FF4F0C944D1C803821F0823809F054
:10158000BAC108C080917C0190917D01992389F0B6
:1015900082600FC0809184018F70873008F0ABC1EA
:1015A0008093E9008091EB0085FB882780F91092F9
:1015B000E9009091E800977F9093E8008093F10014
:1015C0001092F10065C1282F2D7F09F094C1882366
:1015D00019F0823061F08FC180918201813009F071
:1015E0008AC1933009F080E080937D012EC0809104
:1015F000820181112AC0809184018F702FEF280F02
:10160000263008F078C18093E9002091EB0020FF9C
:101610001CC0933021F48091EB00806214C0909143
:10162000EB0090619093EB0021E030E0A90102C053
:10163000440F551F8A95E2F74093EA001092EA00A2
:101640008091EB0088608093EB001092E90080911C
:10165000E800877F20C181114EC1109182011F7760
:101660008091E3008078812B8093E3008091E800F3
:10167000877F8093E8000E94BE088091E80080FF89
:10168000FCCF8091E30080688093E300111102C0D9
:1016900082E001C083E080937E012DC180588230BA
:1016A00008F029C180918201909183018C3D53E023
:1016B000950779F583E08A838AE289834FB7F894A6
:1016C000DE01139620E03EE051E2E32FF0E050937C
:1016D0005700E49120FF03C0E295EF703F5FEF7089
:1016E0008E2F90E0EA3010F0C79601C0C0968D931F
:1016F0009D932F5F243149F74FBF8091E800877F8A
:101700008093E8006AE270E0CE0101960E9412091F
:10171000AEC04091840150918501292F3327233099
:101720003105A9F068F42130310509F4F3C0223005
:10173000310509F0E0C08BE390E0E9EEF1E044C050
:101740002132310521F12232310571F1D4C09927BE
:1017500081309105A1F058F0029709F0CCC0E6E382
:10176000F2E0E4918E2F90E0E6E3F2E02AC0E8E7B1
:10177000F2E0E4918E2F90E0E8E7F2E022C0EEE4A0
:10178000F2E0E4918E2F90E0EEE4F2E01AC0411511
:10179000510509F4C4C04130510509F0ACC089E0DD
:1017A00090E0E4E1F2E010C04115510509F4BCC03D
:1017B0004130510509F09FC08DE690E0E8E3F1E08B
:1017C00003C0009709F497C02091E800277F209379
:1017D000E80020918601309187018217930708F471
:1017E0009C0140E02115310589F180917E0188231B
:1017F00009F43DC08530D9F18091E80083FD37C000
:101800008091E80082FD2FC08091E80080FFEACF40
:101810004091F3008091F20090E0942B2115310566
:1018200059F08830910540F444914093F10031968D
:10183000215031090196F2CF41E0089709F040E0CC
:101840008091E8008E778093E800CCCF4111CDCF16
:101850000AC080917E01882351F0853041F080914B
:10186000E80083FD04C08091E80082FFF2CF809100
:10187000E8008B778093E8003EC08038E1F58091E6
:10188000E800877F8093E80080917F018093F100DA
:101890008091E8008E778093E8000E94BE082BC0FC
:1018A000811129C08091820190918301992702972B
:1018B00014F58091E800877F8093E8001091820101
:1018C00010937F010E94BE08111106C08091E300B1
:1018D00087FD02C081E001C084E080937E0142E088
:1018E00061EC81E00E94DD0842E261EC82E00E944E
:1018F000DD0880917E018091E80083FF1AC080910D
:10190000E800877F8093E8008091EB0080628093FD
:10191000EB000FC082E190E0E4E2F2E055CF89E015
:1019200090E0EBEFF1E050CF84E490E0E5EAF1E005
:101930004BCFAA96E3E00C94E91B1F920F920FB6CF
:101940000F9211242F933F934F935F936F937F9345
:101950008F939F93AF93BF93CF93DF93EF93FF93B7
:10196000C091E900CF708091EC00D82FD17080FD3C
:10197000D0E81092E9008091F000877F8093F0001A
:1019800078940E94DB091092E9008091F000886051
:101990008093F000CD2BCF70C093E900FF91EF91C1
:1019A000DF91CF91BF91AF919F918F917F916F9177
:1019B0005F914F913F912F910F900FBE0F901F900D
:1019C0001895E8EDF0E080818E7F80831092E20030
:1019D0001092DA001092E100A0EEB0E08C918160EC
:1019E0008C9380818F77808319BCA7EDB0E08C91B8
:1019F0008E7F8C9380818F7E8083109271010895F9
:101A0000A0E0B0E0E6E0FDE00C94C81BC8EDD0E03B
:101A100088818F7E8883E7EDF0E08081816080831C
:101A200084E082BF81E08093710188818E7F88830A
:101A300002EE10E0F80110821092DA0081EEC82E5A
:101A4000D12CF601108288818F7788838881806805
:101A5000888388818F7D888319BC10927E011092C3
:101A60007F0110927D0110927C0190EEE92EF12C05
:101A7000F70180818B7F808388818160888342E049
:101A800060E080E00E94DD08F60180818E7F808327
:101A9000F801808181608083808188608083F70184
:101AA00080818E7F8083888180618883CDB7DEB717
:101AB000E8E00C94E41B1F920F920FB60F921124D2
:101AC0002F933F934F935F936F937F938F939F9346
:101AD000AF93BF93EF93FF938091E10082FF09C022
:101AE0008091E20082FF05C08091E1008B7F8093AE
:101AF000E1008091DA0080FF2AC08091D80080FF49
:101B000026C08091DA008E7F8093DA008091D90020
:101B100080FF18C080E189BD82E189BD09B400FE63
:101B2000FDCF81E080937E018091710181110FC012
:101B30000E94E10C0E94000D8091E200846080937D
:101B4000E20005C019BC10927E01109271018091D3
:101B5000E10080FF17C08091E20080FF13C08091F8
:101B6000E2008E7F8093E2008091E20080618093AA
:101B7000E2008091D80080628093D80019BC85E093
:101B800080937E018091E10084FF30C08091E2006B
:101B900084FF2CC080E189BD82E189BD09B400FECB
:101BA000FDCF8091D8008F7D8093D8008091E10097
:101BB0008F7E8093E1008091E2008F7E8093E2002F
:101BC0008091E20081608093E20080917F01882310
:101BD00011F084E007C08091E30087FD02C081E03E
:101BE00001C083E080937E0180917E018091E100BD
:101BF00083FF27C08091E20083FF23C08091E10032
:101C0000877F8093E10082E080937E0110927F01C4
:101C10008091E1008E7F8093E1008091E2008E7FD1
:101C20008093E2008091E20080618093E20042E0D4
:101C300060E080E00E94DD088091F0008860809381
:101C4000F000FF91EF91BF91AF919F918F917F91A4
:101C50006F915F914F913F912F910F900FBE0F9019
:101C60001F9018959AE088E10FB6F894A895809394
:101C700060000FBE90936000FFCFF89481E08093E6
:101C8000E00080E28093D800E9ECF0E010828FE180
:101C90009EE40197F1F700C000001DBA10926800A1
:101CA0001CBC10BE1FBA10927A0010926E001092E7
:101CB0006F0010927100109272001082ECEBF0E055
:101CC000108214B817B81AB81DB810BA108215B817
:101CD00018B81BB81EB811BA0C94003F0895789438
:101CE0001F920F920FB60F9211248F939F93AF9371
:101CF000BF9380916D0190916E01A0916F01B091A1
:101D000070010196A11DB11D80936D0190936E012C
:101D1000A0936F01B0937001BF91AF919F918F918C
:101D20000F900FBE0F901F9018959C014FB7F8941D
:101D300080916D0190916E01A0916F01B091700141
:101D40004FBF821B930B08952FB7F89480916D01BC
:101D500090916E01A0916F01B09170012FBF089515
:101D60001F920F920FB60F9211248F939F93AF93F0
:101D7000BF938091ED01811113C080916D0190910D
:101D80006E01A0916F01B09170014196A11DB11D2E
:101D900080936D0190936E01A0936F01B0937001D9
:101DA000BF91AF919F918F910F900FBE0F901F9099
:101DB000189590910001992321F09091EB0197FDE6
:101DC00003C0E8E8F1E01DC0E82FE695E695E6954A
:101DD000EE31E0F4F0E0E057FE4F877021E030E0B4
:101DE000A90102C0440F551F8A95E2F7CA018095E8
:101DF0009281892382830895319651E0EE38F50768
:101E000029F092818913F8CF1282F6CF089590912C
:101E100000019923D1F09091EB0197FF16C0E82FB4
:101E2000E695E695E695EE3140F5F0E0E057FE4F99
:101E3000877021E030E0A90102C0440F551F8A9548
:101E4000E2F7CA019281892B16C0AAE8B1E0EFEF50
:101E500090E02D91821789F0EF3F19F4211101C014
:101E6000E92F9F5F9630A9F7EF3F39F00E2E000C57
:101E7000FF0BE857FE4F828308950895A3E0B0E07A
:101E8000E4E4FFE00C94CE1B2091E9013091EA01DB
:101E900028173907A1F09093EA018093E901E091B6
:101EA000E701F091E801309751F024E029839B830A
:101EB0008A830084F185E02DCE0101960995239651
:101EC000E2E00C94EA1BA3E0B0E0E9E6FFE00C944A
:101ED000CE1B2091E5013091E60128173907A1F0CA
:101EE0009093E6018093E501E091E701F091E8012C
:101EF000309751F023E029839B838A830084F18506
:101F0000E02DCE01019609952396E2E00C94EA1BA0
:101F1000E091E701F091E801309729F00190F0811C
:101F2000E02D0995089580E00895FF920F931F9387
:101F3000CF93DF93C42FD22FF02EFC01858188230D
:101F4000B1F04093E4010E94A40E9093E3018093CA
:101F5000E20180E28C0F883008F06CC0C77081E02D
:101F600001C0880FCA95EAF70E94541963C0809196
:101F7000E401481353C08091E2019091E3010E9473
:101F8000950E883C910508F049C0CD1729F180E2F3
:101F90008C0F883040F4C77081E001C0880FCA956B
:101FA000EAF70E944D1980E28D0F883048F481E0F5
:101FB0009D2F977001C0880F9A95EAF70E945419D7
:101FC000F9E3FF1619F000E010E002C000E510E0B0
:101FD0008F2D0E94881908C099E30913F4CF89E373
:101FE0000E94881900E510E00115110549F08FE9FC
:101FF0009FE00197F1F700C0000001501109F4CFF4
:102000008F2D0E945E1980E28D0F883098F4D77072
:1020100081E001C0880FDA95EAF70AC080E28C0FF0
:10202000883040F4C77081E001C0880FCA95EAF794
:102030000E944D19CDB7DEB7E5E00C94E71BA8E090
:10204000B0E0E5E2F0E10C94BE1B85B7806885BF87
:1020500085B7806885BF84B7877F84BF0FB6F89443
:10206000A895809160008861809360001092600064
:102070000FBE90E080E80FB6F894809361009093D3
:1020800061000FBE85EB92E1909369018093680136
:102090000E94E10C0E94000D8091E2008460809318
:1020A000E200789480917E018823A1F01091E900EC
:1020B0001F709091EC00892F817090FD80E8182BA3
:1020C0001092E9008091E80083FD0E94DB091F70F7
:1020D0001093E90082E084BD93E095BD9AEF97BD2F
:1020E00080936E000E94460890E090930C018093CC
:1020F0000B010E94BB070E942108E0EBF1E0A4EC79
:10210000B1E011921D9221E0EE3BF207D1F780E0A1
:1021100090E00E94031C853E9E4F09F46EC065EE60
:102120007EEF80E090E00E94371C60E082E090E06B
:102130000E94191C81E08093BE0161E083E090E081
:102140000E94191C60E074E184E090E00E94371C5A
:1021500060E086E090E00E94191C60E087E090E07B
:102160000E94191C40E050E0BA0188E090E00E9413
:102170002B1C60E083E290E00E94191C60E08CE080
:1021800090E00E94191C60E08DE090E00E94191C14
:1021900019821A821B821C821D821E821F8218864F
:1021A00048E050E067E170E0CE0101960E94091C12
:1021B00040E050E0BA018FE190E00E942B1C1092A9
:1021C000C0011092C1011092C2011092C30184E0BB
:1021D0008093C0014091C0015091C1016091C20142
:1021E0007091C3018FE090E00E942B1C40E050E012
:1021F000BA0183E190E00E942B1C82E090E00E94F3
:10220000F51B8093D20184E090E00E94031C909320
:10221000EC018093EB010E94B717FFEF2AE683E001
:10222000F15020408040E1F700C000000E94B71745
:102230008091C40180FF08C06FEF7FEF80E090E0E5
:102240000E94371C0E943D0E83E090E00E94F51B27
:102250000E9405198091BF010E94050389EA8093BD
:10226000800089E08093810024982C983F98479AB9
:1022700054985C9A55985D9A6E98769A569A8FE023
:1022800090E00E94FD1B6093C0017093C101809398
:10229000C2019093C30167701FEF169FB001112414
:1022A0007595679575956795772770938900609305
:1022B000880070938B0060938A0070938D00609308
:1022C0008C005E980E94F8020E94F4020E94F002C4
:1022D0008FEF90E0909389008093880090938B001B
:1022E00080938A0090938D0080938C000E9402035B
:1022F0009FEFE0E7F2E09150E040F040E1F700C0EE
:1023000000000E94FF022FEF80E792E02150804002
:102310009040E1F700C000000E94FC02EFEFF0E700
:1023200022E0E150F0402040E1F700C000000E94B0
:10233000F8028FEF90E7E2E081509040E040E1F753
:1023400000C000000E94F402FFEF20E782E0F1509D
:1023500020408040E1F700C000000E94F002809120
:10236000C0018770189FC001112495958795959598
:1023700087959927909389008093880090938B008C
:1023800080938A0090938D0080938C005E980E94C9
:10239000F8020E94F4020E94F00281E091E0909322
:1023A000E8018093E70148E1C42ED12C50E4652E6A
:1023B00062EDE62E61E0F62E70E1572E80917E01EF
:1023C000853009F04FC012E180917E01853009F01F
:1023D00045C080917E01843009F11092ED010FB665
:1023E000F894A895C09260000FBE6092600083B719
:1023F000817F846083BF83B7816083BF7894889531
:1024000083B78E7F83BF0FB6F894A8958091600044
:10241000886180936000109260000FBE80917D0102
:10242000882391F20E94460890E090930C018093DB
:102430000B010E94BB070E942108E4ECF1E011921D
:10244000EE16FF06E1F70E94B717E4ECF1E0819188
:10245000811175C0EE16FF06D1F7B6CF0E942B1979
:102460000E94880F0E94B71793EDA92E91E0B92E14
:1024700021EE31E0A4ECB1E0F50191918D91892735
:102480002E173F0719F08823C1F305C0811103C03F
:102490000E9493173FC084EC882E81E0982E10E0B4
:1024A00022242394F40131904F01F501408043240C
:1024B00001F100E077247394872D8421A1F0098332
:1024C0001A830E94A40E9C838B832D8291E0872D1A
:1024D000832109F490E09E8349815A816B817C813C
:1024E0008D810E9460020F5F770C063029F7F5019D
:1024F00030821F5FFFEFAF1ABF0A1E3099F68FB709
:10250000F89440916D0150916E0160916F0170914E
:1025100070018FBF0E94880F9091E101891709F423
:102520004DCF8093E1018FB7F89440916D015091A8
:102530006E0160916F01709170018FBF3FCF59BCE8
:1025400019BD09B400FEFDCF8091D8008F7D809326
:10255000D8008091E00082608093E0008091E000EC
:1025600081FDFCCF0E942B192FCF80E00895909120
:10257000EB0192FF10C041E0282F2471243009F0B4
:1025800040E031E0282F2871283009F030E043176F
:1025900011F02CE0822793FF10C041E0282F247116
:1025A000243109F040E031E0282F2871283109F06A
:1025B00030E0431711F02CE082273091EC0130FF1E
:1025C00010C051E0282F2171213009F050E041E086
:1025D000282F2871283009F040E0541711F029E025
:1025E000822731FF10C041E0282F2171213109F0ED
:1025F00040E031E0282F2871283109F030E04317FE
:1026000011F029E0822794FD877E08958238910594
:1026100069F1B0F48133910509F475C048F4893249
:10262000910509F467C08A32910509F471C00895D3
:102630008533910509F459C089339105B9F008959E
:10264000833E910589F138F4803E9105D1F0823EB8
:10265000910529F10895863E9105C9F1873E9105BE
:10266000D9F1843E910509F06CC027C02091EB019F
:1026700020FD57C021FD55C02091EC0123FD5BC01A
:1026800008958091EB0180FD48C08091EC0180FFAE
:1026900048C08091EB0184FD46C083EE51C080911B
:1026A000EB0182FF3CC0F5CF8091EB0182FD37C08A
:1026B0008091EC0180FD35C0ECCF8091EC0181FF71
:1026C00036C08091EB0184FD2EC087EE39C0809129
:1026D000EB0183FF2AC0F5CF8091EB0183FD25C07C
:1026E0008091EC0181FD23C0ECCF8091EB0185FD51
:1026F00022C01FC08091EB0185FD1BC08091EC01C1
:1027000083FF19C00AC08091EB0186FD16C017C077
:102710008091EB0186FD13C010C089E311C082EEE9
:102720000FC080EE0DC080E00BC086EE09C084EEC5
:1027300007C085E305C089E203C08AE201C081E3E6
:1027400090E0089590915A0280913102892B9091E6
:1027500030029923E1F0892B90910001992341F0F7
:102760009091EB0197FF04C09EE122E931E003C0A4
:1027700096E02AE831E0F90120E0915028F031910B
:102780003323D9F32F5FF9CF21111092300208952E
:1027900020912E029091F50157E02917A9F030E021
:1027A000529FF001539FF00D1124EA50FE4F7181AA
:1027B000761306C07081781303C07581741306C048
:1027C0002F5F3F4F2770E9CF80E0089581E00895A3
:1027D0007E30B0F46630A0F48230A0F494E5899F96
:1027E000F001112486E0789FE00DF11D1124E60F21
:1027F000F11DEE0FFF1FE458FD4F85919491089550
:1028000080E001C081E090E008951F93CF93DF93B3
:102810000E940613EC01C11580E5D807E8F5C11543
:1028200090E4D90708F0A8C0C03ED10530F5CD3CF2
:10283000D10508F094C0C83AD10578F4C53AD1055D
:1028400008F083C0C130D10509F47CC008F4F2C09F
:10285000C430D10508F0F1C0EDC0C33CD10508F08B
:10286000E9C0C85AD0E0CC0FDD1FCE5CDE4F099026
:10287000D881C02DCE019464E1C0C11580E2D80793
:1028800008F0CBC0C11591E0D90708F06BC0C83E75
:10289000D10508F4D2C0CEC0C03682E5D80728F5ED
:1028A000C03492E5D90708F079C0C03282E5D80774
:1028B00008F06CC0C11592E5D90708F481C04C2F0F
:1028C0004695469580E2489FA0011124C37021E0FF
:1028D00030E0C90102C0880F991FCA95E2F7EA01EA
:1028E000C82BD92BCE019D68A9C0C03A82E5D80774
:1028F000B8F48C2F8F71C03892E5D90708F07BC0EF
:102900008695869590E2899F90011124C37081E09D
:1029100090E002C0880F991FCA95E2F79A6868C0D4
:10292000C03C82E5D80708F46DC0C03E92E5D907E7
:1029300008F080C0CF71DD27DC2FCC27CE01806F5F
:10294000906A7CC081E090E079C0C55AD0E0C15D5A
:10295000DE4F8881C82FD0E0CE0190646FC0CE01D9
:1029600090656CC08D2F0E94B712182FCE01992749
:102970000E9406131F715CC0CE0199270E940613A6
:10298000CC27DF70D06A8C2B9D2B58C0CF71D0E044
:10299000DC2FCC27CE01816F906A50C08C2F8F71B5
:1029A0008695869590E2899F90011124C37081E0FD
:1029B00090E002C0880F991FCA95E2F79C6818C082
:1029C0008C2F8F710E94B71295E0D695C7959A9576
:1029D000E1F7CF70D0E0DC2FCC27282F30E084FF48
:1029E00005C084E0220F331F8A95E1F7D069CE013C
:1029F000822B932B23C090E0D82FCC27CE01846F5D
:102A0000906A1CC08C2F8F710E94B7128F7190E05A
:102A1000D82FCC27CE01906211C08D2F8F710E94CC
:102A2000B712182FCE0199270E9406131F719062CA
:102A3000912B04C080E090E001C0CE01DF91CF91E6
:102A40001F910895809590915A02892380935A028C
:102A5000089580910001882351F18091EB0187FF57
:102A600026C00E94A2138093910140E250E062E3ED
:102A700072E080E991E00E94531C892BD9F180E239
:102A8000E0E9F1E0A2E3B2E001900D928A95E1F76E
:102A9000E091E701F091E801309761F186E08093E1
:102AA00090010480F581E02D80E991E022C00E9430
:102AB000A2138093880148E050E062E572E088E864
:102AC00091E00E94531C892BA9F088E0E8E8F1E02E
:102AD000A2E5B2E001900D928A95E1F7E091E7015D
:102AE000F091E801309731F00280F381E02D88E821
:102AF00091E00995089590912F0280958923809304
:102B00002F02282F277069F4981759F09091EC0143
:102B100092FF07C08695869586950E94EC181092C4
:102B20002F0208959091EC0192FB222720F928179B
:102B300079F080FB92F99093EC016091EB01709138
:102B4000EC0184E090E00E94371C82E00E947B153B
:102B5000089580912E029091F501891719F08F5FE9
:102B60008770FBCF0895CF93DF938091F401829516
:102B70008F7009F04EC08091F301882309F449C099
:102B800080912E024091F5015091EF016091EE018C
:102B9000C091F001D091F10177E08417D1F190E07C
:102BA000789FF001799FF00D1124DF01AA50BE4FEC
:102BB00014962C911497222349F111962C91119778
:102BC000251324C02C91261321C015962C911597FE
:102BD00021111CC012962D913C9113972C1B3D0B7B
:102BE000283C310598F48091F4018F7080618093C6
:102BF000F401E450FE4F80818F70806180838EEEFF
:102C000091E00E9432030E94A91503C001968770CB
:102C1000C4CFDF91CF910895A4E1B0E0E2E1F6E105
:102C20000C94C41B8C0186E0F801DE011F96019014
:102C30000D928A95E1F7F8018481E5809EEE892E58
:102C400091E0992E9091F201911120C0882309F40E
:102C500063C1EE2009F442C0C8010E940819F82E91
:102C60008823E1F187E0F801D40101900D928A9563
:102C7000E1F78091F201813031F48091EE01909181
:102C8000EF010E9471180E94B31548C1F801D0806D
:102C9000C180A280B380F090F3012091F0013091C7
:102CA000F101FF2009F4E7C0A501421B530B483C8A
:102CB000510508F09DC0882309F430C18091F401CA
:102CC000282F207F9091EF01222361F09C1509F4B9
:102CD00060C0C8010E940819811163C0C8010E9428
:102CE00032031AC19C1113C09091EE019D110FC0C7
:102CF000E1100DC08F7080618093F4018EEE91E041
:102D00000E9432038091F401F801868303C1E1102F
:102D10003AC040E06C2D8D2D0E94C81340E06C2D10
:102D20008D2D0E94C813E82E8111F4C0DF86C88A59
:102D30008F8598890E947118292F22952F70243031
:102D400020F49F70223028F009C02A50223080F0F1
:102D500014C0992349F0811107C013C0992321F0B1
:102D6000F8019681907F69F0805E883030F409C068
:102D7000803F38F0815F833020F0C8010E94320329
:102D8000EF2CFE2CCBC08091F40181608093F40184
:102D9000C1C09091EE019D119CCFE1109ACFF80136
:102DA00098C0EE2009F49ACF2091F401822F8295E9
:102DB0008F7090E002978CF08091EE019091EF017E
:102DC00099878887BB86AA868091F2018C871D86A9
:102DD0002E87CE0108960E94320387E0F801AEEEFE
:102DE000B1E001900D928A95E1F70E94B31594C06D
:102DF0009091F401292F207F51F48EEE91E00E94F2
:102E0000320387E0F40111928A95E9F783C08823A1
:102E100009F484C08091EF018C110CC08091EE0107
:102E20008D1108C0E11006C0F8019683C8010E9408
:102E300032036AC0C8010E940819882309F44ECFE2
:102E4000EE2009F44BCF2091F401822F82958F70F0
:102E500090E0029714F28091EE019091EF019A8335
:102E60008983BC82AB828091F2018D831E822F8385
:102E7000CE010196B0CFA21AB30AF8ECAF16B10496
:102E800008F042C0882309F447C0FE2CEE2009F464
:102E900025CF8091EF018C1129C08091EE018D1119
:102EA00025C09091F40190FD18C0892F82958F70F4
:102EB000282F30E02115310581F0F80196832F305D
:102EC000310541F08F5F982F9295907F86818F70AA
:102ED000892B8683C8010E94320387E0F801AEEE99
:102EE000B1E001900D928A95E1F718C0C8010E94E7
:102EF0000819811172CF8091F40181608093F401EF
:102F0000C8010E9432030AC087E0F40111928A9539
:102F1000E9F704C0F12C02C0FF24F3948F2D6496CE
:102F2000ECE00C94E01BA6E0B0E0E9E9F7E10C94DA
:102F3000CC1B0E94A40E8C0180915B0290915C02DC
:102F40000817190781F019821A820E94A40E682FAF
:102F500049815A81792F80E090E00E9460021093AD
:102F60005C0200935B022696E4E00C94E81BEF926F
:102F7000FF920F931F93CF93DF9380910B0190915A
:102F80000C01892BD9F080915D028F5F80935D02E7
:102F9000811114C00E94460890E090930C01809328
:102FA0000B01892B59F42FEF83EC99E021508040DD
:102FB0009040E1F700C000000E94320E00EB11E0EB
:102FC000C0E0D0E087E0E82EED0E8D2F0E946F0765
:102FD0008E2D0E946F078D2F0E94D0078F73F801EE
:102FE0009081891721F08083FF24F39401C0F12C94
:102FF0008E2D0E94D0078F73F8019781891719F0E1
:10300000878381E001C080E0F82ACF290E94BB07B6
:10301000DF5F0F5F1F4FD730A9F6CC2359F081E057
:10302000809360020E94A40E90935F0280935E02E0
:10303000C0E022C0809160028823F1F080915E029E
:1030400090915F020E94950E8397B0F04EE050E0A1
:1030500060EB71E084EC91E00E94531C892B51F0ED
:103060008EE0E0EBF1E0A4ECB1E001900D928A95E6
:10307000E1F7C1E0109260028C2FCDB7DEB7E6E039
:103080000C94E61BCF92DF92FF920F931F93CF9386
:10309000DF936C010091BF018091BE01082BC7E056
:1030A000D0E010E0C8010C2E02C0959587950A94D7
:1030B000E2F780FD04C02197A8F7F12C09C0FC2E8F
:1030C000B6018C2F0E94E8130E940514019799F312
:1030D0008F2DDF91CF911F910F91FF90DF90CF90B7
:1030E0000895CF93DF93EC010E944218BE010E9425
:1030F000E8130E940514DF91CF910895292F9E3087
:1031000078F5863068F590E036E0239F800D911DBC
:103110001124682F677023E0969587952A95E1F72B
:10312000FC01EE0FFF1FE80FF91FEF59FD4F40E0C4
:1031300050E080E0219130E0062E02C036952795C0
:103140000A94E2F721703327042E01C0220F0A945B
:10315000EAF7822B4F5F5F4F4330510559F70895CF
:1031600080E00895292F9E3088F5863078F590E02C
:1031700036E0239F800D911D1124282F277051E0E8
:1031800001C0550F2A95EAF723E0969587952A9571
:10319000E1F7FC01EE0FFF1FE80FF91FEF59FD4F9C
:1031A00020E030E070E04081CB01022E02C0969515
:1031B00087950A94E2F78170819584278523842777
:1031C00081932F5F3F4F2330310569F708950E94A7
:1031D00005038093BF01089521E030E001C0220F74
:1031E0008A95EAF720958091BF0182230E94E71813
:1031F000089521E030E001C0220F8A95EAF780911E
:10320000BF01822B0E94E71808958093BE010895A4
:10321000FC0124812223D9F0808191810E947118C0
:1032200092959F70963079F010F4925001C09A50A8
:10323000923068F4803F69F018F4883E40F409C089
:10324000843F29F406C0883E20F0813F11F080E0E1
:10325000089581E0089510925A0280910001882318
:1032600041F08091EB0187FF04C08EE1E2E9F1E0DB
:1032700003C086E0EAE8F1E0DF011D928A95E9F7F4
:1032800080E090E00E94630F80E090E00E943E0F9B
:10329000109231020E9429150895882321F00E947E
:1032A00022150E9429150895882339F090915A0219
:1032B000892B80935A020E9429150895882339F199
:1032C0009CEF980F913A18F40E94D90E0DC090E22D
:1032D000980F983060F4877091E001C0990F8A953B
:1032E000EAF7892F0E9422150E94291508959BE56F
:1032F000980F933028F480E090E00E94630F0895C7
:10330000885A8B3120F480E090E00E943E0F0895AF
:10331000CF93882309F465C0C82F8CEF8C0F813AB6
:10332000A0F5809100018823E1F08091EB0187FFF7
:1033300018C0EC2FE695E695E695F0E0E057FE4FD5
:103340008281282F30E04C2F477081E090E002C04E
:10335000880F991F4A95E2F782239323892B61F402
:1033600010C0EAE8F1E080E991E02191C21721F074
:103370008E179F07D1F705C08C2F0E94D90E0E948F
:1033800029158C2F0E94070F10C080E28C0F883007
:1033900078F4C77081E090E001C0880FCA95EAF721
:1033A00090915A02892B80935A020E94291519C0C4
:1033B000EBE5EC0FE33040F4F0E0E15DFE4F80819F
:1033C00090E00E94630F0DC0C85ACB3150F4EC2F2F
:1033D000F0E0EE0FFF1FEE5CFE4F808191810E94B6
:1033E0003E0FCF910895EF92FF920F931F93CF93CB
:1033F000DF93182FEB011092BC0084EA8093BC008D
:103400000E94A40E7C018091BC0087FD0DC0CF3FBF
:103410008FEFD807C1F3C7010E94950EC817D907CF
:1034200090F78EEF9FEF2DC08091B900887F883094
:1034300041F08091B900887F803119F08FEF9FEFC4
:1034400020C01093BB0084E88093BC000E94A40EAF
:103450008C018091BC0087FD0BC0CF3F8FEFD80758
:10346000C1F3C8010E94950EC817D90790F7D9CFAC
:103470008091B900887F883111F08034F9F680E0BE
:1034800090E0CDB7DEB7E6E00C94E61B1092B900F1
:103490008CE08093B80008950F931F93CF93DF9330
:1034A000EB018093BB0084E88093BC000E94A40ED3
:1034B0008C018091BC0087FD0DC0CF3F8FEFD807F6
:1034C000C1F3C8010E94950EC817D90790F78EEF77
:1034D0009FEF0CC02091B900287F81E090E0283256
:1034E00011F480E090E0919581959109DF91CF9161
:1034F0001F910F9108950F931F93CF93DF93EC01CA
:1035000084EC8093BC000E94A40E8C018091BC00CE
:1035100087FD0DC0CF3F8FEFD807C1F3C8010E94D0
:10352000950EC817D90790F78EEF9FEF03C08091D3
:10353000BB0090E0DF91CF911F910F9108950F9301
:103540001F93CF93DF93EC0184E88093BC000E942B
:10355000A40E8C018091BC0087FD0DC0CF3F8FEF82
:10356000D807C1F3C8010E94950EC817D90790F774
:103570008EEF9FEF03C08091BB0090E0DF91CF9171
:103580001F910F910895A0E0B0E0E9ECFAE10C94EE
:10359000C21B682E762E5A0169010E94A40E4C01AE
:1035A0000431110558F00F3F8FEF180751F0C80193
:1035B00064E170E00E94AA1BEB0105C0C1E0D0E00D
:1035C00002C0C5E0D0E0BE01862D0E94F3197C0147
:1035D00097FF0BC00F3F8FEF1807A9F3C4010E949C
:1035E000950E0817190778F713C0B801872D0E94A8
:1035F0004C1A7C01E501CA0CDB1CCC15DD0541F041
:10360000F7FC06C0B80189910E944C1A7C01F5CFE5
:1036100084E98093BC00C701CDB7DEB7EEE00C941F
:10362000DE1BA0E0B0E0E7E1FBE10C94C21B782ECA
:10363000662E7A01E9010E94A40E5C010431110595
:1036400058F00F3F8FEF180759F0C80164E170E0A0
:103650000E94AA1B6B0107C0CC24C394D12C03C0C9
:1036600025E0C22ED12CB601872D0E94F3194C0102
:1036700097FF0BC00F3FEFEF1E07A9F3C5010E9494
:10368000950E0817190778F72BC0B801862D0E94F0
:103690004C1A4C0197FD24C0F72DF1607F2E0E943B
:1036A000A40E5C010431110528F10F3F8FEF1807BC
:1036B00029F1C80164E170E00E94AA1B6B01B60108
:1036C000872D0E94F3194C0197FD1CC067012197BB
:1036D000C6018E199F098C179D0758F597FE1DC0CE
:1036E00084E98093BC00C4011816190674F580E0C3
:1036F00090E02BC0CC24C394D12CE1CF85E0C82E20
:10370000D12CDDCF0F3FEFEF1E07C9F2C5010E949C
:10371000950E0817190798F6D9CFC8010E947B1A91
:103720004C0197FD02C0F6018083FFEFCF1ADF0A3C
:10373000CFCF97FCD5CFC8010E949F1A4C0197FDAF
:10374000CFCFCE0DDF1D8883CBCFCDB7DEB7EEE078
:103750000C94DE1BAA1BBB1B51E107C0AA1FBB1F99
:10376000A617B70710F0A61BB70B881F991F5A950D
:10377000A9F780959095BC01CD0108952F923F92B5
:103780004F925F926F927F928F929F92AF92BF9271
:10379000CF92DF92EF92FF920F931F93CF93DF931D
:1037A000CDB7DEB7CA1BDB0B0FB6F894DEBF0FBE7A
:1037B000CDBF09942A88398848885F846E847D84C7
:1037C0008C849B84AA84B984C884DF80EE80FD80C9
:1037D0000C811B81AA81B981CE0FD11D0FB6F8943F
:1037E000DEBF0FBECDBFED010895F999FECF92BDAA
:1037F00081BDF89A992780B50895A6E1B0E044E02C
:1038000050E00C943F1CA8E1B0E042E050E00C9482
:103810003F1CDC01A40FB51F4150504048F0CB01C4
:10382000840F951F2E910E941A1C41505040D0F7D2
:103830000895262FF999FECF92BD81BDF89A019780
:1038400000B4021639F01FBA20BD0FB6F894FA9AE8
:10385000F99A0FBE08950396272F0E941A1C0E9402
:10386000191C252F0E941A1C242F0C941A1C019637
:10387000272F0E941A1C0C94191CDC01CB01FC019F
:10388000F999FECF06C0F2BDE1BDF89A319600B4B9
:103890000D9241505040B8F70895EE0FFF1F05906C
:1038A000F491E02D0994FB01DC0104C08D9101909D
:1038B000801921F441505040C8F7881B990B089596
:0438C000F894FFCFAA
:1038C400017109C709C0097009B9092000F0F1F4B0
:1038D400F5F6F70000000000000030313233929317
:1038E40066010101010101010000000000000081E6
:1038F4008283E200E900EA00B500B600B700CD001B
:103904008301CC008A019201940121022302240242
:103914002502260227022A02B300B4006F007000B9
:083924009F01CB019F02A002EC
:00000001FF
